:040000002CEF00F0F1
:060008006D8291ED0CF089
:100018006D80D8CF5CF0E8CF5DF0E0CF5EF0F0A85F
:1000280018EF00F01AEF00F024EF00F0F0A21FEF35
:1000380000F021EF00F024EF00F0F0926AEC0EF0EF
:100048005EC0E0FF5DC0E8FF5CC0D8FF6D901000A7
:040058008EEF11F026
:1006000000546869732069732045746865726E656B
:10061000742070726F746F636F6C207465737420D4
:100620006669726D77617265210D0A005735353044
:100630003020496E697420436F6D706C657465215C
:100640000A0057353530302D3E25640A00003450FD
:10065000D8B42DEF03F02FEF03F08AEF06F0000E71
:10066000326E000E346ECB0E486E000E2F6E8AEF87
:1006700006F04C50D8A43FEF03F041EF03F057EFE2
:1006800003F04B50D8A447EF03F049EF03F053EFCA
:1006900003F00350D8A44FEF03F051EF03F053EFF2
:1006A00003F0120E036E010E4C6E6CEF03F04B5014
:1006B000D8A45DEF03F05FEF03F06AEF03F0120ED2
:1006C0000318D8A466EF03F068EF03F06AEF03F0B5
:1006D000000E036E000E4C6E000E2F6E035010ECD9
:1006E00010F0AFEF06F003C0FEF00001FE2BFEC0DD
:1006F00063F0646A63BE64060F0E6316000E641630
:1007000064BE8CEF03F0645009E10A0E635CD8A06C
:100710008CEF03F08EEF03F090EF03F0060EFE2750
:100720004C50D8A496EF03F098EF03F0B4EF03F029
:10073000FE51800A6E0FD8A0A0EF03F0A2EF03F0E5
:10074000A4EF03F0010E4B6EFE51800A5C0FD8A09F
:10075000ACEF03F0AEEF03F0E0EF03F0000EFE6F3E
:10076000000E4B6EE0EF03F04C04D8A4BAEF03F098
:10077000BCEF03F0E0EF03F0FE51800A6D0FD8A04C
:10078000C4EF03F0C6EF03F0C8EF03F0010EFE6FF5
:10079000FE51800A6E0FD8A0D0EF03F0D2EF03F025
:1007A000E0EF03F04B04D8A4D8EF03F0DAEF03F046
:1007B000DEEF03F0000E4B6EE0EF03F0010E4B6E28
:1007C000FEC003F0035010EC10F0000E2F6EAFEFE0
:1007D00006F00A4A0B2A0A50085C0B500958D8B098
:1007E000F4EF03F0F6EF03F0AFEF06F002C0FEF017
:1007F0000001FE2BFEC063F0646A63BE64060F0E48
:100800006316000E641664BE0FEF04F0645009E135
:100810000A0E635CD8A00FEF04F011EF04F013EFA1
:1008200004F0060EFE27FE51800A260FD8A01BEF0B
:1008300004F01DEF04F01FEF04F0000EFE6FFEC089
:1008400002F00250A4EC14F0000E0B6E000E0A6EC3
:10085000AFEF06F00A4A0B2A0A50085C0B50095801
:10086000D8B035EF04F037EF04F0AFEF06F001C079
:10087000FEF00001FE2BFEC063F0646A63BE6406F6
:100880000F0E6316000E641664BE50EF04F0645041
:1008900009E10A0E635CD8A050EF04F052EF04F0B7
:1008A00054EF04F0060EFE27FE51800A260FD8A052
:1008B0005CEF04F05EEF04F060EF04F0000EFE6FFA
:1008C000FEC001F0015095EC14F024EF04F0000E8E
:1008D0002F6E02C0FEF00001FE2BFEC063F0646AC2
:1008E00063BE64060F0E6316000E641664BE82EFCC
:1008F00004F0645009E10A0E635CD8A082EF04F0B2
:1009000084EF04F086EF04F0060EFE27FE51800A05
:10091000260FD8A08EEF04F090EF04F092EF04F0D1
:10092000000EFE6FFEC002F00250A4EC14F0AFEF18
:1009300006F0000E2F6E01C0FEF00001FE2BFEC07F
:1009400063F0646A63BE64060F0E6316000E6416DD
:1009500064BEB4EF04F0645009E10A0E635CD8A0F1
:10096000B4EF04F0B6EF04F0B8EF04F0060EFE2783
:10097000FE51800A260FD8A0C0EF04F0C2EF04F0A9
:10098000C4EF04F0000EFE6FFEC001F0015095ECC4
:1009900014F0AFEF06F02F50636E646A6450000AE3
:1009A000D8B4D5EF04F0AFEF06F063500B0AD8B41B
:1009B00073EF03F0070AD8B467EF04F0010AD8B464
:1009C00099EF04F0030AD8B439EF03F01F0AD8B442
:1009D000E9EF03F0030AD8B42AEF04F0AFEF06F012
:1009E000000E2F6E3650D8B4F8EF04F0FAEF04F092
:1009F000FCEF04F0AFEF06F03850D8A402EF05F09A
:100A000004EF05F00CEF05F0C80E486E3FEC15F052
:100A1000000E326E12EF05F0C90E486E3CEC15F078
:100A200008EF05F048C044F0AFEF06F03850D8A406
:100A30001CEF05F01EEF05F020EF05F0AFEF06F01C
:100A4000010E636E000E646E3650635E000E645AD3
:100A500063506410D8A42FEF05F032EF05F0010EBB
:100A600033EF05F0000E366EE5EF03F0F3EC13F014
:100A7000000E366EE5EF03F02F50636E646A64502B
:100A8000000AD8B446EF05F0AFEF06F063500E0A47
:100A9000D8B4F0EF04F0010AD8B416EF05F01B0A41
:100AA000D8B436EF05F0AFEF06F0000E366E000E4C
:100AB000326EB1EF05F03850D8A461EF05F063EF66
:100AC00005F06BEF05F0C80E486E3FEC15F0000E18
:100AD000326E71EF05F0C90E486E3CEC15F067EF11
:100AE00005F0000E2F6E12EF05F03704D8A47BEF4F
:100AF00005F07DEF05F085EF05F0000E3B6E000E72
:100B00003A6E000E396EE5EF03F03750D8A48BEF44
:100B100005F08DEF05F0E5EF03F03EC041F03DC07C
:100B200040F03CC03FF0E5EF03F0F3EC13F0E5EFED
:100B300003F03704D8A49FEF05F0A1EF05F0A3EF71
:100B400005F0E5EF03F0CA0E486EAFEF06F037048C
:100B5000D8A4ADEF05F0AFEF05F0A3EF05F0E5EF9A
:100B600003F02F50636E646A6450000AD8B4BBEF80
:100B700005F0AFEF06F063500C0AD8B499EF05F01A
:100B8000010AD8B4A7EF05F0030AD8B45BEF05F06B
:100B9000010AD8B475EF05F01B0AD8B495EF05F03B
:100BA000AFEF06F0000E376E000E326EEEEF05F07E
:100BB000C80E486E3FEC15F0000E326EE5EF03F004
:100BC000010E376EC90E486E3CEC15F041C03BF08B
:100BD00040C03AF03FC039F0E5EF03F02F50636EAC
:100BE000646A6450000AD8B4F8EF05F0AFEF06F07D
:100BF00063500C0AD8B4A3EF05F0010AD8B4A3EFF0
:100C000005F0030AD8B4D8EF05F0010AD8B48DEF87
:100C100005F01B0AD8B4E0EF05F0AFEF06F00A4A82
:100C20000B2A0A50085C0B500958D8B01AEF06F08E
:100C30001CEF06F0AFEF06F010EC14F024EF04F018
:100C40000A4A0B2A0A50085C0B500958D8B02BEFFF
:100C500006F02DEF06F0AFEF06F0ACEC0FF024EF4E
:100C600004F0000E326E10EC14F0E5EF03F0000E0D
:100C7000326EACEC0FF0E5EF03F03704D8A443EF8D
:100C800006F045EF06F0D8EF05F0E5EF03F0370486
:100C9000D8A44DEF06F04FEF06F051EF06F0E5EF68
:100CA00003F03750D8A457EF06F059EF06F05FEF86
:100CB00006F0000E416E000E406E000E3F6E000EFC
:100CC000326E000E2F6EAFEF06F02F50636E646A27
:100CD0006450000AD8B46FEF06F0AFEF06F063502F
:100CE0000C0AD8B431EF06F0010AD8B437EF06F099
:100CF000030AD8B43DEF06F0010AD8B447EF06F076
:100D00001E0AD8B40FEF06F0030AD8B420EF06F09D
:100D1000AFEF06F04850636E646A6450000AD8B4BE
:100D200094EF06F0AFEF06F06350640AD8B4CBEF4F
:100D300004F0010AD8B4AFEF06F0AD0AD8B43CEF26
:100D400005F0010AD8B455EF05F0030AD8B465EFF1
:100D500006F0010AD8B4D2EF05F0AFEF06F01200AA
:100D600048EF08F0B10E145C040E1558D8A0BBEF84
:100D700006F0BDEF06F0D1EF06F02C50D8A4C3EF7B
:100D800006F0C5EF06F0C7EF06F0100E2F6E010E4D
:100D90002C6E040E156EB00E146E27EC03F0EAEF05
:100DA00006F0155009E1330E145CD8A0DAEF06F016
:100DB000DCEF06F0EAEF06F02D50D8A4E2EF06F0E3
:100DC000E4EF06F0E6EF06F00B0E2F6E010E2D6E2F
:100DD000CDEF06F00001C15109E1060EC05DD8A0BB
:100DE000F4EF06F0F6EF06F06AEF08F0000EC16FC0
:100DF000000EC06F000E2E6E000E2C6E000E2D6EBB
:100E0000000E2F6E6AEF08F0B10E125C040E13583C
:100E1000D8A00DEF07F00FEF07F023EF07F02C50ED
:100E2000D8A415EF07F017EF07F019EF07F0110E30
:100E30002F6E010E2C6E040E136EB00E126E27EC88
:100E400003F03CEF07F0135009E1330E125CD8A019
:100E50002CEF07F02EEF07F03CEF07F02D50D8A451
:100E600034EF07F036EF07F038EF07F00C0E2F6E77
:100E7000010E2D6E1FEF07F00001BF5109E1060EB4
:100E8000BE5DD8A046EF07F048EF07F06AEF08F024
:100E9000000EBF6F000EBE6F000E2E6E000E2C6E89
:100EA000000E2D6E000E2F6E6AEF08F0B10E105C72
:100EB000040E1158D8A05FEF07F061EF07F075EF4F
:100EC00007F02C50D8A467EF07F069EF07F06BEF3D
:100ED00007F0120E2F6E010E2C6E040E116EB00E66
:100EE000106E27EC03F08EEF07F0115009E1330E7E
:100EF000105CD8A07EEF07F080EF07F08EEF07F0D0
:100F00002D50D8A486EF07F088EF07F08AEF07F09E
:100F10000D0E2F6E010E2D6E71EF07F00001BD5109
:100F200009E1060EBC5DD8A098EF07F09AEF07F034
:100F30006AEF08F0000EBD6F000EBC6F000E2E6E43
:100F4000000E2C6E000E2D6E000E2F6E6AEF08F054
:100F5000B10E0E5C040E0F58D8A0B1EF07F0B3EF3E
:100F600007F0C7EF07F02C50D8A4B9EF07F0BBEF9C
:100F700007F0BDEF07F0130E2F6E010E2C6E040E5E
:100F80000F6EB00E0E6E27EC03F0E0EF07F00F507F
:100F900009E1330E0E5CD8A0D0EF07F0D2EF07F0D6
:100FA000E0EF07F02D50D8A4D8EF07F0DAEF07F004
:100FB000DCEF07F00E0E2F6E010E2D6EC3EF07F063
:100FC0000001BB5109E1060EBA5DD8A0EAEF07F0B7
:100FD000ECEF07F06AEF08F0000EBB6F000EBA6F7F
:100FE000000E2E6E000E2C6E000E2D6E6AEF08F0B5
:100FF000B10E0C5C040E0D58D8A001EF08F003EF01
:1010000008F017EF08F02C50D8A409EF08F00BEF08
:1010100008F00DEF08F0140E2F6E010E2C6E040E6A
:101020000D6EB00E0C6E27EC03F030EF08F00D5093
:1010300009E1330E0C5CD8A020EF08F022EF08F095
:1010400030EF08F02D50D8A428EF08F02AEF08F070
:101050002CEF08F00F0E2F6E010E2D6E13EF08F01F
:101060000001B95109E1060EB85DD8A03AEF08F0C9
:101070003CEF08F06AEF08F0000EB96F000EB86F91
:10108000000E2E6E000E2C6E000E2D6E6AEF08F014
:101090002E500101286F296B2951000AD8B453EF53
:1010A00008F06AEF08F02851010AD8B4B2EF06F050
:1010B000030AD8B404EF07F0010AD8B456EF07F0DA
:1010C000070AD8B4A8EF07F0010AD8B4F8EF07F080
:1010D0006AEF08F01200616ECEEF08F03F0E77EF76
:1010E00009F0060E77EF09F05B0E77EF09F04F0E6F
:1010F00077EF09F0660E77EF09F06D0E77EF09F0E4
:101100007D0E77EF09F0070E77EF09F07F0E77EF8E
:1011100009F06F0E77EF09F0770E77EF09F05F0EA9
:1011200077EF09F07C0E77EF09F0390E77EF09F0D1
:10113000580E77EF09F05E0E77EF09F0790E77EF32
:1011400009F07B0E77EF09F0710E77EF09F0760E5C
:1011500077EF09F0740E77EF09F00E0E77EF09F0D4
:10116000380E77EF09F0540E77EF09F05C0E77EF49
:1011700009F0730E77EF09F0670E77EF09F0500E64
:1011800077EF09F0780E77EF09F03E0E77EF09F070
:101190006E0E77EF09F0000E77EF09F061505F6E89
:1011A000606A6050000AD8B4D8EF08F077EF09F011
:1011B0005F50000AD8B46EEF08F0010AD8B471EF9E
:1011C00008F0030AD8B474EF08F0010AD8B477EF36
:1011D00008F0070AD8B47AEF08F0010AD8B47DEF16
:1011E00008F0030AD8B480EF08F0010AD8B483EFFE
:1011F00008F00F0AD8B486EF08F0010AD8B489EFD6
:1012000008F0480AD8B48CEF08F0030AD8B486EF87
:1012100008F0010AD8B495EF08F0070AD8B46EEFC9
:1012200008F0010AD8B49EEF08F0030AD8B4A4EF7E
:1012300008F0010AD8B480EF08F00F0AD8B4A7EF7D
:1012400008F0010AD8B471EF08F0030AD8B4ADEF82
:1012500008F0060AD8B4B0EF08F0030AD8B46EEF6D
:1012600008F01F0AD8B4B9EF08F0030AD8B47DEF2C
:1012700008F0060AD8B4C5EF08F0340AD8B48FEFE6
:1012800008F0030AD8B492EF08F0010AD8B498EF36
:1012900008F0070AD8B49BEF08F0010AD8B4A1EF10
:1012A00008F0020AD8B489EF08F00F0AD8B4AAEF00
:1012B00008F0060AD8B4B3EF08F0010AD8B4B6EFC4
:1012C00008F01E0AD8B4BCEF08F0030AD8B4BFEF88
:1012D00008F0060AD8B4C2EF08F00D0AD8B4C8EF77
:1012E00008F0860AD8B4CBEF08F077EF09F01200C7
:1012F00059EC13F0B0EC06F03450D8B482EF09F09A
:1013000084EF09F08EEF09F0000E176EC80E166E0E
:10131000050E326E000E366E9DEF09F0010E176E4F
:101320002C0E166ECB0E4818D8A499EF09F09BEF3F
:1013300009F09DEF09F0000E326E49B0A2EF09F0FE
:10134000A4EF09F0A6EF09F07AEF09F04990F1EC6B
:101350000DF0E2EF09F071EC14F019EF0AF071EC06
:1013600014F0010E0001866F19EF0AF071EC14F011
:10137000010E0001806F010E816F19EF0AF071EC10
:1013800014F0010E0001826F010E836F19EF0AF055
:1013900071EC14F0010E0001846F010E856F19EFDE
:1013A0000AF071EC14F0010E0001806F010E816FE4
:1013B000010E826F010E836F010E846F010E856F27
:1013C000B1EF09F032500101376F386B3851000A24
:1013D000D8B4EDEF09F019EF0AF03751000AD8B48C
:1013E000ABEF09F0010AD8B4AFEF09F0030AD8B4A3
:1013F000B6EF09F0010AD8B4BFEF09F0070AD8B474
:10140000C8EF09F0010AD8B4D1EF09F019EF0AF0DA
:1014100044EC0FF061C032F162C033F1010E010102
:10142000346F060E356FD2EC13F0000E326E2BEFD8
:101430000AF048500101376F386B3851000AD8B4B0
:1014400024EF0AF02BEF0AF03751640AD8B408EF02
:101450000AF02BEF0AF03650D8B431EF0AF033EF30
:101460000AF044EF0AF07AEF09F0DDEC0BF0FEC071
:1014700032F1FFC033F1010E0101346F060E356FFA
:10148000D2EC13F07AEF09F048500101376F386B56
:101490003851000AD8B44FEF0AF07AEF09F037510B
:1014A000C80AD8B435EF0AF0010AD8B435EF0AF00B
:1014B000030AD8B435EF0AF0010AD8B435EF0AF0C0
:1014C0007AEF09F02CEF00F080BE69EF0AF06BEFC5
:1014D0000AF074EF0AF0000E0001C16F000EC06F39
:1014E000144A152A010E2E6E80AE79EF0AF07BEFBA
:1014F0000AF08AEF0AF02E04D8A481EF0AF083EFF5
:101500000AF08AEF0AF0000E156E000E146E00014C
:10151000C04BC12B80B88FEF0AF091EF0AF09AEF21
:101520000AF0000E0001BF6F000EBE6F124A132AB0
:10153000020E2E6E80A89FEF0AF0A1EF0AF0B1EF25
:101540000AF0020E2E18D8A4A8EF0AF0AAEF0AF0AB
:10155000B1EF0AF0000E136E000E126E0001BE4BCA
:10156000BF2B80BCB6EF0AF0B8EF0AF0C1EF0AF06B
:10157000000E0001BD6F000EBC6F104A112A030E51
:101580002E6E80ACC6EF0AF0C8EF0AF0D8EF0AF072
:10159000030E2E18D8A4CFEF0AF0D1EF0AF0D8EF3F
:1015A0000AF0000E116E000E106E0001BC4BBD2B38
:1015B00081B8DDEF0AF0DFEF0AF0E8EF0AF0000E85
:1015C0000001BB6F000EBA6F0E4A0F2A040E2E6E7A
:1015D00081A8EDEF0AF0EFEF0AF0FFEF0AF0040E3A
:1015E0002E18D8A4F6EF0AF0F8EF0AF0FFEF0AF091
:1015F000000E0F6E000E0E6E0001BA4BBB2B83BCAB
:1016000004EF0BF006EF0BF00FEF0BF0000E0001F4
:10161000B96F000EB86F0C4A0D2A050E2E6E83AC02
:1016200014EF0BF016EF0BF026EF0BF0050E2E1853
:10163000D8A41DEF0BF01FEF0BF026EF0BF0000E00
:101640000D6E000E0C6E0001B84BB92B12008A8093
:101650008C8E8A8A8A828B8A8B808B828B84312AB9
:10166000870E3124D96EDA6A000EDA22DF50576E07
:101670007F0E3124D96EDA6A000EDA22DF50D8B438
:1016800044EF0BF046EF0BF05BEF0BF0D890173008
:10169000546E1630536E3050556E566A5350555C2A
:1016A00054505658D8B057EF0BF059EF0BF05BEF92
:1016B0000BF0000E576E57C04DF04E6A64EC12F0FE
:1016C0007DEF0BF08B94AAEF0BF08B92AAEF0BF04F
:1016D0008B90AAEF0BF08B9AAAEF0BF08A92AAEFED
:1016E0000BF08A9AAAEF0BF08C9EAAEF0BF08A906F
:1016F000000E316E302AAAEF0BF03150536E546A4F
:101700005450000AD8B487EF0BF0AAEF0BF05350F7
:10171000010AD8B462EF0BF0030AD8B465EF0BF0FE
:10172000010AD8B468EF0BF0070AD8B46BEF0BF0DE
:10173000010AD8B46EEF0BF0030AD8B471EF0BF0C6
:10174000010AD8B474EF0BF00F0AD8B477EF0BF09E
:10175000AAEF0BF03050536E546A1650531807E13D
:1017600017505418D8A4B7EF0BF0B9EF0BF0DCEF1B
:101770000BF0000E306E3450D8B4C1EF0BF0C3EF55
:101780000BF0C4EF0BF0332A0F0E3364CAEF0BF0EB
:10179000CCEF0BF0DCEF0BF03450D8B4D2EF0BF001
:1017A000D4EF0BF0DCEF0BF0000E346E000E326E57
:1017B0000C0E336ECB0E486E12003704D8A4E3EF44
:1017C0000BF0E5EF0BF02FEF0CF03BC05FF0606A21
:1017D000000E626E0A0E616E36EC11F05F50010170
:1017E0002D6F3BC05FF0606A000E626E0A0E616E84
:1017F00073EC10F05F5001012C6F3AC05FF0606A2B
:10180000000E626E0A0E616E36EC11F05F5001013F
:101810002F6F3AC05FF0606A000E626E0A0E616E52
:1018200073EC10F05F5001012E6F39C05FF0606AF9
:10183000000E626E0A0E616E36EC11F05F5001010F
:10184000316F39C05FF0606A000E626E0A0E616E21
:1018500073EC10F05F500101306F8BEF0CF03750DC
:10186000D8A435EF0CF037EF0CF08BEF0CF04150B3
:101870005F6E606A5FBE6006000E626E0A0E616E89
:1018800036EC11F05F5001012D6F41505F6E606AC0
:101890005FBE6006000E626E0A0E616E73EC10F0A1
:1018A0005F5001012C6F40505F6E606A5FBE600642
:1018B000000E626E0A0E616E36EC11F05F5001018F
:1018C0002F6F40505F6E606A5FBE6006000E626EF2
:1018D0000A0E616E73EC10F05F5001012E6F3F50E5
:1018E0005F6E606A5FBE6006000E626E0A0E616E19
:1018F00036EC11F05F500101316F3F505F6E606A4E
:101900005FBE6006000E626E0A0E616E73EC10F030
:101910005F500101306F2C0E0001FE6F010EFF6F52
:1019200012000600D9CF5AF0DACF5BF0F2AA9BEF93
:101930000CF09DEF0CF02DEF0DF0F2A4A2EF0CF0E7
:10194000A4EF0CF02DEF0DF0F294B7EF0CF0FF0EBA
:101950004E6ECD0E4D6E1AEC15F0E4EF0CF0FF0E4E
:101960004E6E050E4D6E1AEC15F0E4EF0CF0315092
:10197000586E596A5950000AD8B4C1EF0CF0E4EF20
:101980000CF05850000AD8B4A7EF0CF0010AD8B4F4
:10199000A7EF0CF0030AD8B4A7EF0CF0010AD8B4F3
:1019A000A7EF0CF0070AD8B4A7EF0CF0010AD8B4DF
:1019B000A7EF0CF0030AD8B4A7EF0CF0010AD8B4D3
:1019C000AFEF0CF0E4EF0CF027EC0BF064EC0AF056
:1019D0000001B64BB72B640EB619B711D8A4F3EFBC
:1019E0000CF0F5EF0CF03EEF0DF04980000EB76FF4
:1019F000000EB66F2C50D8B400EF0DF002EF0DF0D2
:101A000023EF0DF0E44BE52BE55109E10B0EE45D0E
:101A1000D8A00DEF0DF00FEF0DF013EF0DF0000E4D
:101A2000E56F0A0EE46F000E4E6E640E4D6EE4C05C
:101A30004FF0E5C050F0E7EC12F04DC008F04EC09A
:101A400009F03EEF0DF0000EE56F000EE46F000EA2
:101A5000096E640E086E3EEF0DF0F0A832EF0DF047
:101A600034EF0DF03EEF0DF0F0A239EF0DF03BEF4B
:101A70000DF03EEF0DF0F092D7EC0EF05BC0DAFF08
:101A80005AC0D9FF6D92110020EE02F06050D926A5
:101A90006150DA22DF50636E4C04D8A452EF0DF08F
:101AA00054EF0DF07DEF0DF0120E63645AEF0DF060
:101AB0005CEF0DF05FEF0DF06350EE0F636E63C0EF
:101AC00062F00F0E6216090E626469EF0DF06BEFA3
:101AD0000DF06DEF0DF0060E635E63504009636E0E
:101AE0004B04D8A476EF0DF078EF0DF09EEF0DF0DB
:101AF00063502009636E9EEF0DF04B04D8A483EF72
:101B00000DF085EF0DF090EF0DF0120E63608BEF8E
:101B10000DF08DEF0DF090EF0DF06350120F636E2E
:101B200063C062F00F0E6216090E62649AEF0DF048
:101B30009CEF0DF09EEF0DF0060E632620EE02F0F6
:101B40006050D9266150DA2263C0DFFFFFEC14F049
:101B5000D00EB3EC14F0000EB3EC14F060C0D9FF5B
:101B600061C0DAFFDF50B3EC14F020EE01F06050FA
:101B7000D9266150DA22DF50B3EC14F020EE02F0E7
:101B80006050D9266150DA22DF50B3EC14F020EE19
:101B900003F06050D9266150DA22DF50B3EC14F024
:101BA00020EE04F06050D9266150DA22DF50B3EC09
:101BB00014F020EE05F06050D9266150DA22DF5093
:101BC000B3EC14F020EE06F06050D9266150DA2212
:101BD000DF50B3EC14F0900EB3EC14F011EC15F0F0
:101BE0001200000E00018F6F3AEF0EF04C50D8A497
:101BF000FCEF0DF0FEEF0DF001EF0EF08F8169EFBD
:101C00000EF08F8369EF0EF03450D8B40AEF0EF067
:101C10000CEF0EF00FEF0EF08F8910EF0EF08F8BA0
:101C20003650D8B416EF0EF018EF0EF05FEF0EF04E
:101C3000184A192A195007E10C0E185CD8B023EF86
:101C40000EF025EF0EF026EF0EF08F85195009E10A
:101C50001A0E185CD8A02FEF0EF031EF0EF05FEFE8
:101C60000EF0000E196E000E186E5FEF0EF08F89E9
:101C70005FEF0EF048505F6E606A6050000AD8B4A3
:101C800044EF0EF05FEF0EF05F50640AD8B4F6EF49
:101C90000DF0010AD8B4F6EF0DF0AD0AD8B404EF98
:101CA0000EF0010AD8B437EF0EF0030AD8B437EFBC
:101CB0000EF0010AD8B437EF0EF05FEF0EF03704E4
:101CC000D8A465EF0EF067EF0EF001EF0EF0FEEF17
:101CD0000DF012003850D8A470EF0EF072EF0EF035
:101CE00074EF0EF0D6EF0EF03704D8A47AEF0EF0B2
:101CF0007CEF0EF097EF0EF0392A3C0E3918D8A47D
:101D000084EF0EF086EF0EF0D6EF0EF0000E396E77
:101D10003A2A3C0E3A18D8A490EF0EF092EF0EF04B
:101D2000D6EF0EF0000E3A6E3B2AD6EF0EF037508B
:101D3000D8A49DEF0EF09FEF0EF0D6EF0EF04150BD
:101D4000D8A4A5EF0EF0A7EF0EF0BFEF0EF04050B5
:101D5000D8A4ADEF0EF0AFEF0EF0BFEF0EF03F5096
:101D6000D8A4B5EF0EF0B7EF0EF0BFEF0EF0000EF7
:101D7000386E010E346E000E336ED6EF0EF0000E8C
:101D8000346E3F063FBEC9EF0EF0C7EF0EF0D6EF40
:101D90000EF03B0E3F6E400640BED3EF0EF0D1EF8B
:101DA0000EF0D6EF0EF03B0E406E4106120038509A
:101DB000D8A4DDEF0EF0DFEF0EF0E1EF0EF043EF11
:101DC0000FF03704D8A4E7EF0EF0E9EF0EF004EFC0
:101DD0000FF0392A3C0E3918D8A4F1EF0EF0F3EFCA
:101DE0000EF043EF0FF0000E396E3A2A3C0E3A180F
:101DF000D8A4FDEF0EF0FFEF0EF043EF0FF0000E52
:101E00003A6E3B2A43EF0FF03750D8A40AEF0FF099
:101E10000CEF0FF043EF0FF04150D8A412EF0FF08A
:101E200014EF0FF02CEF0FF04050D8A41AEF0FF082
:101E30001CEF0FF02CEF0FF03F50D8A422EF0FF063
:101E400024EF0FF02CEF0FF0000E386E010E346E01
:101E5000000E336E43EF0FF0000E346E3F063FBEB0
:101E600036EF0FF034EF0FF043EF0FF03B0E3F6E05
:101E7000400640BE40EF0FF03EEF0FF043EF0FF093
:101E80003B0E406E41061200FFEC14F0D00EB3EC96
:101E900014F0000EB3EC14F008EC15F0D10EB3EC16
:101EA00014F0000E2CEC14F0016E000E2CEC14F06B
:101EB000026E010E2CEC14F0036E11EC15F003BC55
:101EC00064EF0FF067EF0FF0010E68EF0FF0000EF8
:101ED0004C6E4C50D8A46FEF0FF071EF0FF076EF0F
:101EE0000FF003503F0B036E83EF0FF003BA7BEF4D
:101EF0000FF07EEF0FF0010E7FEF0FF0000E4B6E34
:101F000003501F0B036E03380F0B0101286F0350A2
:101F10000F0B296F02380F0B2A6F02500F0B2B6F1C
:101F200001380F0B2C6F01500F0B2D6F4C04D8A4F0
:101F30009CEF0FF09EEF0FF0A7EF0FF02851D8A401
:101F4000A4EF0FF0A6EF0FF0A7EF0FF02869280E0F
:101F5000616E010E626E12003F063FBEB4EF0FF0DD
:101F6000B2EF0FF0F0EF0FF0415040245F6EE86ADF
:101F7000D8B0E82A41BEE80640BEE806606E5F5071
:101F80006010D8B4C6EF0FF0C8EF0FF0F0EF0FF00D
:101F90003B0E3F6E400640BED2EF0FF0D0EF0FF089
:101FA000DFEF0FF04150D8B4D8EF0FF0DAEF0FF0B9
:101FB000DFEF0FF03B0E406E4106F0EF0FF040BE3A
:101FC000E6EF0FF0E4EF0FF0F0EF0FF04150D8A480
:101FD000ECEF0FF0EEEF0FF0F0EF0FF0000E406EB1
:101FE0003FBEF7EF0FF0F5EF0FF00DEF10F041509F
:101FF00040245F6EE86AD8B0E82A41BEE80640BED9
:10200000E806606E5F506010D8A409EF10F00BEF87
:1020100010F00DEF10F0000E3F6E23EC15F01200E3
:10202000616E61C062F04C04D8A419EF10F01BEF90
:1020300010F044EF10F0120E626421EF10F023EF65
:1020400010F026EF10F06250EE0F626E62C060F08A
:102050000F0E6016090E606430EF10F032EF10F0D2
:1020600034EF10F0060E625E62504009626E4B045F
:10207000D8A43DEF10F03FEF10F065EF10F0625084
:102080002009626E65EF10F04B04D8A44AEF10F0FF
:102090004CEF10F065EF10F0120E626052EF10F08E
:1020A00054EF10F065EF10F06250120F626E62C0D4
:1020B00060F00F0E6016090E606461EF10F063EFC0
:1020C00010F065EF10F0060E6226FFEC14F0D00E53
:1020D000B3EC14F0020EB3EC14F06250B3EC14F055
:1020E00011EC15F01200000E0101296F62BE7DEFA8
:1020F00010F07BEF10F083EF10F0616C621ED8B02F
:10210000622A010E296F60BE8AEF10F088EF10F08E
:1021100090EF10F05F6C601ED8B0602A010E291B92
:10212000000E2B6F000E2A6F61506210D8B49BEF27
:1021300010F09DEF10F0C5EF10F0010E286FA5EF25
:1021400010F0D89061366236282B62AEAAEF10F0FC
:10215000ACEF10F0A1EF10F0D8902A372B37615078
:102160005F5C62506058D8A0B8EF10F0BAEF10F082
:10217000BFEF10F061505F5E6250605A2A81D890C4
:1021800062326132282FACEF10F02951D8B4CBEF76
:1021900010F0CDEF10F0D1EF10F02A6D2B1FD8B05A
:1021A0002B2B2AC15FF02BC160F01200616E000E74
:1021B000AC6E000EAB6E61A0E0EF10F0E2EF10F03D
:1021C000E3EF10F0AC8861A2E8EF10F0EAEF10F056
:1021D000ECEF10F0AC8CAB8C61A4F1EF10F0F3EFEE
:1021E00010F0F4EF10F0AC8E61A6F9EF10F0FBEFF9
:1021F00010F0FEEF10F0AB88FFEF10F0AB8A61A893
:1022000004EF11F006EF11F009EF11F0AC840AEFC2
:1022100011F0AC9461AC0FEF11F011EF11F014EF6D
:1022200011F09D8A15EF11F09D9A61AE1AEF11F031
:102230001CEF11F01FEF11F09D8820EF11F09D9819
:102240005FC0AFFFAC8AAB8E949C948EACA82BEF92
:1022500011F02DEF11F035EF11F0ACBE32EF11F0AF
:1022600034EF11F035EF11F0948C1200000E646E13
:1022700060BE3FEF11F03DEF11F045EF11F05F6CE4
:10228000601ED8B0602A010E646E62BE4CEF11F081
:102290004AEF11F050EF11F0616C621ED8B0622A63
:1022A00061506210D8B457EF11F059EF11F07DEF83
:1022B00011F0010E636E61EF11F0D8906136623655
:1022C000632A62AE66EF11F068EF11F05DEF11F076
:1022D00061505F5C62506058D8A071EF11F073EFED
:1022E00011F077EF11F061505F5E6250605AD89044
:1022F00062326132632E68EF11F06450D8B483EF1C
:1023000011F085EF11F089EF11F05F6C601ED8B00D
:10231000602A5FC05FF060C060F01200B00EF66E21
:10232000290EF76E000EF86E01EE00F010EE16F0BA
:102330000900F5CFEEFFE550E150FAE1800EF66EB0
:10234000290EF76E000EF86E00EEE6F010EE18F0B3
:102350000900F5CFEEFFE550E150FAE1700EF66EA0
:102360002A0EF76E000EF86E00EE65F010EE08F023
:102370000900F5CFEEFFE550E150FAE101EE16F06D
:10238000120EEE6AE806FDE100EE80F0660EEE6ADF
:10239000E806FDE100EE01F04C0EEE6AE806FDE114
:1023A0006D906D92000EF86E000178EF09F092804A
:1023B00092829284928A80A0E0EF11F0E2EF11F015
:1023C000FDEF11F080A2E7EF11F0E9EF11F0FDEF62
:1023D00011F080A4EEEF11F0F0EF11F0FDEF11F02D
:1023E00080AAF5EF11F0F7EF11F0FDEF11F0C90E33
:1023F000486E000E326E1DEF12F080B002EF12F048
:1024000004EF12F01DEF12F080A209EF12F00BEFB3
:1024100012F01DEF12F080A410EF12F012EF12F084
:102420001DEF12F080AA17EF12F019EF12F01DEF56
:1024300012F0640E486E000E326E1200640E4818E0
:10244000D8A425EF12F027EF12F056EF12F0010E8C
:10245000326E44EC0FF061C032F162C033F1010E14
:102460000101346F060E356FD2EC13F00350D8A47F
:102470003CEF12F03EEF12F063EF12F00250D8A4DE
:1024800044EF12F046EF12F063EF12F00150D8A4BF
:102490004CEF12F04EEF12F063EF12F00C0E606E84
:1024A000010E616E44EC0DF063EF12F0C90E481896
:1024B000D8A45DEF12F05FEF12F063EF12F0000EA0
:1024C000386E000E366E12004DC050F04EC051F006
:1024D0008090809A8086000E526E50BE72EF12F08D
:1024E00076EF12F04F6A4F2A77EF12F04F6A805062
:1024F0004F18FE0B4F18806E00D000D000D000D0D7
:10250000808200D000D000D000D0809200D000D0D7
:1025100000D000D0D8905034506E5134516E522AB1
:10252000070E526496EF12F098EF12F06DEF12F072
:10253000808A00D000D000D000D0809A00D000D097
:1025400000D000D08096050EE82EFED700F01200D5
:10255000928E9288928C9388958C000E2F6E000E2E
:102560002E6E000E156E000E146E000E136E000E11
:10257000126E000E116E000E106E000E0F6E000E29
:102580000E6E000E0D6E000E0C6E000E0001C16F7F
:10259000000EC06F000EBF6F000EBE6F000EBD6F4D
:1025A000000EBC6F000EBB6F000EBA6F000EB96F4D
:1025B000000EB86F000E0B6E000E0A6E000E2D6E30
:1025C000000E2C6E000E096E640E086E1200000ED6
:1025D000526E000E516E4F505010D8B4F2EF12F000
:1025E000F4EF12F01CEF13F0010E536EFCEF12F03B
:1025F000D8904F365036532A50AE01EF13F003EF08
:1026000013F0F8EF12F0D890513652364F504D5C1F
:1026100050504E58D8A00FEF13F011EF13F016EFF3
:1026200013F04F504D5E50504E5A5180D89050325A
:102630004F32532E03EF13F051C04DF052C04EF005
:102640001200949494929490949A9392939A959E53
:1026500093908A808C8E8A8A8A828B8A8B808B82E6
:102660008B84F6EC14F0000E5F6E800E5F24D96E42
:10267000DA6A000EDA22DF6A880E5F24D96EDA6A1F
:10268000000EDA22DF6A5F2A070E5F644AEF13F05A
:102690004CEF13F035EF13F000018E69000E316E30
:1026A000000E306E000E326E010E176E2C0E166E7E
:1026B00012002AEC15F0000EC26E0F0EC16E44EC33
:1026C00015F0D7EC11F0920E48EC14F0FF0E606E8E
:1026D000050E5F6EEDEC14F042EC15F08BEC13F090
:1026E00021EC13F0A8EC12F031EC15F01EEC12F016
:1026F000000E606E670E5F6E3C0ED6EC10F0010EA1
:10270000606E060E616EAFEC13F0000E0001C36F39
:10271000000EC26F1200000E416E000E406E000EE1
:102720003F6E000E3E6E000E3D6E000E3C6E000EC3
:102730003B6E000E3A6E000E396E000E386E000EC3
:10274000366E010E376E000E356E000E346E000EC2
:10275000336E9384F09EF092F088F1881200CCECF6
:1027600014F00009D8A4B7EF13F0B9EF13F0AFEFEE
:1027700013F060C0F6FF61C0F7FF0800F5505DEC94
:1027800014F060C0F6FF61C0F7FF604A612A0800DC
:10279000F5500009D8A4CFEF13F0D1EF13F0AFEF4D
:1027A00013F0120001013405366FE9EF13F0880EC3
:1027B0003625D96EDA6A000EDA2236513225E16EFC
:1027C000000E3321E26EE7506BEC08F0DF6E010182
:1027D000362B3551365DD8A0F0EF13F0F2EF13F041
:1027E000D7EF13F012003704D8A4F9EF13F0FBEF82
:1027F00013F005EF14F0000E376E3BC041F03AC005
:1028000040F039C03FF00DEF14F0010E376E41C0BB
:102810003BF040C03AF03FC039F023EC15F0120015
:102820003F2A3C0E3F18D8A418EF14F01AEF14F00A
:1028300029EF14F0000E3F6E402A3C0E4018D8A439
:1028400024EF14F026EF14F029EF14F0000E406E80
:10285000412A23EC15F012005F6EC586C7A033EF46
:1028600014F035EF14F02EEF14F0C9CF60F084ECC3
:1028700014F05FB002D0C59A01D0C58AC588C5B82A
:1028800044EF14F046EF14F03FEF14F060501200E4
:102890005F6E5F507F0BD56E000ED76E000ED66E4A
:1028A000F2945FAE56EF14F058EF14F05BEF14F0B3
:1028B000F28A5CEF14F0F29A12005F6EACAC63EF38
:1028C00014F065EF14F06EEF14F0AC902BA26BEFE8
:1028D00014F06DEF14F06EEF14F0AC805FC0ADFF3C
:1028E0001200000E5F6E800E5F24D96EDA6A000E51
:1028F000DA22DF6A5F2A060E5F6481EF14F083EF4D
:1029000014F073EF14F01200C7B489EF14F08BEFDA
:1029100014F084EF14F0C5AC90EF14F092EF14F0C3
:1029200094EF14F011EC15F01200606EFFEC14F04F
:10293000D00EB3EC14F0000EB3EC14F06050B3EC16
:1029400014F011EC15F01200606EFFEC14F0D00ED4
:10295000B3EC14F0010EB3EC14F06050B3EC14F0CF
:1029600011EC15F012005F6E5FC0C9FFC7B0BBEF7E
:1029700014F0BDEF14F0B6EF14F084EC14F0120074
:102980000A0A0F01FFFFFF000A0A0FDF0A0A0F0100
:10299000FFFFFF000A0A0FDFACB2D1EF14F0D3EF54
:1029A00014F0D6EF14F0010ED7EF14F0000E120061
:1029B000F46B8CCE674BF46B8CCE674B1012090511
:1029C000301123000000C78EC79CC68AC650F00B8A
:1029D0000809C66E630EC86E12005FC061F060C069
:1029E00062F062C0D7FF61C0D6FF1200929092924F
:1029F000929A92968086809A809280901200C580EA
:102A0000C5B005EF15F007EF15F000EF15F0120057
:102A1000C582C5B20EEF15F010EF15F009EF15F0F5
:102A20001200C584C5B417EF15F019EF15F012EFB9
:102A300015F012004DC04FF04EC050F050C0D7FFFF
:102A40004FC0D6FF120041C03EF040C03DF03FC035
:102A50003CF01200D388D38AD38C9B8CD390D38242
:102A60001200010E4C6E010E4B6EE3EC14F01200DE
:102A70000303030303030303000E386E1200010E69
:0C2A8000386E1200D58E1200F28E12008B
:020000040030CA
:0E000000FF081F1EFF0180FF0FC00FE00F4022
:00000001FF
