:040000002CEF00F0F1
:060008007082ADED0FF067
:100018007080D8CF5DF0E8CF5EF0E0CF5FF0F0A859
:1000280018EF00F01AEF00F024EF00F0F0A21FEF35
:1000380000F021EF00F024EF00F0F092B9EC0DF0A1
:100048005FC0E0FF5EC0E8FF5DC0D8FF70901000A1
:0400580053EF10F062
:1006000000546869732069732045746865726E656B
:10061000742070726F746F636F6C207465737420D4
:100620006669726D77617265210D0A005735353044
:100630003020496E697420436F6D706C657465215C
:100640000A0057353530302D3E25640A0000315000
:10065000D8B42DEF03F02FEF03F01CEF06F0000EDF
:100660002F6E000E316ECB0E456E000E2C6E1CEF01
:1006700006F04950D8A43FEF03F041EF03F045EFF7
:1006800003F0010E496E47EF03F0000E496E000EB5
:100690002C6E4A0E616E31EC0DF041EF06F0650EE6
:1006A000456E41EF06F02C50636E646A6450000A98
:1006B000D8B45DEF03F041EF06F063500B0AD8B4F5
:1006C0004FEF03F0070AD8B44FEF03F0010AD8B494
:1006D0004FEF03F0030AD8B439EF03F041EF06F00F
:1006E0004CC065F0652A65C063F0646A63BE640649
:1006F0000F0E6316000E641664BE88EF03F064509C
:1007000009E10A0E635CD8A088EF03F08AEF03F0DA
:100710008CEF03F0060E65264950D8A492EF03F043
:1007200094EF03F0A4EF03F06550800A5C0FD8A0AB
:100730009CEF03F09EEF03F0A0EF03F0000E656E58
:10074000000E486EC6EF03F04904D8A4AAEF03F0E8
:10075000ACEF03F0C6EF03F06550800A6D0FD8A030
:10076000B4EF03F0B6EF03F0C6EF03F04804D8A4EB
:10077000BCEF03F0BEEF03F0C2EF03F0000E486ED3
:10078000C4EF03F0010E486E010E656E65C04CF0BB
:10079000000E2C6E000E166E000E156E41EF06F068
:1007A000000E2C6E4BC065F0652A65C063F0646A6C
:1007B00063BE64060F0E6316000E641664BEEAEF95
:1007C00003F0645009E10A0E635CD8A0EAEF03F07D
:1007D000ECEF03F0EEEF03F0060E65266550800A9D
:1007E000260FD8A0F6EF03F0F8EF03F0FAEF03F0CE
:1007F000000E656E65C04BF0000E166E000E156E95
:1008000041EF06F0000E2C6E4AC065F0652A65C007
:1008100063F0646A63BE64060F0E6316000E64160E
:1008200064BE1CEF04F0645009E10A0E635CD8A0BA
:100830001CEF04F01EEF04F020EF04F0060E652616
:100840006550800A260FD8A028EF04F02AEF04F0A4
:100850002CEF04F0000E656E65C04AF0000E166EB7
:10086000000E156E41EF06F02C50636E646A645002
:10087000000AD8B43EEF04F041EF06F063500B0AD3
:10088000D8B470EF03F0070AD8B4D0EF03F0010A30
:10089000D8B402EF04F041EF06F0000E336E35508D
:1008A000D8A455EF04F057EF04F05FEF04F0C80E42
:1008B000456E4AEC13F0010E2F6E65EF04F0C90E81
:1008C000456E47EC13F0000E2F6E000E2C6E45C0E7
:1008D00041F041EF06F03550D8A471EF04F073EF0A
:1008E00004F075EF04F041EF06F0010E636E000EA8
:1008F000646E3350635E000E645A63506410D8A473
:1009000084EF04F087EF04F0010E88EF04F0000E8E
:10091000336E000E2C6E41EF06F02C50636E646A4D
:100920006450000AD8B497EF04F041EF06F063502A
:100930000E0AD8B44DEF04F0010AD8B46BEF04F0FE
:1009400041EF06F0000E336E3550D8A4AAEF04F044
:10095000ACEF04F05FEF04F057EF04F03404D8A4D8
:10096000B4EF04F0B6EF04F0BEEF04F0000E386E02
:10097000000E376E000E366ECCEF04F03450D8A463
:10098000C4EF04F0C6EF04F0CCEF04F0000E3E6EAE
:10099000000E3D6E000E3C6E000E2F6E000E2C6E93
:1009A00041EF06F0010E636E000E646E3450635E1C
:1009B000000E645A63506410D8A4E1EF04F0E4EF31
:1009C00004F0010EE5EF04F0000E346E89EF04F040
:1009D0003404D8A4EEEF04F0F0EF04F0F2EF04F0EA
:1009E00089EF04F0CA0E456E41EF06F03404D8A436
:1009F000FCEF04F0FEEF04F0F2EF04F089EF04F0F6
:100A00003404D8A406EF05F008EF05F0F2EF04F087
:100A100089EF04F02C50636E646A6450000AD8B405
:100A200014EF05F041EF06F063500B0AD8B4E8EF7D
:100A300004F0070AD8B4F6EF04F0010AD8B400EFC6
:100A400005F0030AD8B4A2EF04F0010AD8B4AEEF5F
:100A500004F01B0AD8B4D2EF04F041EF06F0010E07
:100A60002F6E3E2A89EF04F0010E2F6E3D2A3C0EB8
:100A70003D18D8A43EEF05F040EF05F089EF04F0F3
:100A8000000E3D6E89EF04F0010E2F6E3C2A3C0EE5
:100A90003C18D8A44EEF05F050EF05F089EF04F0B4
:100AA000000E3C6E89EF04F03404D8A45AEF05F030
:100AB0005CEF05F05EEF05F089EF04F0C80E456EBF
:100AC0004AEC13F0010E2F6E3EC03BF03DC03AF0F1
:100AD0003CC039F089EF04F03404D8A472EF05F07B
:100AE00074EF05F076EF05F089EF04F03450D8A4E8
:100AF0007CEF05F07EEF05F0CCEF04F0C6EF04F0DC
:100B00002C50636E646A6450000AD8B48AEF05F012
:100B100041EF06F063500B0AD8B42FEF05F0070A37
:100B2000D8B434EF05F0010AD8B444EF05F0030A55
:100B3000D8B454EF05F0010AD8B46CEF05F041EFDA
:100B400006F0010E2F6E3D2A3C0E3D18D8A4ABEFE7
:100B500005F0ADEF05F089EF04F040EF05F0010E70
:100B60002F6E3C2A3C0E3C18D8A4B9EF05F0BBEF21
:100B700005F089EF04F050EF05F03404D8A4C3EF7A
:100B800005F0C5EF05F05EEF05F089EF04F03404E1
:100B9000D8A4CDEF05F0CFEF05F0D1EF05F089EF48
:100BA00004F03450D8A4D7EF05F0D9EF05F0CCEF1E
:100BB00004F0C6EF04F0010E636E000E646E345054
:100BC000635E000E645A63506410D8A4EAEF05F027
:100BD000EDEF05F0010EEEEF05F0000E346EC90EDC
:100BE000456E47EC13F0000E2F6E89EF04F02C5089
:100BF000636E646A6450000AD8B401EF06F041EFF6
:100C000006F063500B0AD8B42FEF05F0070AD8B4EA
:100C1000A1EF05F0010AD8B4AFEF05F0030AD8B48C
:100C2000BDEF05F0010AD8B4C7EF05F01B0AD8B430
:100C3000DBEF05F041EF06F04550636E646A6450E7
:100C4000000AD8B426EF06F041EF06F06350640ABC
:100C5000D8B453EF03F0010AD8B434EF04F0AD0A6E
:100C6000D8B48DEF04F0010AD8B40AEF05F0030AF6
:100C7000D8B480EF05F0010AD8B4F7EF05F041EFE2
:100C800006F01200EEEF07F0AD0E115C0D0E1258DB
:100C9000D8A04DEF06F04FEF06F063EF06F02950B5
:100CA000D8A455EF06F057EF06F059EF06F0100EF6
:100CB0002C6E010E296E0D0E126EAC0E116E27EC0D
:100CC00003F07CEF06F0125009E1330E115CD8A05E
:100CD0006CEF06F06EEF06F07CEF06F02A50D8A419
:100CE00074EF06F076EF06F078EF06F00B0E2C6E40
:100CF000010E2A6E5FEF06F0085009E1060E075C50
:100D0000D8A085EF06F087EF06F00FEF08F0000E91
:100D1000086E000E076E000E2B6E000E2B6E000E7E
:100D2000296E000E2A6E0FEF08F0AD0E0F5C0D0E4F
:100D30001058D8A09EEF06F0A0EF06F0B4EF06F032
:100D40002950D8A4A6EF06F0A8EF06F0AAEF06F007
:100D5000110E2C6E010E296E0D0E106EAC0E0F6E64
:100D600027EC03F0CDEF06F0105009E1330E0F5CD5
:100D7000D8A0BDEF06F0BFEF06F0CDEF06F02A5089
:100D8000D8A4C5EF06F0C7EF06F0C9EF06F00C0EC9
:100D90002C6E010E2A6EB0EF06F0065009E1060E29
:100DA000055CD8A0D6EF06F0D8EF06F00FEF08F0FC
:100DB000000E066E000E056E000E2B6E000E2B6EE2
:100DC000000E296E000E2A6E0FEF08F0AD0E0D5CBE
:100DD0000D0E0E58D8A0EFEF06F0F1EF06F005EF7C
:100DE00007F02950D8A4F7EF06F0F9EF06F0FBEF73
:100DF00006F0120E2C6E010E296E0D0E0E6EAC0E4C
:100E00000D6E27EC03F01EEF07F00E5009E1330ED4
:100E10000D5CD8A00EEF07F010EF07F01EEF07F003
:100E20002A50D8A416EF07F018EF07F01AEF07F0D2
:100E30000D0E2C6E010E2A6E01EF07F0045009E131
:100E4000060E035CD8A027EF07F029EF07F00FEF9D
:100E500008F0000E046E000E036E000E2B6E000EE6
:100E60002B6E000E296E000E2A6E2950D8B43BEF6F
:100E700007F03DEF07F041EF07F0000E296E0FEF8E
:100E800008F02A50D8B447EF07F049EF07F00FEF0A
:100E900008F0000E2A6E0FEF08F0AD0E0B5C0D0E81
:100EA0000C58D8A056EF07F058EF07F06CEF07F09A
:100EB0002950D8A45EEF07F060EF07F062EF07F06B
:100EC000130E2C6E010E296E0D0E0C6EAC0E0B6EF9
:100ED00027EC03F085EF07F00C5009E1330E0B5CB3
:100EE000D8A075EF07F077EF07F085EF07F02A50ED
:100EF000D8A47DEF07F07FEF07F081EF07F00E0E2B
:100F00002C6E010E2A6E68EF07F0025009E1060E02
:100F1000015CD8A08EEF07F090EF07F00FEF08F01C
:100F2000000E026E000E016E000E2B6E000E2B6E78
:100F3000000E296E000E2A6E0FEF08F0AD0E095C50
:100F40000D0E0A58D8A0A7EF07F0A9EF07F0BDEFE4
:100F500007F02950D8A4AFEF07F0B1EF07F0B3EFD7
:100F600007F0140E2C6E010E296E0D0E0A6EAC0EDB
:100F7000096E27EC03F0D6EF07F00A5009E1330EB3
:100F8000095CD8A0C6EF07F0C8EF07F0D6EF07F06E
:100F90002A50D8A4CEEF07F0D0EF07F0D2EF07F039
:100FA0000F0E2C6E010E2A6EB9EF07F00001C5512D
:100FB00009E1060EC45DD8A0E0EF07F0E2EF07F00C
:100FC0000FEF08F0000EC56F000EC46F000E2B6E01
:100FD000000E296E000E2A6E0FEF08F02B50666E81
:100FE000676A6750000AD8B4F8EF07F00FEF08F00F
:100FF0006650010AD8B444EF06F0030AD8B495EF5E
:1010000006F0010AD8B4E6EF06F0070AD8B44DEFAF
:1010100007F0010AD8B49EEF07F00FEF08F01200B6
:101020008EEC11F042EC06F0650E4518D8A41BEFCB
:1010300008F01DEF08F032EF08F0910E155C010E7C
:101040001658D8A026EF08F028EF08F032EF08F085
:101050004A0E616E31EC0DF0000E166E000E156E2C
:10106000640E456E3150D8B438EF08F03AEF08F00E
:1010700042EF08F0000E146E500E136E050E2F6E28
:1010800046EF08F0000E146E960E136E46B04BEF4E
:1010900008F04DEF08F04FEF08F012EF08F046901F
:1010A000010E616EE0EC11F089EF08F0B4EC12F083
:1010B000AFEF08F0B4EC12F0010E0001866FAFEF55
:1010C00008F0B4EC12F0010E0001806F010E816F88
:1010D000AFEF08F0B4EC12F0010E0001826F010EC8
:1010E000836FAFEF08F0B4EC12F0010E0001846FD3
:1010F000010E856FAFEF08F0B4EC12F0010E0001A5
:10110000806F010E816F010E826F010E836F75EF8C
:1011100008F02F500101236F246B2451000AD8B42A
:1011200094EF08F0AFEF08F02351000AD8B456EF5F
:1011300008F0010AD8B45AEF08F0030AD8B461EFF6
:1011400008F0010AD8B46AEF08F0070AD8B473EFC0
:1011500008F0010AD8B47CEF08F0AFEF08F001EC1A
:1011600010F0C7EF08F0000E86EC0CF062C01EF124
:1011700063C01FF1010E0101206F060E216F28ECE4
:1011800012F0DDEF08F0BBEC11F0DDEF08F0455098
:101190000101236F246B2451000AD8B4D2EF08F068
:1011A000DDEF08F02351640AD8B4B3EF08F0010A68
:1011B000D8B4C3EF08F0DDEF08F03350D8B4E3EF54
:1011C00008F0E5EF08F0F6EF08F012EF08F0D2ECC7
:1011D0000BF0FEC01EF1FFC01FF1010E0101206FD8
:1011E000060E216F28EC12F012EF08F045500101B5
:1011F000236F246B2451000AD8B401EF09F012EFD9
:1012000008F02351C80AD8B4E7EF08F0010AD8B4AF
:10121000E7EF08F0030AD8B4E7EF08F0010AD8B402
:10122000E7EF08F012EF08F02CEF00F0626E76EFB7
:1012300009F03F0E1BEF0AF0060E1BEF0AF05B0EE3
:101240001BEF0AF04F0E1BEF0AF0660E1BEF0AF0C1
:101250006D0E1BEF0AF07D0E1BEF0AF0070E1BEF61
:101260000AF07F0E1BEF0AF06F0E1BEF0AF0770EED
:101270001BEF0AF05F0E1BEF0AF07C0E1BEF0AF06B
:10128000390E1BEF0AF0580E1BEF0AF05E0E1BEF33
:101290000AF0790E1BEF0AF07B0E1BEF0AF0710EBD
:1012A0001BEF0AF0760E1BEF0AF0740E1BEF0AF02C
:1012B0000E0E1BEF0AF0380E1BEF0AF0540E1BEF58
:1012C0000AF05C0E1BEF0AF0730E1BEF0AF0670EBC
:1012D0001BEF0AF0500E1BEF0AF0780E1BEF0AF01E
:1012E0003E0E1BEF0AF06E0E1BEF0AF06250606EAE
:1012F000616A6150000AD8B480EF09F01BEF0AF070
:101300006050000AD8B419EF09F0010AD8B41CEFF4
:1013100009F0030AD8B41FEF09F0010AD8B422EF8C
:1013200009F0070AD8B425EF09F0010AD8B428EF6C
:1013300009F0030AD8B42BEF09F0010AD8B42EEF54
:1013400009F00F0AD8B431EF09F0010AD8B434EF2C
:1013500009F0480AD8B437EF09F0030AD8B431EFDE
:1013600009F0010AD8B440EF09F0070AD8B419EF20
:1013700009F0010AD8B449EF09F0030AD8B44FEFD5
:1013800009F0010AD8B42BEF09F00F0AD8B452EFD4
:1013900009F0010AD8B41CEF09F0030AD8B458EFD9
:1013A00009F0060AD8B45BEF09F0030AD8B419EFC4
:1013B00009F01F0AD8B464EF09F0030AD8B428EF83
:1013C00009F0060AD8B470EF09F0340AD8B43AEF3D
:1013D00009F0030AD8B43DEF09F0010AD8B443EF8D
:1013E00009F0070AD8B446EF09F0010AD8B44CEF67
:1013F00009F0020AD8B434EF09F00F0AD8B455EF57
:1014000009F0060AD8B45EEF09F0010AD8B461EF1A
:1014100009F01E0AD8B467EF09F0030AD8B46AEFDE
:1014200009F0060AD8B46DEF09F00D0AD8B473EFCD
:1014300009F01BEF0AF012008A808C8E8A8A8A8259
:101440008B8A8B808B828B842E2A2E507F0FD96EB5
:10145000DA6ADF50D8B42FEF0AF031EF0AF0B7EFB5
:101460000AF0D8901430586E1330576E2D50596EC4
:101470005A6A5750595C58505A58D8B042EF0AF03F
:1014800044EF0AF0B7EF0AF02F50D8B44AEF0AF051
:101490004CEF0AF0B7EF0AF016EF0BF0000188519D
:1014A000516E526A51BE52069DEC10F08B94E4EFDF
:1014B0000AF000018951516E526A51BE52069DECEC
:1014C00010F08B92E4EF0AF000018A51516E526ADB
:1014D00051BE52069DEC10F08B90E4EF0AF0000133
:1014E0008B51516E526A51BE52069DEC10F08B9A90
:1014F000E4EF0AF000018C51516E526A51BE52065F
:101500009DEC10F08A92E4EF0AF000018D51516ECB
:10151000526A51BE52069DEC10F08A9AE4EF0AF02E
:1015200000018651D8B497EF0AF099EF0AF0A0EFC6
:101530000AF0000E526E51689DEC10F0A6EF0AF012
:10154000000E526E000E516E9DEC10F08C9EE4EF7A
:101550000AF000018F51516E526A51BE52069DEC45
:1015600010F08A90000E2E6E2D2AE4EF0AF02E5015
:10157000576E586A5850000AD8B4C1EF0AF0E4EF29
:101580000AF05750010AD8B44EEF0AF0030AD8B453
:1015900059EF0AF0010AD8B464EF0AF0070AD8B488
:1015A0006FEF0AF0010AD8B47AEF0AF0030AD8B450
:1015B00085EF0AF0010AD8B490EF0AF00F0AD8B408
:1015C000A9EF0AF0E4EF0AF02D50576E586A135055
:1015D000571807E114505818D8A4F1EF0AF0F3EFA8
:1015E0000AF016EF0BF0000E2D6E3150D8B4FBEF61
:1015F0000AF0FDEF0AF0FEEF0AF0302A050E306423
:1016000004EF0BF006EF0BF016EF0BF03150D8B4EF
:101610000CEF0BF00EEF0BF016EF0BF0000E316E2F
:10162000000E2F6E050E306ECB0E456E120080BE82
:101630001CEF0BF01EEF0BF026EF0BF0000E086E08
:10164000000E076E114A122A010E2B6E80AE2BEF90
:101650000BF02DEF0BF03BEF0BF02B04D8A433EF86
:101660000BF035EF0BF03BEF0BF0000E126E000E9F
:10167000116E074A082A80B840EF0BF042EF0BF0DA
:101680004AEF0BF0000E066E000E056E0F4A102A90
:10169000020E2B6E80A84FEF0BF051EF0BF060EFB6
:1016A0000BF0020E2B18D8A458EF0BF05AEF0BF0EA
:1016B00060EF0BF0000E106E000E0F6E054A062A4A
:1016C00080BC65EF0BF067EF0BF06FEF0BF0000ED7
:1016D000046E000E036E0D4A0E2A030E2B6E80ACB4
:1016E00074EF0BF076EF0BF085EF0BF0030E2B1879
:1016F000D8A47DEF0BF07FEF0BF085EF0BF0000E21
:101700000E6E000E0D6E034A042A81B88AEF0BF0AC
:101710008CEF0BF094EF0BF0000E026E000E016EDA
:101720000B4A0C2A040E2B6E81A899EF0BF09BEF4D
:101730000BF0AAEF0BF0040E2B18D8A4A2EF0BF0BD
:10174000A4EF0BF0AAEF0BF0000E0C6E000E0B6E68
:10175000014A022A83BCAFEF0BF0B1EF0BF0BAEFF6
:101760000BF0000E0001C56F000EC46F094A0A2A73
:10177000050E2B6E83ACBFEF0BF0C1EF0BF0D1EF7A
:101780000BF0050E2B18D8A4C8EF0BF0CAEF0BF026
:10179000D1EF0BF0000E0A6E000E096E0001C44B73
:1017A000C52B12003404D8A4D8EF0BF0DAEF0BF0FD
:1017B00024EF0CF038C060F0616A000E636E0A0E10
:1017C000626E55EC0FF060500101176F38C060F089
:1017D000616A000E636E0A0E626E93EC0EF060504A
:1017E0000101166F37C060F0616A000E636E0A0E69
:1017F000626E55EC0FF060500101196F37C060F058
:10180000616A000E636E0A0E626E93EC0EF0605019
:101810000101186F36C060F0616A000E636E0A0E37
:10182000626E55EC0FF0605001011B6F36C060F026
:10183000616A000E636E0A0E626E93EC0EF06050E9
:1018400001011A6F80EF0CF03450D8A42AEF0CF08D
:101850002CEF0CF080EF0CF03E50606E616A60BEC1
:101860006106000E636E0A0E626E55EC0FF060505A
:101870000101176F3E50606E616A60BE6106000E26
:10188000636E0A0E626E93EC0EF060500101166FEB
:101890003D50606E616A60BE6106000E636E0A0EA6
:1018A000626E55EC0FF060500101196F3D50606E93
:1018B000616A60BE6106000E636E0A0E626E93EC92
:1018C0000EF060500101186F3C50606E616A60BE9E
:1018D0006106000E636E0A0E626E55EC0FF06050EA
:1018E00001011B6F3C50606E616A60BE6106000EB4
:1018F000636E0A0E626E93EC0EF0605001011A6F77
:10190000160E0001FE6F010EFF6F12000101166F2F
:10191000FFEC12F0D00EC5EC12F0000EC5EC12F088
:1019200008EC13F0D10EC5EC12F0000E0101176F98
:1019300017514A0FD96EDA6A000E47EC12F0DF6ECB
:101940000101172B050E1765A8EF0CF0AAEF0CF09C
:1019500098EF0CF0010E47EC12F0506E4CBCB3EF58
:101960000CF0B6EF0CF0010EB7EF0CF0000E496E64
:101970004950D8A4BEEF0CF0C0EF0CF0C5EF0CF04E
:101980004C503F0B4C6E10EF0DF04CBACAEF0CF000
:10199000CDEF0CF0010ECEEF0CF0000E486E4C5067
:1019A0001F0B4C6E10EF0DF04C380F0B186F4C5096
:1019B0000F0B196F4B380F0B1A6F4B500F0B1B6F20
:1019C0004A380F0B1C6F4A500F0B1D6F2AEF0DF09A
:1019D0004C380F0B186F4C500F0B196F4B380F0B07
:1019E0001A6F4B500F0B1B6F4D380F0B1C6F4D5068
:1019F0000F0B1D6F2AEF0DF050380F0B186F505062
:101A00000F0B196F4F380F0B1A6F4F500F0B1B6FC7
:101A10004E380F0B1C6F4E500F0B1D6F2AEF0DF041
:101A200001011651646E656A6550000AD8B41BEF57
:101A30000DF02AEF0DF06450000AD8B4D4EF0CF08A
:101A4000010AD8B4E8EF0CF0030AD8B4FCEF0CF0AC
:101A50002AEF0DF011EC13F0180E626E010E636E9A
:101A600012006150D96EDA6A020ED926DF50626E1A
:101A70004904D8A43EEF0DF040EF0DF05BEF0DF000
:101A8000120E626446EF0DF048EF0DF04BEF0DF0D3
:101A90006250EE0F626E62504009626E4804D8A434
:101AA00054EF0DF056EF0DF06EEF0DF0625020097F
:101AB000626E6EEF0DF04804D8A461EF0DF063EF95
:101AC0000DF06EEF0DF0120E626069EF0DF06BEF2E
:101AD0000DF06EEF0DF06250120F626E6150D96E14
:101AE000DA6A020ED92662C0DFFFFFEC12F0D00ED8
:101AF000C5EC12F0000EC5EC12F06150D96EDA6A36
:101B0000DF50C5EC12F06150D96EDA6A010ED926A9
:101B1000DF50C5EC12F06150D96EDA6A020ED92698
:101B2000DF50C5EC12F06150D96EDA6A030ED92687
:101B3000DF50C5EC12F06150D96EDA6A040ED92676
:101B4000DF50C5EC12F06150D96EDA6A050ED92665
:101B5000DF50C5EC12F06150D96EDA6A060ED92654
:101B6000DF50C5EC12F0900EC5EC12F011EC13F042
:101B700012003550D8A4BFEF0DF0C1EF0DF0C3EF48
:101B80000DF025EF0EF03404D8A4C9EF0DF0CBEF23
:101B90000DF0E6EF0DF0362A3C0E3618D8A4D3EF40
:101BA0000DF0D5EF0DF025EF0EF0000E366E372A52
:101BB0003C0E3718D8A4DFEF0DF0E1EF0DF025EF64
:101BC0000EF0000E376E382A25EF0EF03450D8A4F0
:101BD000ECEF0DF0EEEF0DF025EF0EF03E50D8A437
:101BE000F4EF0DF0F6EF0DF00EEF0EF03D50D8A42F
:101BF000FCEF0DF0FEEF0DF00EEF0EF03C50D8A410
:101C000004EF0EF006EF0EF00EEF0EF0000E356E44
:101C1000010E316E000E306E25EF0EF0000E316EAB
:101C20003C063CBE18EF0EF016EF0EF025EF0EF05E
:101C30003B0E3C6E3D063DBE22EF0EF020EF0EF057
:101C400025EF0EF03B0E3D6E3E0612003550D8A437
:101C50002CEF0EF02EEF0EF030EF0EF092EF0EF0B4
:101C60003404D8A436EF0EF038EF0EF053EF0EF038
:101C7000362A3C0E3618D8A440EF0EF042EF0EF094
:101C800092EF0EF0000E366E372A3C0E3718D8A4AD
:101C90004CEF0EF04EEF0EF092EF0EF0000E376E9E
:101CA000382A92EF0EF03450D8A459EF0EF05BEFC3
:101CB0000EF092EF0EF03E50D8A461EF0EF063EFFD
:101CC0000EF07BEF0EF03D50D8A469EF0EF06BEFF5
:101CD0000EF07BEF0EF03C50D8A471EF0EF073EFD6
:101CE0000EF07BEF0EF0000E356E010E316E000E21
:101CF000306E92EF0EF0000E316E3C063CBE85EF6A
:101D00000EF083EF0EF092EF0EF03B0E3C6E3D06B0
:101D10003DBE8FEF0EF08DEF0EF092EF0EF03B0E0A
:101D20003D6E3E061200000E656E63BE9CEF0EF027
:101D30009AEF0EF0A2EF0EF0626C631ED8B0632A29
:101D4000010E656E61BEA9EF0EF0A7EF0EF0AFEFCA
:101D50000EF0606C611ED8B0612A010E651A000E8B
:101D6000676E000E666E62506310D8B4BAEF0EF064
:101D7000BCEF0EF0E4EF0EF0010E646EC4EF0EF057
:101D8000D89062366336642A63AEC9EF0EF0CBEFAB
:101D90000EF0C0EF0EF0D890663667366250605C89
:101DA00063506158D8A0D7EF0EF0D9EF0EF0DEEFF8
:101DB0000EF06250605E6350615A6680D890633264
:101DC0006232642ECBEF0EF06550D8B4EAEF0EF01D
:101DD000ECEF0EF0F0EF0EF0666C671ED8B0672ADD
:101DE00066C060F067C061F01200626E000EAC6EFB
:101DF000000EAB6E62A0FFEF0EF001EF0FF002EFEE
:101E00000FF0AC8862A207EF0FF009EF0FF00BEFB5
:101E10000FF0AC8CAB8C62A410EF0FF012EF0FF050
:101E200013EF0FF0AC8E62A618EF0FF01AEF0FF061
:101E30001DEF0FF0AB881EEF0FF0AB8A62A823EF07
:101E40000FF025EF0FF028EF0FF0AC8429EF0FF023
:101E5000AC9462AC2EEF0FF030EF0FF033EF0FF0D9
:101E60009D8A34EF0FF09D9A62AE39EF0FF03BEF91
:101E70000FF03EEF0FF09D883FEF0FF09D9860C090
:101E8000AFFFAC8AAB8E949C948EACA84AEF0FF057
:101E90004CEF0FF054EF0FF0ACBE51EF0FF053EFDB
:101EA0000FF054EF0FF0948C1200000E656E61BEBF
:101EB0005EEF0FF05CEF0FF064EF0FF0606C611EEF
:101EC000D8B0612A010E656E63BE6BEF0FF069EF4B
:101ED0000FF06FEF0FF0626C631ED8B0632A625090
:101EE0006310D8B476EF0FF078EF0FF09CEF0FF09F
:101EF000010E646E80EF0FF0D89062366336642A6C
:101F000063AE85EF0FF087EF0FF07CEF0FF06250BC
:101F1000605C63506158D8A090EF0FF092EF0FF023
:101F200096EF0FF06250605E6350615AD890633252
:101F30006232642E87EF0FF06550D8B4A2EF0FF035
:101F4000A4EF0FF0A8EF0FF0606C611ED8B0612A0B
:101F500060C060F061C061F012000600D9CF5BF094
:101F6000DACF5CF0F2AAB7EF0FF0B9EF0FF0EAEFBB
:101F70000FF0F2A4BEEF0FF0C0EF0FF0EAEF0FF09A
:101F8000F294FF0E526E050E516E2CEC13F01CEC09
:101F90000AF017EC0BF00001C24BC32B640EC21900
:101FA000C311D8A4D6EF0FF0D8EF0FF0DDEF0FF08C
:101FB0004680000EC36F000EC26F650E4518D8A490
:101FC000E4EF0FF0E6EF0FF0FBEF0FF0154A162AE3
:101FD000FBEF0FF0F0A8EFEF0FF0F1EF0FF0FBEFDA
:101FE0000FF0F0A2F6EF0FF0F8EF0FF0FBEF0FF0AD
:101FF000F09226EC0EF05CC0DAFF5BC0D9FF709265
:102000001100000E00018F6F640E4518D8B40BEF5D
:1020100010F00DEF10F016EF10F0650E4518D8A473
:1020200014EF10F016EF10F024EF10F04950D8A480
:102030001CEF10F01EEF10F021EF10F08F8152EF27
:1020400010F08F8352EF10F0C80E4518D8B42BEF64
:1020500010F02DEF10F048EF10F0CA0E4518D8B46C
:1020600034EF10F036EF10F048EF10F0C90E4518BD
:10207000D8B43DEF10F03FEF10F048EF10F0CB0E6A
:102080004518D8A446EF10F048EF10F052EF10F0CA
:102090003404D8A44EEF10F050EF10F021EF10F000
:1020A0001EEF10F01200D40EF66E250EF76E000E25
:1020B000F86E01EE00F010EE16F00900F5CFEEFF1D
:1020C000E550E150FAE1A40EF66E250EF76E000E13
:1020D000F86E00EEE6F010EE18F00900F5CFEEFF16
:1020E000E550E150FAE1860EF66E260EF76E000E10
:1020F000F86E00EE68F010EE08F00900F5CFEEFF84
:10210000E550E150FAE101012A6B296B286B276B3E
:10211000266B256B00EE80F0660EEE6AE806FDE1A8
:1021200000EE01F0500EEE6AE806FDE1709070924C
:10213000000EF86E000110EF08F051C054F052C0CC
:1021400055F08090809A8086000E566E54BEABEF9C
:1021500010F0AFEF10F0536A532AB0EF10F0536A4B
:1021600080505318FE0B5318806E00D000D000D062
:1021700000D0808200D000D000D000D0809200D06B
:1021800000D000D000D0D8905434546E5534556EE1
:10219000562A070E5664CFEF10F0D1EF10F0A6EFDD
:1021A00010F0808A00D000D000D000D0809A00D0FB
:1021B00000D000D000D08096050EE82EFED700009B
:1021C0001200928092829284928A80A0EAEF10F0AC
:1021D000ECEF10F005EF11F080A2F1EF10F0F3EF4B
:1021E00010F005EF11F080A4F8EF10F0FAEF10F006
:1021F00005EF11F080AAFFEF10F001EF11F005EFED
:1022000011F0C90E456E23EF11F080B00AEF11F006
:102210000CEF11F023EF11F080B211EF11F013EF7A
:1022200011F023EF11F080B418EF11F01AEF11F054
:1022300023EF11F080BA1FEF11F021EF11F023EF1F
:1022400011F0640E456E1200928E9288928C9388E3
:10225000958C000E2C6E000E2B6E000E126E000E72
:10226000116E000E106E000E0F6E000E0E6E000E40
:102270000D6E000E0C6E000E0B6E000E0A6E000E40
:10228000096E000E086E000E076E000E066E000E40
:10229000056E000E046E000E036E000E026E000E40
:1022A000016E000E0001C56F000EC46F000E2A6E95
:1022B000000E296E1200949494929490949A9392A2
:1022C000939A959E93908A808C8E8A8A8A828B8A32
:1022D0008B808B828B8423EC13F0000E606E605039
:1022E000800FD96EDA6ADF6A6050880FD96EDA6AB9
:1022F000FF0EDF6E602A070E606481EF11F083EF3E
:1023000011F06FEF11F0000E2E6E000E2D6E000E0C
:102310002F6E000E146E960E136E120035EC13F035
:10232000000EC26E0F0EC16E4FEC13F0E1EC10F018
:10233000920E7AEC12F0FF0E616E050E606E1AECD2
:1023400013F04DEC13F004EC12F05BEC11F024EC04
:1023500011F03CEC13F063EC12F0000E616E670EAE
:10236000606E3C0EF5EC0EF0010E2F6E000E166E38
:10237000000E156E12004C380F0B16EC09F0000120
:10238000886F4C500F0B16EC09F00001896F4B3829
:102390000F0B16EC09F000018A6F4B500F0B16EC77
:1023A00009F000018B6F4A380F0B16EC09F00001A1
:1023B0008C6F4A500F0B16EC09F000018D6F120064
:1023C000DEEC12F00009D8A4E8EF11F0EAEF11F00A
:1023D000E0EF11F061C0F6FF060EF76E0800F55051
:1023E0008FEC12F0612A6104626E62C0F6FF060E85
:1023F000F76E0800F5500009D8A401EF12F003EFC2
:1024000012F0E0EF11F01200000E3E6E000E3D6E75
:10241000000E3C6E000E3B6E000E3A6E000E396EE2
:10242000000E386E000E376E000E366E000E356EE2
:10243000000E336E010E346E000E326E000E316EE1
:10244000000E306E9384F09EF092F088F1881200B6
:1024500001012005226F3DEF12F02251880FD96E45
:10246000DA6A22511E25E16E000E1F21E26EE7504E
:1024700016EC09F0DF6E0101222B2151225DD8A05C
:1024800044EF12F046EF12F02DEF12F01200606EE2
:10249000C586C7A04EEF12F050EF12F049EF12F0D0
:1024A000C9CF61F0A3EC12F060B002D0C59A01D0A0
:1024B000C58AC588C5B85FEF12F061EF12F05AEF18
:1024C00012F061501200640E4518D8A46AEF12F0A1
:1024D0006CEF12F06EEF12F079EF12F0C80E4518A3
:1024E000D8A475EF12F077EF12F079EF12F0000E2A
:1024F000336E1200606E60507F0BD56E000ED76E8B
:10250000000ED66EF29460AE88EF12F08AEF12F0F1
:102510008DEF12F0F28A8EEF12F0F29A1200606ED6
:10252000ACAC95EF12F097EF12F0A0EF12F0AC9078
:1025300028A29DEF12F09FEF12F0A0EF12F0AC80F6
:1025400060C0ADFF1200C7B4A8EF12F0AAEF12F0FE
:10255000A3EF12F0C5ACAFEF12F0B1EF12F0B3EF92
:1025600012F011EC13F01200000E606E6050800F3C
:10257000D96EDA6ADF6A602A060E6064C2EF12F072
:10258000C4EF12F0B6EF12F01200606E60C0C9FF27
:10259000C7B0CDEF12F0CFEF12F0C8EF12F0A3ECFE
:1025A00012F012000A0A0F01FFFFFF000A0A0FDFF4
:1025B0000A0A0F01FFFFFF000A0A0FDFACB2E3EFC8
:1025C00012F0E5EF12F0E8EF12F0010EE9EF12F071
:1025D000000E120010120905031123000000F46B15
:1025E0008CCE674BF46B8CCE674BC78EC79CC68A6C
:1025F000C650F00B0809C66E630EC86E1200C58087
:10260000C5B005EF13F007EF13F000EF13F0120061
:10261000C582C5B20EEF13F010EF13F009EF13F0FF
:102620001200C584C5B417EF13F019EF13F012EFC1
:1026300013F0120060C062F061C063F063C0D7FFA6
:1026400062C0D6FF120092909292929A92968086E1
:10265000809A80928090120051C053F052C054F082
:1026600054C0D7FF53C0D6FF1200D380D382D38883
:10267000D38AD38C9B8C1200010E496E010E486EDA
:10268000F5EC12F012000303030303030303000E2F
:10269000356E1200010E356E1200D58E1200F28ECC
:0226A000120026
:020000040030CA
:0E000000FF081F1EFF0180FF0FC00FE00F4022
:00000001FF
