:040000002CEF00F0F1
:060008007082D8ED0DF03E
:100018007080D8CF55F0E8CF56F0E0CF57F0F0A871
:1000280018EF00F01AEF00F024EF00F0F0A21FEF35
:1000380000F021EF00F024EF00F0F092D3EC0EF086
:1000480057C0E0FF56C0E8FF55C0D8FF70901000B9
:0400580095EF11F01F
:1006000000546869732069732045746865726E656B
:10061000742070726F746F636F6C207465737420D4
:100620006669726D77617265210D0A005735353044
:100630003020496E697420436F6D706C657465215C
:100640000A0057353530302D3E25640A0048656C68
:100650006C6F00002A50D8B430EF03F032EF03F093
:100660003DEF06F0000E286E000E2A6ECB0E6F6E68
:10067000000E256E3DEF06F04150D8A442EF03F086
:1006800044EF03F05AEF03F04050D8A44AEF03F0D0
:100690004CEF03F056EF03F04450D8A452EF03F0B0
:1006A00054EF03F056EF03F0120E446E010E416E4C
:1006B0006FEF03F04050D8A460EF03F062EF03F057
:1006C0006DEF03F0120E4418D8A469EF03F06BEF3E
:1006D00003F06DEF03F0000E446E000E416E000E4D
:1006E000256E420E596E000E5A6E47EC0DF062EF09
:1006F00006F0650E6F6E62EF06F025505C6E5D6A67
:100700005D50000AD8B487EF03F062EF06F05C504A
:100710000B0AD8B479EF03F0070AD8B479EF03F0E5
:10072000010AD8B479EF03F0030AD8B43CEF03F020
:1007300062EF06F044C05EF05E2A5EC05CF05D6A67
:100740005CBE5D060F0E5C16000E5D165DBEB2EF60
:1007500003F05D5009E10A0E5C5CD8A0B2EF03F033
:10076000B4EF03F0B6EF03F0060E5E264150D8A4B6
:10077000BCEF03F0BEEF03F0DAEF03F05E50800A47
:100780006E0FD8A0C6EF03F0C8EF03F0CAEF03F076
:10079000010E406E5E50800A5C0FD8A0D2EF03F0CD
:1007A000D4EF03F006EF04F0000E5E6E000E406E14
:1007B00006EF04F04104D8A4E0EF03F0E2EF03F009
:1007C00006EF04F05E50800A6D0FD8A0EAEF03F048
:1007D000ECEF03F0EEEF03F0010E5E6E5E50800A68
:1007E0006E0FD8A0F6EF03F0F8EF03F006EF04F079
:1007F0004004D8A4FEEF03F000EF04F004EF04F08F
:10080000000E406E06EF04F0010E406E5EC044F034
:10081000000E256E000E0001C96F000EC86F62EF5A
:1008200006F0000E256E43C05EF05E2A5EC05CF0EE
:100830005D6A5CBE5D060F0E5C16000E5D165DBE49
:100840002BEF04F05D5009E10A0E5C5CD8A02BEFA1
:1008500004F02DEF04F02FEF04F0060E5E265E503C
:10086000800A260FD8A037EF04F039EF04F03BEFF1
:1008700004F0000E5E6E5EC043F0000E0001C96F12
:10088000000EC86F62EF06F0000E256E42C05EF0EB
:100890005E2A5EC05CF05D6A5CBE5D060F0E5C1693
:1008A000000E5D165DBE5EEF04F05D5009E10A0EBC
:1008B0005C5CD8A05EEF04F060EF04F062EF04F03F
:1008C000060E5E265E50800A260FD8A06AEF04F05E
:1008D0006CEF04F06EEF04F0000E5E6E5EC042F04E
:1008E000000E0001C96F000EC86F62EF06F02550C0
:1008F0005C6E5D6A5D50000AD8B481EF04F062EF6F
:1009000006F05C500B0AD8B49AEF03F0070AD8B48B
:1009100011EF04F0010AD8B444EF04F062EF06F0DE
:10092000000E256E2C50D8B498EF04F09AEF04F026
:100930009CEF04F062EF06F02E50D8A4A2EF04F072
:10094000A4EF04F0ACEF04F0C80E6F6E02EC15F0EB
:10095000010E286EB2EF04F0C90E6F6EFFEC14F0BA
:10096000000E286E6FC03AF062EF06F02E50D8A449
:10097000BCEF04F0BEEF04F0C0EF04F062EF06F04D
:10098000010E5C6E000E5D6E2C505C5E000E5D5ABA
:100990005C505D10D8A4CFEF04F0D2EF04F0010E4C
:1009A000D3EF04F0000E2C6E000E256E62EF06F001
:1009B000A6EC13F0000E2C6ED4EF04F025505C6E04
:1009C0005D6A5D50000AD8B4E8EF04F062EF06F00B
:1009D0005C500E0AD8B490EF04F0010AD8B4B6EF18
:1009E00004F01B0AD8B4D8EF04F062EF06F0000E52
:1009F0002C6E000E286E53EF05F02E50D8A403EF96
:100A000005F005EF05F00DEF05F0C80E6F6E02EC76
:100A100015F0010E286E13EF05F0C90E6F6EFFEC96
:100A200014F0000E286E000E256EB2EF04F02D04B7
:100A3000D8A41DEF05F01FEF05F027EF05F0000E1D
:100A4000316E000E306E000E2F6ED4EF04F02D507C
:100A5000D8A42DEF05F02FEF05F0D4EF04F034C04B
:100A600037F033C036F032C035F0D4EF04F0A6ECE6
:100A700013F0D4EF04F02D04D8A441EF05F043EFB8
:100A800005F045EF05F0D4EF04F0CA0E6F6E62EF8B
:100A900006F02D04D8A44FEF05F051EF05F045EF17
:100AA00005F0D4EF04F025505C6E5D6A5D50000ADD
:100AB000D8B45DEF05F062EF06F05C500C0AD8B4D4
:100AC0003BEF05F0010AD8B449EF05F0030AD8B4AA
:100AD000FDEF04F0010AD8B417EF05F01B0AD8B4F3
:100AE00037EF05F062EF06F0000E2D6E000E286E57
:100AF0009AEF05F0C80E6F6E02EC15F0010E286E2D
:100B0000D4EF04F0000E376E000E366E000E356E18
:100B1000000E256E62EF06F0010E2D6EC90E6F6E8F
:100B2000FFEC14F037C031F036C030F035C02FF094
:100B3000D4EF04F025505C6E5D6A5D50000AD8B4B5
:100B4000A4EF05F062EF06F05C500C0AD8B445EF54
:100B500005F0010AD8B445EF05F0030AD8B47AEFDE
:100B600005F0010AD8B482EF05F01B0AD8B48CEF67
:100B700005F062EF06F00001BC4BBD2B590EBC5DC9
:100B8000020EBD59D8A0C7EF05F0C9EF05F062EF1E
:100B900006F0C3EC13F0000E0001BD6F000EBC6F39
:100BA00062EF06F00001BC4BBD2B590EBC5D020E7E
:100BB000BD59D8A0DEEF05F0E0EF05F062EF06F0DA
:100BC00017EC10F0CBEF05F0010E286EC3EC13F01C
:100BD000D4EF04F0010E286E17EC10F0D4EF04F0FF
:100BE0002D04D8A4F6EF05F0F8EF05F07AEF05F044
:100BF000D4EF04F02D04D8A400EF06F002EF06F0C5
:100C000004EF06F0D4EF04F02D50D8A40AEF06F05C
:100C10000CEF06F012EF06F0000E376E000E366E87
:100C2000000E356E000E286E000E256E62EF06F087
:100C300025505C6E5D6A5D50000AD8B422EF06F064
:100C400062EF06F05C500C0AD8B4E4EF05F0010A3C
:100C5000D8B4EAEF05F0030AD8B4F0EF05F0010AC2
:100C6000D8B4FAEF05F01E0AD8B4BBEF05F0030ABA
:100C7000D8B4D2EF05F062EF06F06F505C6E5D6A9B
:100C80005D50000AD8B447EF06F062EF06F05C5002
:100C9000640AD8B47DEF03F0010AD8B477EF04F00A
:100CA000AD0AD8B4DEEF04F0010AD8B4F7EF04F0CF
:100CB000030AD8B418EF06F0010AD8B474EF05F0AF
:100CC00062EF06F0120017EF08F0D10E095C070E74
:100CD0000A58D8A06EEF06F070EF06F084EF06F029
:100CE0002250D8A476EF06F078EF06F07AEF06F0FF
:100CF000100E256E010E226E070E0A6ED00E096EC2
:100D00002AEC03F09DEF06F00A5009E1330E095C6E
:100D1000D8A08DEF06F08FEF06F09DEF06F0235080
:100D2000D8A495EF06F097EF06F099EF06F00B0EBA
:100D3000256E010E236E80EF06F00001C75109E118
:100D4000060EC65DD8A0A7EF06F0A9EF06F038EFB3
:100D500008F0000EC76F000EC66F000E246E000E66
:100D6000246E000E226E000E236E38EF08F0D10EB6
:100D7000075C070E0858D8A0C0EF06F0C2EF06F0D7
:100D8000D6EF06F02250D8A4C8EF06F0CAEF06F05E
:100D9000CCEF06F0110E256E010E226E070E086EC6
:100DA000D00E076E2AEC03F0EFEF06F0085009E1D1
:100DB000330E075CD8A0DFEF06F0E1EF06F0EFEFAF
:100DC00006F02350D8A4E7EF06F0E9EF06F0EBEFCA
:100DD00006F00C0E256E010E236ED2EF06F0000118
:100DE000C55109E1060EC45DD8A0F9EF06F0FBEF8E
:100DF00006F038EF08F0000EC56F000EC46F000E4D
:100E0000246E000E246E000E226E000E236E000E65
:100E1000256E38EF08F0D10E055C070E0658D8A0F5
:100E200014EF07F016EF07F02AEF07F02250D8A4CE
:100E30001CEF07F01EEF07F020EF07F0120E256EF3
:100E4000010E226E070E066ED00E056E2AEC03F020
:100E500043EF07F0065009E1330E055CD8A033EFED
:100E600007F035EF07F043EF07F02350D8A43BEF2E
:100E700007F03DEF07F03FEF07F00D0E256E010E76
:100E8000236E26EF07F00001C35109E1060EC25D93
:100E9000D8A04DEF07F04FEF07F038EF08F0000E45
:100EA000C36F000EC26F000E246E000E246E000E83
:100EB000226E000E236E000E256E2250D8B463EF12
:100EC00007F065EF07F069EF07F0000E226E38EFCC
:100ED00008F02350D8B46FEF07F071EF07F038EF48
:100EE00008F0000E236E38EF08F0D10E035C070EF9
:100EF0000458D8A07EEF07F080EF07F094EF07F0DA
:100F00002250D8A486EF07F088EF07F08AEF07F0A9
:100F1000130E256E010E226E070E046ED00E036EA8
:100F20002AEC03F0ADEF07F0045009E1330E035C47
:100F3000D8A09DEF07F09FEF07F0ADEF07F023502B
:100F4000D8A4A5EF07F0A7EF07F0A9EF07F00E0E62
:100F5000256E010E236E90EF07F00001C15109E1EB
:100F6000060EC05DD8A0B7EF07F0B9EF07F038EF75
:100F700008F0000EC16F000EC06F000E246E000E50
:100F8000246E000E226E000E236E38EF08F0D10E94
:100F9000015C070E0258D8A0D0EF07F0D2EF07F09F
:100FA000E6EF07F02250D8A4D8EF07F0DAEF07F009
:100FB000DCEF07F0140E256E010E226E070E026E96
:100FC000D00E016E2AEC03F0FFEF07F0025009E1AA
:100FD000330E015CD8A0EFEF07F0F1EF07F0FFEF61
:100FE00007F02350D8A4F7EF07F0F9EF07F0FBEF75
:100FF00007F00F0E256E010E236EE2EF07F00001E1
:10100000BF5109E1060EBE5DD8A009EF08F00BEF55
:1010100008F038EF08F0000EBF6F000EBE6F000E34
:10102000246E000E226E000E236E38EF08F024505E
:101030005F6E606A6050000AD8B421EF08F038EFA4
:1010400008F05F50010AD8B465EF06F0030AD8B47F
:10105000B7EF06F0010AD8B40BEF07F0070AD8B4CF
:1010600075EF07F0010AD8B4C7EF07F038EF08F0C2
:1010700012004D0E646E060E656E14EC14F090ECCA
:1010800012F063EC06F0650E6F18D8A44AEF08F072
:101090004CEF08F065EF08F0910E0001C85D010EFD
:1010A000C959D8A056EF08F058EF08F065EF08F0DE
:1010B000420E596E000E5A6E47EC0DF0000E000104
:1010C000C96F000EC86F640E6F6E2A50D8B46BEFF4
:1010D00008F06DEF08F075EF08F0000E0C6E500E82
:1010E0000B6E050E286E84EF08F0010E0C6E2C0EB0
:1010F0000B6ECB0E6F18D8A480EF08F082EF08F0CB
:1011000084EF08F0000E286E3EB089EF08F08BEFF8
:1011100008F08DEF08F041EF08F03E9065EC0EF01E
:10112000C5EF08F052EC14F0FFEF08F052EC14F0A9
:10113000010E0001866FFFEF08F052EC14F0010E73
:101140000001806F010E816FFFEF08F052EC14F088
:10115000010E0001826F010E836FFFEF08F052EC69
:1011600014F0010E0001846F010E856FFFEF08F08F
:1011700052EC14F0010E0001806F010E816F010E20
:10118000826F010E836FB1EF08F028500101586F94
:10119000596B5951000AD8B4D0EF08F0FFEF08F0AE
:1011A0005851000AD8B492EF08F0010AD8B496EF6B
:1011B00008F0030AD8B49DEF08F0010AD8B4A6EFEE
:1011C00008F0070AD8B4AFEF08F0010AD8B4B8EFB6
:1011D00008F0FFEF08F0000E9EEC0CF05AC052F140
:1011E0005BC053F1010E0101546F060E556F85EC83
:1011F00013F015EF09F019EC13F015EF09F06F502B
:101200000101586F596B5951000AD8B40AEF09F01F
:1012100015EF09F05851640AD8B4EBEF08F0010A51
:10122000D8B4FBEF08F015EF09F02C50D8B41BEF41
:1012300009F01DEF09F02EEF09F041EF08F0EBEC9B
:101240000BF060C052F161C053F1010E0101546F07
:10125000060E556F85EC13F041EF08F06F50010159
:10126000586F596B5951000AD8B439EF09F041EF62
:1012700008F05851C80AD8B41FEF09F0010AD8B4D1
:101280001FEF09F0030AD8B41FEF09F0010AD8B420
:101290001FEF09F041EF08F02CEF00F05A6EAEEFAF
:1012A00009F0C00E53EF0AF0F90E53EF0AF0A40E46
:1012B00053EF0AF0B00E53EF0AF0990E53EF0AF015
:1012C000920E53EF0AF0820E53EF0AF0F80E53EF2E
:1012D0000AF0800E53EF0AF0900E53EF0AF0880EDA
:1012E00053EF0AF0A00E53EF0AF0830E53EF0AF00B
:1012F000C60E53EF0AF0A70E53EF0AF0A10E53EFFC
:101300000AF0860E53EF0AF0840E53EF0AF08E0EA9
:1013100053EF0AF0890E53EF0AF08B0E53EF0AF0E9
:10132000F10E53EF0AF0C70E53EF0AF0AB0E53EF76
:101330000AF0A30E53EF0AF08C0E53EF0AF0980E4A
:1013400053EF0AF0AF0E53EF0AF0870E53EF0AF097
:10135000C10E53EF0AF0910E53EF0AF05A50586E37
:10136000596A5950000AD8B4B8EF09F053EF0AF09F
:101370005850000AD8B451EF09F0010AD8B454EF1C
:1013800009F0030AD8B457EF09F0010AD8B45AEFAC
:1013900009F0070AD8B45DEF09F0010AD8B460EF8C
:1013A00009F0030AD8B463EF09F0010AD8B466EF74
:1013B00009F00F0AD8B469EF09F0010AD8B46CEF4C
:1013C00009F0480AD8B46FEF09F0030AD8B469EFFE
:1013D00009F0010AD8B478EF09F0070AD8B451EF40
:1013E00009F0010AD8B481EF09F0030AD8B487EFF5
:1013F00009F0010AD8B463EF09F00F0AD8B48AEFF4
:1014000009F0010AD8B454EF09F0030AD8B490EFF8
:1014100009F0060AD8B493EF09F0030AD8B451EFE3
:1014200009F01F0AD8B49CEF09F0030AD8B460EFA2
:1014300009F0060AD8B4A8EF09F0340AD8B472EF5C
:1014400009F0030AD8B475EF09F0010AD8B47BEFAC
:1014500009F0070AD8B47EEF09F0010AD8B484EF86
:1014600009F0020AD8B46CEF09F00F0AD8B48DEF76
:1014700009F0060AD8B496EF09F0010AD8B499EF3A
:1014800009F01E0AD8B49FEF09F0030AD8B4A2EFFE
:1014900009F0060AD8B4A5EF09F00D0AD8B4ABEFED
:1014A00009F053EF0AF012008A908C9E8A9A8A9271
:1014B0008B9A8B908B928B94272A7F0E2724D96E40
:1014C000DA6A000EDA22DF50D8B469EF0AF06BEF67
:1014D0000AF0C8EF0AF0D8900C304E6E0B304D6E0B
:1014E00026504F6E506A4D504F5C4E505058D8B0F9
:1014F0007CEF0AF07EEF0AF0C8EF0AF027EF0BF05E
:1015000000018851C2EC12F08B84F5EF0AF0000163
:101510008951C2EC12F08B82F5EF0AF000018A517A
:10152000C2EC12F08B80F5EF0AF000018B51C2EC97
:1015300012F08B8AF5EF0AF000018C51C2EC12F028
:101540008A82F5EF0AF000018D51C2EC12F08A8A0E
:10155000F5EF0AF000018651D8B4B1EF0AF0B3EF0D
:101560000AF0B8EF0AF0000EC2EC12F0BBEF0AF07E
:10157000FF0EC2EC12F08C8EF5EF0AF000018F51D5
:10158000C2EC12F08A80000E276E262AF5EF0AF0D0
:1015900027504D6E4E6A4E50000AD8B4D2EF0AF072
:1015A000F5EF0AF04D50010AD8B480EF0AF0030AB3
:1015B000D8B487EF0AF0010AD8B48EEF0AF0070A10
:1015C000D8B495EF0AF0010AD8B49CEF0AF0030AE8
:1015D000D8B4A3EF0AF0010AD8B4AAEF0AF00F0AB0
:1015E000D8B4BEEF0AF0F5EF0AF026504D6E4E6A01
:1015F0000B504D1807E10C504E18D8A402EF0BF019
:1016000004EF0BF027EF0BF0000E266E2A50D8B433
:101610000CEF0BF00EEF0BF00FEF0BF0292A050E7D
:10162000296415EF0BF017EF0BF027EF0BF02A50A2
:10163000D8B41DEF0BF01FEF0BF027EF0BF0000EEF
:101640002A6E000E286E050E296ECB0E6F6E1200EC
:1016500080BE2DEF0BF02FEF0BF038EF0BF0000EEC
:101660000001C76F000EC66F094A0A2A010E246ED8
:1016700080AE3DEF0BF03FEF0BF04EEF0BF024048C
:10168000D8A445EF0BF047EF0BF04EEF0BF0000E38
:101690000A6E000E096E0001C64BC72B80B853EFCF
:1016A0000BF055EF0BF05EEF0BF0000E0001C56F75
:1016B000000EC46F074A082A020E246E80A863EF4A
:1016C0000BF065EF0BF075EF0BF0020E2418D8A4A9
:1016D0006CEF0BF06EEF0BF075EF0BF0000E086E79
:1016E000000E076E0001C44BC52B80BC7AEF0BF0D7
:1016F0007CEF0BF085EF0BF0000E0001C36F000EC6
:10170000C26F054A062A030E246E80AC8AEF0BF0E6
:101710008CEF0BF09CEF0BF0030E2418D8A493EF82
:101720000BF095EF0BF09CEF0BF0000E066E000E29
:10173000056E0001C24BC32B81B8A1EF0BF0A3EFE4
:101740000BF0ACEF0BF0000E0001C16F000EC06F8C
:10175000034A042A040E246E81A8B1EF0BF0B3EF04
:101760000BF0C3EF0BF0040E2418D8A4BAEF0BF063
:10177000BCEF0BF0C3EF0BF0000E046E000E036E17
:101780000001C04BC12B83BCC8EF0BF0CAEF0BF0BC
:10179000D3EF0BF0000E0001BF6F000EBE6F014AC9
:1017A000022A050E246E83ACD8EF0BF0DAEF0BF0B3
:1017B000EAEF0BF0050E2418D8A4E1EF0BF0E3EFED
:1017C0000BF0EAEF0BF0000E026E000E016E00014E
:1017D000BE4BBF2B12002D04D8A4F1EF0BF0F3EF9A
:1017E0000BF03DEF0CF031C058F0596A000E5B6E03
:1017F0000A0E5A6E3DEC11F0585001014D6F31C088
:1018000058F0596A000E5B6E0A0E5A6E7BEC10F0AF
:10181000585001014C6F30C058F0596A000E5B6E91
:101820000A0E5A6E3DEC11F0585001014F6F30C056
:1018300058F0596A000E5B6E0A0E5A6E7BEC10F07F
:10184000585001014E6F2FC058F0596A000E5B6E60
:101850000A0E5A6E3DEC11F058500101516F2FC025
:1018600058F0596A000E5B6E0A0E5A6E7BEC10F04F
:1018700058500101506F99EF0CF02D50D8A443EF50
:101880000CF045EF0CF099EF0CF03750586E596A98
:1018900058BE5906000E5B6E0A0E5A6E3DEC11F0F2
:1018A000585001014D6F3750586E596A58BE59064D
:1018B000000E5B6E0A0E5A6E7BEC10F05850010160
:1018C0004C6F3650586E596A58BE5906000E5B6E02
:1018D0000A0E5A6E3DEC11F0585001014F6F365010
:1018E000586E596A58BE5906000E5B6E0A0E5A6E43
:1018F0007BEC10F0585001014E6F3550586E596A0C
:1019000058BE5906000E5B6E0A0E5A6E3DEC11F081
:1019100058500101516F3550586E596A58BE5906DA
:10192000000E5B6E0A0E5A6E7BEC10F058500101EF
:10193000506F4C0E606E010E616E12005E6EB0EC68
:1019400014F0D00E83EC14F0000E83EC14F0B9EC1C
:1019500014F0D10E83EC14F0000E5F6E420E5F2483
:10196000D96EDA6A000EDA22000EDFEC13F0DF6EB9
:101970005F2A050E5F64BFEF0CF0C1EF0CF0AEEF15
:101980000CF0010EDFEC13F0486E44BCCAEF0CF013
:10199000CDEF0CF0010ECEEF0CF0000E416E415079
:1019A000D8A4D5EF0CF0D7EF0CF0DCEF0CF04450DE
:1019B0003F0B446E27EF0DF044BAE1EF0CF0E4EF7B
:1019C0000CF0010EE5EF0CF0000E406E44501F0BC2
:1019D000446E27EF0DF044380F0B606E44500F0B30
:1019E000616E43380F0B626E43500F0B636E4238CB
:1019F0000F0B646E42500F0B656E40EF0DF04438D4
:101A00000F0B606E44500F0B616E43380F0B626E0C
:101A100043500F0B636E45380F0B646E45500F0B30
:101A2000656E40EF0DF048380F0B606E48500F0B9D
:101A3000616E47380F0B626E47500F0B636E46386E
:101A40000F0B646E46500F0B656E40EF0DF05E504D
:101A50005C6E5D6A5D50000AD8B431EF0DF040EF66
:101A60000DF05C50000AD8B4EBEF0CF0010AD8B4CA
:101A7000FFEF0CF0030AD8B413EF0DF040EF0DF0B8
:101A8000C2EC14F0600E5A6E000E5B6E120020EE77
:101A900002F05950D9265A50DA22DF505B6E4104C9
:101AA000D8A455EF0DF057EF0DF072EF0DF0120EB8
:101AB0005B645DEF0DF05FEF0DF062EF0DF05B50DA
:101AC000EE0F5B6E5B5040095B6E4004D8A46BEF79
:101AD0000DF06DEF0DF085EF0DF05B5020095B6EA2
:101AE00085EF0DF04004D8A478EF0DF07AEF0DF0FB
:101AF00085EF0DF0120E5B6080EF0DF082EF0DF0C0
:101B000085EF0DF05B50120F5B6E20EE02F0595026
:101B1000D9265A50DA225BC0DFFFB0EC14F0D00EA9
:101B200083EC14F0000E83EC14F059C0D9FF5AC0B6
:101B3000DAFFDF5083EC14F020EE01F05950D92683
:101B40005A50DA22DF5083EC14F020EE02F05950A4
:101B5000D9265A50DA22DF5083EC14F020EE03F03D
:101B60005950D9265A50DA22DF5083EC14F020EE77
:101B700004F05950D9265A50DA22DF5083EC14F081
:101B800020EE05F05950D9265A50DA22DF5083EC66
:101B900014F020EE06F05950D9265A50DA22DF50C0
:101BA00083EC14F0900E83EC14F0C2EC14F01200ED
:101BB0000600D9CF53F0DACF54F0F2AAE2EF0DF0DD
:101BC000E4EF0DF04EEF0EF0F2A4E9EF0DF0EBEFC5
:101BD0000DF04EEF0EF0F294FEEF0DF0FF0E4A6E98
:101BE000050E496EDDEC14F02BEF0EF0FA0E4A6E86
:101BF000550E496EDDEC14F02BEF0EF02750516EB0
:101C0000526A5250000AD8B408EF0EF02BEF0EF0D3
:101C10005150000AD8B4EEEF0DF0010AD8B4EEEF3F
:101C20000DF0030AD8B4EEEF0DF0010AD8B4EEEFD0
:101C30000DF0070AD8B4EEEF0DF0010AD8B4EEEFBC
:101C40000DF0030AD8B4EEEF0DF0010AD8B4F6EFA8
:101C50000DF02BEF0EF054EC0AF028EC0BF0000125
:101C6000BA4BBB2B640EBA19BB11D8A43AEF0EF0D5
:101C70003CEF0EF041EF0EF03E80000EBB6F000E09
:101C8000BA6F650E6F18D8A448EF0EF04AEF0EF049
:101C90005FEF0EF0C84BC92B5FEF0EF0F0A853EFCB
:101CA0000EF055EF0EF05FEF0EF0F0A25AEF0EF0CF
:101CB0005CEF0EF05FEF0EF0F09240EC0FF054C0CE
:101CC000DAFF53C0D9FF70921100000E00018F6F30
:101CD000A3EF0EF04150D8A470EF0EF072EF0EF0AB
:101CE00075EF0EF08F81D2EF0EF08F83D2EF0EF0F2
:101CF0008F8B2C50D8B47FEF0EF081EF0EF0C8EF31
:101D00000EF00D4A0E2A0E5007E1140E0D5CD8B0ED
:101D10008CEF0EF08EEF0EF08FEF0EF08F850E50E1
:101D200009E1290E0D5CD8A098EF0EF09AEF0EF0A5
:101D3000C8EF0EF0000E0E6E000E0D6EC8EF0EF026
:101D40008F89C8EF0EF06F50586E596A5950000ACB
:101D5000D8B4ADEF0EF0C8EF0EF05850640AD8B406
:101D60006AEF0EF0010AD8B46AEF0EF0AD0AD8B4EB
:101D700078EF0EF0010AD8B4A0EF0EF0030AD8B441
:101D8000C8EF0EF0010AD8B4C8EF0EF0C8EF0EF09D
:101D90002D04D8A4CEEF0EF0D0EF0EF075EF0EF0BC
:101DA00072EF0EF012002E50D8A4D9EF0EF0DBEF38
:101DB0000EF0DDEF0EF03FEF0FF02D04D8A4E3EFAF
:101DC0000EF0E5EF0EF000EF0FF02F2A3C0E2F186B
:101DD000D8A4EDEF0EF0EFEF0EF03FEF0FF0000E96
:101DE0002F6E302A3C0E3018D8A4F9EF0EF0FBEF1E
:101DF0000EF03FEF0FF0000E306E312A3FEF0FF084
:101E00002D50D8A406EF0FF008EF0FF03FEF0FF0C2
:101E10003750D8A40EEF0FF010EF0FF028EF0FF0AF
:101E20003650D8A416EF0FF018EF0FF028EF0FF090
:101E30003550D8A41EEF0FF020EF0FF028EF0FF071
:101E4000000E2E6E010E2A6E000E296E3FEF0FF06F
:101E5000000E2A6E350635BE32EF0FF030EF0FF070
:101E60003FEF0FF03B0E356E360636BE3CEF0FF0FF
:101E70003AEF0FF03FEF0FF03B0E366E37061200D1
:101E80002E50D8A446EF0FF048EF0FF04AEF0FF0B6
:101E9000ACEF0FF02D04D8A450EF0FF052EF0FF07D
:101EA0006DEF0FF02F2A3C0E2F18D8A45AEF0FF029
:101EB0005CEF0FF0ACEF0FF0000E2F6E302A3C0EEF
:101EC0003018D8A466EF0FF068EF0FF0ACEF0FF00A
:101ED000000E306E312AACEF0FF02D50D8A473EF06
:101EE0000FF075EF0FF0ACEF0FF03750D8A47BEF89
:101EF0000FF07DEF0FF095EF0FF03650D8A483EF81
:101F00000FF085EF0FF095EF0FF03550D8A48BEF61
:101F10000FF08DEF0FF095EF0FF0000E2E6E010E0B
:101F20002A6E000E296EACEF0FF0000E2A6E3506F9
:101F300035BE9FEF0FF09DEF0FF0ACEF0FF03B0EB3
:101F4000356E360636BEA9EF0FF0A7EF0FF0ACEFF7
:101F50000FF03B0E366E370612005A505B10D8B4A5
:101F6000B4EF0FF0B6EF0FF0BFEF0FF05A505B1069
:101F7000D8A4BDEF0FF0BFEF0FF0C4EF0FF0585033
:101F800009EC15F016EF10F020EE0AF05A50D926A1
:101F90005B50DA22DE50DE10D8B4D1EF0FF0D3EF71
:101FA0000FF0EEEF0FF020EE0AF05A50D9265B50FA
:101FB000DA2210EE03F05A50E1265B50E222DE50A6
:101FC000E65CE650800A606EDE50800A6058D8B049
:101FD000ECEF0FF0EEEF0FF016EF10F020EE03F045
:101FE0005A50D9265B50DA22DECF5CF0DDCF5DF0AF
:101FF0005AC0D9FF5BC0DAFFDECF5EF0DDCF5FF005
:102000005C505E24606E5D505F20616E60C0F6FFC4
:1020100061C0F7FF58C0F5FF0C0020EE03F05A50E6
:10202000D9265B50DA22DE2A000EDD2212003506A8
:1020300035BE1FEF10F01DEF10F05BEF10F03750C2
:102040003624586EE86AD8B0E82A37BEE80636BEAD
:10205000E806596E58505910D8B431EF10F033EFEC
:1020600010F05BEF10F03B0E356E360636BE3DEFDE
:1020700010F03BEF10F04AEF10F03750D8B443EFB8
:1020800010F045EF10F04AEF10F03B0E366E3706B9
:102090005BEF10F036BE51EF10F04FEF10F05BEF3A
:1020A00010F03750D8A457EF10F059EF10F05BEF55
:1020B00010F0000E366E35BE62EF10F060EF10F0DB
:1020C00078EF10F037503624586EE86AD8B0E82A16
:1020D00037BEE80636BEE806596E58505910D8A4E7
:1020E00074EF10F076EF10F078EF10F0000E356E10
:1020F000E6EC14F01200000E5D6E5BBE84EF10F093
:1021000082EF10F08AEF10F05A6C5B1ED8B05B2A99
:10211000010E5D6E59BE91EF10F08FEF10F097EF4A
:1021200010F0586C591ED8B0592A010E5D1A000ED5
:102130005F6E000E5E6E5A505B10D8B4A2EF10F0C6
:10214000A4EF10F0CCEF10F0010E5C6EACEF10F0CD
:10215000D8905A365B365C2A5BAEB1EF10F0B3EF25
:1021600010F0A8EF10F0D8905E365F365A50585CE9
:102170005B505958D8A0BFEF10F0C1EF10F0C6EF78
:1021800010F05A50585E5B50595A5E80D8905B32BE
:102190005A325C2EB3EF10F05D50D8B4D2EF10F08D
:1021A000D4EF10F0D8EF10F05E6C5F1ED8B05F2A4D
:1021B0005EC058F05FC059F012005A6E000EAC6E4F
:1021C000000EAB6E5AA0E7EF10F0E9EF10F0EAEF67
:1021D00010F0AC885AA2EFEF10F0F1EF10F0F3EF2F
:1021E00010F0AC8CAB8C5AA4F8EF10F0FAEF10F0B2
:1021F000FBEF10F0AC8E5AA600EF11F002EF11F0D9
:1022000005EF11F0AB8806EF11F0AB8A5AA80BEF7F
:1022100011F00DEF11F010EF11F0AC8411EF11F08F
:10222000AC945AAC16EF11F018EF11F01BEF11F04F
:102230009D8A1CEF11F09D9A5AAE21EF11F023EF09
:1022400011F026EF11F09D8827EF11F09D9858C0EE
:10225000AFFFAC8AAB8E949C948EACA832EF11F099
:1022600034EF11F03CEF11F0ACBE39EF11F03BEF61
:1022700011F03CEF11F0948C1200000E5D6E59BE0F
:1022800046EF11F044EF11F04CEF11F0586C591E6D
:10229000D8B0592A010E5D6E5BBE53EF11F051EFBD
:1022A00011F057EF11F05A6C5B1ED8B05B2A5A50F0
:1022B0005B10D8B45EEF11F060EF11F084EF11F015
:1022C000010E5C6E68EF11F0D8905A365B365C2ACE
:1022D0005BAE6DEF11F06FEF11F064EF11F05A503B
:1022E000585C5B505958D8A078EF11F07AEF11F094
:1022F0007EEF11F05A50585E5B50595AD8905B32BD
:102300005A325C2E6FEF11F05D50D8B48AEF11F0A5
:102310008CEF11F090EF11F0586C591ED8B0592A7B
:1023200058C058F059C059F01200EC0EF66E280E45
:10233000F76E000EF86E01EE32F010EE1AF00900A2
:10234000F5CFEEFFE550E150FAE1380EF66E290EBA
:10235000F76E000EF86E00EEEAF010EE14F00900D1
:10236000F5CFEEFFE550E150FAE1F60EF66E290EDC
:10237000F76E000EF86E00EE67F010EE08F0090040
:10238000F5CFEEFFE550E150FAE101EE00F0320E3C
:10239000EE6AE806FDE100EE80F06A0EEE6AE806FD
:1023A000FDE100EE01F0480EEE6AE806FDE17090F6
:1023B0007092000EF86E000139EF08F04EC1D9FF9F
:1023C0004FC1DAFFDECFF6FFDDCFF7FF0800F55093
:1023D000250AD8A4EEEF11F0F0EF11F009EF12F09A
:1023E0004EC1D9FF4FC1DAFFDE2A000EDD22000EFA
:1023F0000001956F000E946F94C00FF09669976975
:102400004EC1D9FF4FC1DAFFDE2A000EDD221DEFDB
:1024100012F04EC1D9FF4FC1DAFFDECFF6FFDDCF9C
:10242000F7FF0800F550586E596A4CC15AF04DC17B
:102430005BF0ADEC0FF000EF12F01200928E92887C
:10244000928C9388958C000E256E000E246E000EE3
:102450000A6E000E096E000E086E000E076E000E6A
:10246000066E000E056E000E046E000E036E000E6A
:10247000026E000E016E000E0001C76F000EC66FE7
:10248000000EC56F000EC46F000EC36F000EC26F4A
:10249000000EC16F000EC06F000EBF6F000EBE6F4A
:1024A000000EBD6F000EBC6F000E236E000E226E7C
:1024B0001200949494929490949A9392939A959EE5
:1024C00093908A808C8E8A8A8A828B8A8B808B8278
:1024D0008B84D4EC14F0000E586E800E5824D96E04
:1024E000DA6A000EDA22DF6A880E5824D96EDA6AB8
:1024F000000EDA22FF0EDF6E582A070E586483EFB3
:1025000012F085EF12F06DEF12F0000E276E000E44
:10251000266E000E286E010E0C6E2C0E0B6E120035
:10252000EDEC14F0000EC26E0F0EC16E07EC15F04C
:10253000C90E6F6E920E29EC14F0FF0E596E050E47
:10254000586ECBEC14F005EC15F03EEC13F059ECA2
:1025500012F01EEC12F0F4EC14F0FBEC13F0000E91
:10256000596E670E586E3C0EDDEC10F0010E596E80
:10257000060E5A6E62EC13F0000E0001C96F000ED9
:10258000C86F12004A6E4AC04BF08090000E4C6E2D
:102590004BBECDEF12F0D1EF12F0496A492AD2EFCB
:1025A00012F0496A80504918FE0B4918806E00D01D
:1025B00000D000D000D0808200F0809200F04B501C
:1025C0004B244B6E4C2A070E4C64E9EF12F0EBEFF4
:1025D00012F0C8EF12F0808600F0809600F0120032
:1025E00054C162F055C163F005EF13F052C14CF1D4
:1025F00053C14DF1620E01014E6F000E4F6F56C177
:1026000050F157C151F1DEEC11F062C0F6FF63C02A
:10261000F7FF0800F5500009D8A411EF13F013EFED
:1026200013F0F6EF12F0000E0101536F000E526F1F
:10263000120044380F0B4EEC09F00001886F445033
:102640000F0B4EEC09F00001896F43380F0B4EEC75
:1026500009F000018A6F43500F0B4EEC09F00001A6
:102660008B6F42380F0B4EEC09F000018C6F42501B
:102670000F0B4EEC09F000018D6F1200000E376E4B
:10268000000E366E000E356E000E346E000E336E88
:10269000000E326E000E316E000E306E000E2F6E88
:1026A000000E2E6E000E2C6E010E2D6E000E2B6E87
:1026B000000E2A6E000E296E9384F09EF092F08830
:1026C000F188120090EC14F00009D8A46AEF13F01E
:1026D0006CEF13F062EF13F059C0F6FF5AC0F7FF2A
:1026E0000800F5503EEC14F059C0F6FF5AC0F7FF51
:1026F000594A5A2A0800F5500009D8A482EF13F06D
:1027000084EF13F062EF13F0120001015405666EBE
:102710009BEF13F0880E6624D96EDA6A000EDA2277
:1027200066505225E16E000E5321E26EE7504EECEA
:1027300009F0DF6E662A01015551665CD8A0A3EF4F
:1027400013F0A5EF13F08AEF13F012002D04D8A4B4
:10275000ACEF13F0AEEF13F0B8EF13F0000E2D6EE8
:1027600031C037F030C036F02FC035F0C0EF13F075
:10277000010E2D6E37C031F036C030F035C02FF06D
:10278000E6EC14F01200352A3C0E3518D8A4CBEF35
:1027900013F0CDEF13F0DCEF13F0000E356E362A98
:1027A0003C0E3618D8A4D7EF13F0D9EF13F0DCEFB6
:1027B00013F0000E366E372AE6EC14F01200586E55
:1027C000C586C7A0E6EF13F0E8EF13F0E1EF13F0D2
:1027D000C9CF59F065EC14F058B002D0C59A01D0B9
:1027E000C58AC588C5B8F7EF13F0F9EF13F0F2EF1B
:1027F00013F059501200640E6F18D8A402EF14F0B1
:1028000004EF14F006EF14F013EF14F0C80E6F1875
:10281000D8A40DEF14F00FEF14F013EF14F0000E26
:102820002E6E000E2C6E1200660E0001FE6F000E62
:10283000FF6F000E0101526F000E536F64C054F120
:1028400065C055F1FE0E566F000E576FF0EC12F09A
:102850001200586E58507F0BD56E000ED76E000ECA
:10286000D66EF29458AE37EF14F039EF14F03CEF17
:1028700014F0F28A3DEF14F0F29A1200586EACACEC
:1028800044EF14F046EF14F04FEF14F0AC9021A297
:102890004CEF14F04EEF14F04FEF14F0AC8058C032
:1028A000ADFF1200000E586E800E5824D96EDA6A01
:1028B000000EDA22DF6A582A060E586462EF14F01E
:1028C00064EF14F054EF14F01200C7B46AEF14F080
:1028D0006CEF14F065EF14F0C5AC71EF14F073EF0A
:1028E00014F075EF14F0C2EC14F012001012090588
:1028F000301123000000F46B8CCE674BF46B8CCE50
:10290000674B0A0A0F01586E58C0C9FFC7B08BEF5A
:1029100014F08DEF14F086EF14F065EC14F0120053
:10292000ACB295EF14F097EF14F09AEF14F0010E9B
:102930009BEF14F0000E1200FFFFFF000A0A0FDFEA
:102940000A0A0F01FFFFFF000A0A0FDFC78EC79CAC
:10295000C68AC650F00B0809C66E630EC86E120018
:10296000C580C5B0B6EF14F0B8EF14F0B1EF14F0B5
:102970001200C582C5B2BFEF14F0C1EF14F0BAEF78
:1029800014F01200C584C5B4C8EF14F0CAEF14F0F7
:10299000C3EF14F0120058C05AF059C05BF05BC08E
:1029A000D7FF5AC0D6FF1200929092929296929AB6
:1029B000809080928096809A120049C04BF04AC065
:1029C0004CF04CC0D7FF4BC0D6FF120037C034F0DC
:1029D00036C033F035C032F01200D380D382D388B2
:1029E000D38AD38C9B8C1200010E416E010E406E77
:1029F000A6EC14F012000303030303030303000E09
:102A00002E6E1200010E2E6E1200D58E1200F28E66
:042A1000120012009E
:020000040030CA
:0E000000FF081F1EFF0180FF0FC00FE00F4022
:00000001FF
