:040000002CEF00F0F1
:0600080070821BED0DF0FB
:100018007080D8CF66F0E8CF67F0E0CF68F0F0A83E
:1000280018EF00F01AEF00F024EF00F0F0A21FEF35
:1000380000F021EF00F024EF00F0F09209EC0EF050
:1000480068C0E0FF67C0E8FF66C0D8FF7090100086
:040058007CEF12F037
:1006000000546869732069732045746865726E656B
:10061000742070726F746F636F6C207465737420D4
:0D0620006669726D77617265210D0A000038
:10062E003A50D8B41DEF03F01FEF03F03DEF06F084
:10063E00000E386E000E3A6ECB0E6F6E000E356EDB
:10064E003DEF06F05150D8A42FEF03F031EF03F039
:10065E0047EF03F05050D8A437EF03F039EF03F013
:10066E0043EF03F00B50D8A43FEF03F041EF03F03C
:10067E0043EF03F0120E0B6E010E516E5CEF03F0A2
:10068E005050D8A44DEF03F04FEF03F05AEF03F0A4
:10069E00120E0B18D8A456EF03F058EF03F05AEFD2
:1006AE0003F0000E0B6E000E516E000E356E0B50E9
:1006BE0047EC0FF062EF06F00BC08AF000018A2BB8
:1006CE008AC06DF00F0E6D16090E6D6471EF03F09A
:1006DE0073EF03F075EF03F0060E8A275150D8A47E
:1006EE007BEF03F07DEF03F095EF03F0110E8A65BB
:1006FE0083EF03F085EF03F087EF03F0010E506EEA
:10070E00230E8A658DEF03F08FEF03F0BDEF03F03C
:10071E00000E8A6F000E506EBDEF03F05104D8A488
:10072E009BEF03F09DEF03F0BDEF03F0120E8A6511
:10073E00A3EF03F0A5EF03F0A7EF03F0010E8A6F0E
:10074E00110E8A65ADEF03F0AFEF03F0BDEF03F0CE
:10075E005004D8A4B5EF03F0B7EF03F0BBEF03F0EE
:10076E00000E506EBDEF03F0010E506E8AC00BF0FE
:10077E000B5047EC0FF0000E356E62EF06F0154A87
:10078E00162A590E155C020E1658D8A0D1EF03F09A
:10079E00D3EF03F062EF06F00AC08AF000018A2B55
:1007AE008AC06DF00F0E6D16090E6D64E1EF03F049
:1007BE00E3EF03F0E5EF03F0060E8A27590E8A6584
:1007CE00EBEF03F0EDEF03F0EFEF03F0000E8A6FA7
:1007DE008AC00AF00A504AEC13F0000E166E000E94
:1007EE00156E62EF06F0154A162A590E155C020EAA
:1007FE001658D8A005EF04F007EF04F062EF06F0EC
:10080E0009C08AF000018A2B8AC06DF00F0E6D169A
:10081E00090E6D6415EF04F017EF04F019EF04F0F4
:10082E00060E8A27590E8A651FEF04F021EF04F099
:10083E0023EF04F0000E8A6F8AC009F009503BECDA
:10084E0013F0F4EF03F0000E356E0AC08AF00001CB
:10085E008A2B8AC06DF00F0E6D16090E6D643AEF7D
:10086E0004F03CEF04F03EEF04F0060E8A27590E1A
:10087E008A6544EF04F046EF04F048EF04F0000EF2
:10088E008A6F8AC00AF00A504AEC13F062EF06F043
:10089E00000E356E09C08AF000018A2B8AC06DF0F9
:1008AE000F0E6D16090E6D645FEF04F061EF04F02C
:1008BE0063EF04F0060E8A27590E8A6569EF04F07D
:1008CE006BEF04F06DEF04F0000E8A6F8AC009F032
:1008DE0009503BEC13F062EF06F035506D6E6E6A08
:1008EE006E50000AD8B47EEF04F062EF06F06D5041
:1008FE000B0AD8B463EF03F0070AD8B42AEF04F05A
:10090E00010AD8B44FEF04F0030AD8B429EF03F06C
:10091E001F0AD8B4C6EF03F0030AD8B4FAEF03F0F7
:10092E0062EF06F0000E356E3C50D8B4A1EF04F025
:10093E00A3EF04F0A5EF04F062EF06F03E50D8A44A
:10094E00ABEF04F0ADEF04F0B5EF04F0C80E6F6E30
:10095E00CFEC13F0010E386EBBEF04F0C90E6F6EC4
:10096E00CCEC13F0000E386E6FC04AF062EF06F05A
:10097E003E50D8A4C5EF04F0C7EF04F0C9EF04F061
:10098E0062EF06F0010E6D6E000E6E6E3C506D5EE7
:10099E00000E6E5A6D506E10D8A4D8EF04F0DBEF37
:1009AE0004F0010EDCEF04F0000E3C6EC2EF03F01B
:1009BE0099EC12F0000E3C6EC2EF03F035506D6EE6
:1009CE006E6A6E50000AD8B4EFEF04F062EF06F0D4
:1009DE006D500E0AD8B499EF04F0010AD8B4BFEFE7
:1009EE0004F01B0AD8B4DFEF04F062EF06F0000E3D
:1009FE003C6E000E386E5AEF05F03E50D8A40AEF4A
:100A0E0005F00CEF05F014EF05F0C80E6F6ECFEC8D
:100A1E0013F0010E386E1AEF05F0C90E6F6ECCECA6
:100A2E0013F0000E386E000E356EBBEF04F03D0471
:100A3E00D8A424EF05F026EF05F02EEF05F0000EFA
:100A4E00416E000E406E000E3F6EC2EF03F03D5041
:100A5E00D8A434EF05F036EF05F0C2EF03F044C032
:100A6E0047F043C046F042C045F0C2EF03F099ECA8
:100A7E0012F0C2EF03F03D04D8A448EF05F04AEFA0
:100A8E0005F04CEF05F0C2EF03F0CA0E6F6E62EF89
:100A9E0006F03D04D8A456EF05F058EF05F04CEFE4
:100AAE0005F0C2EF03F035506D6E6E6A6E50000A9F
:100ABE00D8B464EF05F062EF06F06D500C0AD8B4AE
:100ACE0042EF05F0010AD8B450EF05F0030AD8B48E
:100ADE0004EF05F0010AD8B41EEF05F01B0AD8B4D6
:100AEE003EEF05F062EF06F0000E3D6E000E386E22
:100AFE00A1EF05F0C80E6F6ECFEC13F0010E386E3D
:100B0E00C2EF03F0000E476E000E466E000E456EED
:100B1E00000E356E62EF06F0010E3D6EC90E6F6E61
:100B2E00CCEC13F047C041F046C040F045C03FF05A
:100B3E00C2EF03F035506D6E6E6A6E50000AD8B477
:100B4E00ABEF05F062EF06F06D500C0AD8B44CEF27
:100B5E0005F0010AD8B44CEF05F0030AD8B481EFC2
:100B6E0005F0010AD8B489EF05F01B0AD8B493EF4B
:100B7E0005F062EF06F0154A162A590E155C020EA4
:100B8E001658D8A0CDEF05F0CFEF05F062EF06F0C6
:100B9E00B6EC12F0F4EF03F0154A162A590E155C56
:100BAE00020E1658D8A0DEEF05F0E0EF05F062EF6A
:100BBE0006F0E3EC0EF0F4EF03F0010E386EB6EC37
:100BCE0012F0C2EF03F0010E386EE3EC0EF0C2EF3E
:100BDE0003F03D04D8A4F6EF05F0F8EF05F081EF31
:100BEE0005F0C2EF03F03D04D8A400EF06F002EFCB
:100BFE0006F004EF06F0C2EF03F03D50D8A40AEF62
:100C0E0006F00CEF06F012EF06F0000E476E000E27
:100C1E00466E000E456E000E386E000E356E62EF9B
:100C2E0006F035506D6E6E6A6E50000AD8B422EF23
:100C3E0006F062EF06F06D500C0AD8B4E4EF05F042
:100C4E00010AD8B4EAEF05F0030AD8B4F0EF05F0C4
:100C5E00010AD8B4FAEF05F01E0AD8B4C2EF05F0B7
:100C6E00030AD8B4D3EF05F062EF06F06F506D6E45
:100C7E006E6A6E50000AD8B447EF06F062EF06F0C7
:100C8E006D50640AD8B474EF04F0010AD8B462EF60
:100C9E0006F0AD0AD8B4E5EF04F0010AD8B4FEEFC1
:100CAE0004F0030AD8B418EF06F0010AD8B47BEFAB
:100CBE0005F062EF06F01200F6EF07F0B10E295CB8
:100CCE00040E2A58D8A06EEF06F070EF06F084EFEF
:100CDE0006F03250D8A476EF06F078EF06F07AEFF1
:100CEE0006F0100E356E010E326E040E2A6EB00E28
:100CFE00296E17EC03F09DEF06F02A5009E1330E32
:100D0E00295CD8A08DEF06F08FEF06F09DEF06F070
:100D1E003350D8A495EF06F097EF06F099EF06F052
:100D2E000B0E356E010E336E80EF06F0205009E18A
:100D3E00060E1F5CD8A0A6EF06F0A8EF06F018EF7F
:100D4E0008F0000E206E000E1F6E000E346E000EA8
:100D5E00326E000E336E000E356E18EF08F0B10EC7
:100D6E00275C040E2858D8A0BFEF06F0C1EF06F09E
:100D7E00D5EF06F03250D8A4C7EF06F0C9EF06F053
:100D8E00CBEF06F0110E356E010E326E040E286E8C
:100D9E00B00E276E17EC03F0EEEF06F0285009E1C7
:100DAE00330E275CD8A0DEEF06F0E0EF06F0EEEF94
:100DBE0006F03350D8A4E6EF06F0E8EF06F0EAEFBF
:100DCE0006F00C0E356E010E336ED1EF06F01E508E
:100DDE0009E1060E1D5CD8A0F7EF06F0F9EF06F05C
:100DEE0018EF08F0000E1E6E000E1D6E000E346E13
:100DFE00000E326E000E336E000E356E18EF08F0D8
:100E0E00B10E255C040E2658D8A010EF07F012EF95
:100E1E0007F026EF07F03250D8A418EF07F01AEFBC
:100E2E0007F01CEF07F0120E356E010E326E040E37
:100E3E00266EB00E256E17EC03F03FEF07F026502E
:100E4E0009E1330E255CD8A02FEF07F031EF07F044
:100E5E003FEF07F03350D8A437EF07F039EF07F024
:100E6E003BEF07F00D0E356E010E336E22EF07F0DD
:100E7E001C5009E1060E1B5CD8A048EF07F04AEFA4
:100E8E0007F018EF08F0000E1C6E000E1B6E000E21
:100E9E00346E000E326E000E336E000E356E18EF8D
:100EAE0008F0B10E235C040E2458D8A061EF07F0B1
:100EBE0063EF07F077EF07F03250D8A469EF07F031
:100ECE006BEF07F06DEF07F0130E356E010E326EFD
:100EDE00040E246EB00E236E17EC03F090EF07F0A5
:100EEE00245009E1330E235CD8A080EF07F082EF87
:100EFE0007F090EF07F03350D8A488EF07F08AEF91
:100F0E0007F08CEF07F00E0E356E010E336E73EF99
:100F1E0007F01A5009E1060E195CD8A099EF07F0F8
:100F2E009BEF07F018EF08F0000E1A6E000E196E08
:100F3E00000E346E000E326E000E336E18EF08F097
:100F4E00B10E215C040E2258D8A0B0EF07F0B2EF1C
:100F5E0007F0C6EF07F03250D8A4B8EF07F0BAEF9B
:100F6E0007F0BCEF07F0140E356E010E326E040E54
:100F7E00226EB00E216E17EC03F0DFEF07F0225059
:100F8E0009E1330E215CD8A0CFEF07F0D1EF07F0C7
:100F9E00DFEF07F03350D8A4D7EF07F0D9EF07F003
:100FAE00DBEF07F00F0E356E010E336EC2EF07F05A
:100FBE00185009E1060E175CD8A0E8EF07F0EAEF2B
:100FCE0007F018EF08F0000E186E000E176E000EE8
:100FDE00346E000E326E000E336E18EF08F0345081
:100FEE0000018B6F8C6B8C51000AD8B401EF08F0A6
:100FFE0018EF08F08B51010AD8B465EF06F0030A1A
:10100E00D8B4B6EF06F0010AD8B407EF07F0070A16
:10101E00D8B458EF07F0010AD8B4A7EF07F018EFCD
:10102E0008F012006B6E79EF08F0C00E1EEF09F09B
:10103E00F90E1EEF09F0A40E1EEF09F0B00E1EEF12
:10104E0009F0990E1EEF09F0920E1EEF09F0820EB6
:10105E001EEF09F0F80E1EEF09F0800E1EEF09F0DC
:10106E00900E1EEF09F0880E1EEF09F0A00E1EEF77
:10107E0009F0830E1EEF09F0C60E1EEF09F0A70E43
:10108E001EEF09F0A10E1EEF09F0860E1EEF09F0FD
:10109E00840E1EEF09F08E0E1EEF09F0890E1EEF64
:1010AE0009F08B0E1EEF09F0F10E1EEF09F0C70EC0
:1010BE001EEF09F0AB0E1EEF09F0A30E1EEF09F0A6
:1010CE008C0E1EEF09F0980E1EEF09F0AF0E1EEFFC
:1010DE0009F0870E1EEF09F0C10E1EEF09F0910EFA
:1010EE001EEF09F06B50696E6A6A6A50000AD8B436
:1010FE0083EF08F01EEF09F06950000AD8B41CEF18
:10110E0008F0010AD8B41FEF08F0030AD8B422EF92
:10111E0008F0010AD8B425EF08F0070AD8B428EF72
:10112E0008F0010AD8B42BEF08F0030AD8B42EEF5A
:10113E0008F0010AD8B431EF08F00F0AD8B434EF32
:10114E0008F0010AD8B437EF08F0480AD8B43AEFDD
:10115E0008F0030AD8B434EF08F0010AD8B443EF0C
:10116E0008F0070AD8B41CEF08F0010AD8B44CEF07
:10117E0008F0030AD8B452EF08F0010AD8B42EEFE3
:10118E0008F00F0AD8B455EF08F0010AD8B41FEFD3
:10119E0008F0030AD8B45BEF08F0060AD8B45EEF85
:1011AE0008F0030AD8B41CEF08F01F0AD8B467EF92
:1011BE0008F0030AD8B42BEF08F0060AD8B473EF80
:1011CE0008F0340AD8B43DEF08F0030AD8B440EF63
:1011DE0008F0010AD8B446EF08F0070AD8B449EF70
:1011EE0008F0010AD8B44FEF08F0020AD8B437EF6E
:1011FE0008F00F0AD8B458EF08F0060AD8B461EF19
:10120E0008F0010AD8B464EF08F01E0AD8B46AEFE9
:10121E0008F0030AD8B46DEF08F0060AD8B470EFE0
:10122E0008F00D0AD8B476EF08F01EEF09F01200A0
:10123E003D04D8A425EF09F027EF09F09EEF09F041
:10124E00000120EE01F08E51D9268F51DA22415045
:10125E00696E6A6A69BE6A06000E6C6E0A0E6B6E65
:10126E00CBEC10F06950DF6E4150696E6A6A69BE50
:10127E006A06000E6C6E0A0E6B6EAAEC0FF06950C9
:10128E008EC0D9FF8FC0DAFFDF6E000120EE03F0B3
:10129E008E51D9268F51DA224050696E6A6A69BE24
:1012AE006A06000E6C6E0A0E6B6ECBEC10F0695077
:1012BE00DF6E000120EE02F08E51D9268F51DA2218
:1012CE004050696E6A6A69BE6A06000E6C6E0A0E3E
:1012DE006B6EAAEC0FF06950DF6E000120EE05F088
:1012EE008E51D9268F51DA223F50696E6A6A69BED5
:1012FE006A06000E6C6E0A0E6B6ECBEC10F0695027
:10130E00DF6E000120EE04F08E51D9268F51DA22C5
:10131E003F50696E6A6A69BE6A06000E6C6E0A0EEE
:10132E006B6EAAEC0FF06950DF6E1BEF0AF03D50AA
:10133E00D8A4A4EF09F0A6EF09F01BEF0AF0000104
:10134E0020EE01F08E51D9268F51DA224750696E68
:10135E006A6A69BE6A06000E6C6E0A0E6B6ECBEC84
:10136E0010F06950DF6E4750696E6A6A69BE6A0690
:10137E00000E6C6E0A0E6B6EAAEC0FF069508EC0EA
:10138E00D9FF8FC0DAFFDF6E000120EE03F08E5121
:10139E00D9268F51DA224650696E6A6A69BE6A068C
:1013AE00000E6C6E0A0E6B6ECBEC10F06950DF6E99
:1013BE00000120EE02F08E51D9268F51DA224650CE
:1013CE00696E6A6A69BE6A06000E6C6E0A0E6B6EF4
:1013DE00AAEC0FF06950DF6E000120EE05F08E5181
:1013EE00D9268F51DA224550696E6A6A69BE6A063D
:1013FE00000E6C6E0A0E6B6ECBEC10F06950DF6E49
:10140E00000120EE04F08E51D9268F51DA2245507C
:10141E00696E6A6A69BE6A06000E6C6E0A0E6B6EA3
:10142E00AAEC0FF06950DF6E120094EC11F063EC31
:10143E0006F03A50D8B426EF0AF028EF0AF032EF51
:10144E000AF0000E2C6E500E2B6E050E386E000E2E
:10145E003C6E41EF0AF0010E2C6E2C0E2B6ECB0E55
:10146E006F18D8A43DEF0AF03FEF0AF041EF0AF0F3
:10147E00000E386E4EB046EF0AF048EF0AF04AEF13
:10148E000AF01EEF0AF04E909CEC0DF07DEF0AF084
:10149E0017EC13F0B2EF0AF017EC13F0010E076E13
:1014AE00B2EF0AF017EC13F0010E016E010E026E90
:1014BE00B2EF0AF017EC13F0010E036E010E046E7C
:1014CE00B2EF0AF017EC13F0010E056E010E066E68
:1014DE00B2EF0AF017EC13F0010E016E010E026E60
:1014EE00010E036E010E046E6BEF0AF03850000110
:1014FE00916F926B9251000AD8B488EF0AF0B2EF56
:10150E000AF09151000AD8B44FEF0AF0010AD8B48C
:10151E0053EF0AF0030AD8B459EF0AF0010AD8B40F
:10152E0061EF0AF0070AD8B469EF0AF0010AD8B4DD
:10153E0071EF0AF0B2EF0AF06DEC10F06BC08DF0A7
:10154E006CC08EF0010E00018F6F060E906F3AEC9C
:10155E0012F0C4EF0AF06F500001916F926B92512E
:10156E00000AD8B4BDEF0AF0C4EF0AF09151640A34
:10157E00D8B4A3EF0AF0C4EF0AF03C50D8B4CAEFC7
:10158E000AF0CCEF0AF0D6EF0AF01EEF0AF0520E78
:10159E008E6F000E8F6F1FEC09F01EEF0AF06F506A
:1015AE000001916F926B9251000AD8B4E1EF0AF0EC
:1015BE001EEF0AF09151C80AD8B4CEEF0AF0010A14
:1015CE00D8B4CEEF0AF0030AD8B4CEEF0AF0010A6F
:1015DE00D8B4CEEF0AF01EEF0AF02CEF00F08A908E
:1015EE008C9E8A9A8A928B9A8B908B928B94372AA6
:1015FE00000E3724D96EDA6A000EDA22DF50D8B424
:10160E000BEF0BF00DEF0BF055EF0BF0D8902C30DD
:10161E005F6E2B305E6E3650606E616A5E50605C3F
:10162E005F506158D8B01EEF0BF020EF0BF055EF66
:10163E000BF0B4EF0BF05250C5EC11F08B8482EF2F
:10164E000BF05350C5EC11F08B8282EF0BF054501F
:10165E00C5EC11F08B8082EF0BF05550C5EC11F0FC
:10166E008B8A82EF0BF05650C5EC11F08A8282EF16
:10167E000BF05750C5EC11F08A8A82EF0BF0000E7A
:10168E00C5EC11F08C8E82EF0BF05950C5EC11F0B9
:10169E008A80000E376E362A82EF0BF037505E6E60
:1016AE005F6A5F50000AD8B45FEF0BF082EF0BF069
:1016BE005E50010AD8B422EF0BF0030AD8B428EF1B
:1016CE000BF0010AD8B42EEF0BF0070AD8B434EFA2
:1016DE000BF0010AD8B43AEF0BF0030AD8B440EF7E
:1016EE000BF0010AD8B446EF0BF00F0AD8B44CEF4A
:1016FE000BF082EF0BF036505E6E5F6A2B505E1869
:10170E0007E12C505F18D8A48FEF0BF091EF0BF080
:10171E00B4EF0BF0000E366E3A50D8B499EF0BF0D2
:10172E009BEF0BF09CEF0BF0392A050E3964A2EFFC
:10173E000BF0A4EF0BF0B4EF0BF03A50D8B4AAEFC5
:10174E000BF0ACEF0BF0B4EF0BF0000E3A6E000E98
:10175E00386E050E396ECB0E6F6E120080BEBAEF6C
:10176E000BF0BCEF0BF0C4EF0BF0000E206E000E72
:10177E001F6E294A2A2A010E346E80AEC9EF0BF075
:10178E00CBEF0BF0D9EF0BF03404D8A4D1EF0BF064
:10179E00D3EF0BF0D9EF0BF0000E2A6E000E296E70
:1017AE001F4A202A80B8DEEF0BF0E0EF0BF0E8EFD7
:1017BE000BF0000E1E6E000E1D6E274A282A020E1A
:1017CE00346E80A8EDEF0BF0EFEF0BF0FEEF0BF0A9
:1017DE00020E3418D8A4F6EF0BF0F8EF0BF0FEEF74
:1017EE000BF0000E286E000E276E1D4A1E2A80BCBE
:1017FE0003EF0CF005EF0CF00DEF0CF0000E1C6E6D
:10180E00000E1B6E254A262A030E346E80AC12EF94
:10181E000CF014EF0CF023EF0CF0030E3418D8A4D8
:10182E001BEF0CF01DEF0CF023EF0CF0000E266EEC
:10183E00000E256E1B4A1C2A81B828EF0CF02AEFE9
:10184E000CF032EF0CF0000E1A6E000E196E234AD9
:10185E00242A040E346E81A837EF0CF039EF0CF009
:10186E0048EF0CF0040E3418D8A440EF0CF042EF01
:10187E000CF048EF0CF0000E246E000E236E194A89
:10188E001A2A83BC4DEF0CF04FEF0CF057EF0CF013
:10189E00000E186E000E176E214A222A050E346EA7
:1018AE0083AC5CEF0CF05EEF0CF06DEF0CF0050E00
:1018BE003418D8A465EF0CF067EF0CF06DEF0CF058
:1018CE00000E226E000E216E174A182A120020EE0C
:1018DE0002F06A50D9266B50DA22DF506D6E510439
:1018EE00D8A47CEF0CF07EEF0CF0A7EF0CF0120EEC
:1018FE006D6484EF0CF086EF0CF089EF0CF06D50F8
:10190E00EE0F6D6E6DC06CF00F0E6C16090E6C64E2
:10191E0093EF0CF095EF0CF097EF0CF0060E6D5E5A
:10192E006D5040096D6E5004D8A4A0EF0CF0A2EFDC
:10193E000CF0C8EF0CF06D5020096D6EC8EF0CF076
:10194E005004D8A4ADEF0CF0AFEF0CF0BAEF0CF0E2
:10195E00120E6D60B5EF0CF0B7EF0CF0BAEF0CF0A5
:10196E006D50120F6D6E6DC06CF00F0E6C16090E71
:10197E006C64C4EF0CF0C6EF0CF0C8EF0CF0060E62
:10198E006D2620EE02F06A50D9266B50DA226DC019
:10199E00DFFFA0EC13F0D00E59EC13F0000E59EC53
:1019AE0013F06AC0D9FF6BC0DAFFDF5059EC13F0A9
:1019BE0020EE01F06A50D9266B50DA22DF5059EC36
:1019CE0013F020EE02F06A50D9266B50DA22DF5067
:1019DE0059EC13F020EE03F06A50D9266B50DA2240
:1019EE00DF5059EC13F020EE04F06A50D9266B50FC
:1019FE00DA22DF5059EC13F020EE05F06A50D926AA
:101A0E006B50DA22DF5059EC13F020EE06F06A50DC
:101A1E00D9266B50DA22DF5059EC13F0900E59ECA8
:101A2E0013F097EC13F012000600D9CF64F0DACF62
:101A3E0065F0F2AA25EF0DF027EF0DF085EF0DF012
:101A4E00F2A42CEF0DF02EEF0DF085EF0DF0F294C9
:101A5E0041EF0DF0FF0E5B6E050E5A6EA9EC13F002
:101A6E006EEF0DF0FA0E5B6E550E5A6EA9EC13F07A
:101A7E006EEF0DF03750626E636A6350000AD8B491
:101A8E004BEF0DF06EEF0DF06250000AD8B431EF4F
:101A9E000DF0010AD8B431EF0DF0030AD8B431EFCE
:101AAE000DF0010AD8B431EF0DF0070AD8B431EFBA
:101ABE000DF0010AD8B431EF0DF0030AD8B431EFAE
:101ACE000DF0010AD8B439EF0DF06EEF0DF0F6EC13
:101ADE000AF0B5EC0BF0134A142A640E1318141006
:101AEE00D8A47CEF0DF07EEF0DF096EF0DF04E804A
:101AFE00000E146E000E136E96EF0DF0F0A88AEF26
:101B0E000DF08CEF0DF096EF0DF0F0A291EF0DF0C1
:101B1E0093EF0DF096EF0DF0F09276EC0EF065C0AF
:101B2E00DAFF64C0D9FF70921100000E596ED9EF22
:101B3E000DF05150D8A4A6EF0DF0A8EF0DF0ABEFBD
:101B4E000DF0598008EF0EF0598208EF0EF0598A09
:101B5E003C50D8B4B5EF0DF0B7EF0DF0FEEF0DF031
:101B6E002D4A2E2A2E5007E1140E2D5CD8B0C2EF4E
:101B7E000DF0C4EF0DF0C5EF0DF059842E5009E1B4
:101B8E00290E2D5CD8A0CEEF0DF0D0EF0DF0FEEFAC
:101B9E000DF0000E2E6E000E2D6EFEEF0DF059881C
:101BAE00FEEF0DF06F50696E6A6A6A50000AD8B483
:101BBE00E3EF0DF0FEEF0DF06950640AD8B4A0EF1C
:101BCE000DF0010AD8B4A0EF0DF0AD0AD8B4AEEF07
:101BDE000DF0010AD8B4D6EF0DF0030AD8B4FEEF1B
:101BEE000DF0010AD8B4FEEF0DF0FEEF0DF03D043E
:101BFE00D8A404EF0EF006EF0EF0ABEF0DF0A8EF49
:101C0E000DF012003E50D8A40FEF0EF011EF0EF0B3
:101C1E0013EF0EF075EF0EF03D04D8A419EF0EF091
:101C2E001BEF0EF036EF0EF03F2A3C0E3F18D8A4F5
:101C3E0023EF0EF025EF0EF075EF0EF0000E3F6E57
:101C4E00402A3C0E4018D8A42FEF0EF031EF0EF0C4
:101C5E0075EF0EF0000E406E412A75EF0EF03D50FE
:101C6E00D8A43CEF0EF03EEF0EF075EF0EF047509D
:101C7E00D8A444EF0EF046EF0EF05EEF0EF0465095
:101C8E00D8A44CEF0EF04EEF0EF05EEF0EF0455076
:101C9E00D8A454EF0EF056EF0EF05EEF0EF0000EDD
:101CAE003E6E010E3A6E000E396E75EF0EF0000E9E
:101CBE003A6E450645BE68EF0EF066EF0EF075EF14
:101CCE000EF03B0E456E460646BE72EF0EF070EFFE
:101CDE000EF075EF0EF03B0E466E470612003E50AC
:101CEE00D8A47CEF0EF07EEF0EF080EF0EF0E2EF58
:101CFE000EF03D04D8A486EF0EF088EF0EF0A3EFA1
:101D0E000EF03F2A3C0E3F18D8A490EF0EF092EF43
:101D1E000EF0E2EF0EF0000E3F6E402A3C0E401821
:101D2E00D8A49CEF0EF09EEF0EF0E2EF0EF0000E38
:101D3E00406E412AE2EF0EF03D50D8A4A9EF0EF00E
:101D4E00ABEF0EF0E2EF0EF04750D8A4B1EF0EF06D
:101D5E00B3EF0EF0CBEF0EF04650D8A4B9EF0EF065
:101D6E00BBEF0EF0CBEF0EF04550D8A4C1EF0EF046
:101D7E00C3EF0EF0CBEF0EF0000E3E6E010E3A6E7C
:101D8E00000E396EE2EF0EF0000E3A6E450645BEBD
:101D9E00D5EF0EF0D3EF0EF0E2EF0EF03B0E456EE8
:101DAE00460646BEDFEF0EF0DDEF0EF0E2EF0EF070
:101DBE003B0E466E47061200450645BEEBEF0EF093
:101DCE00E9EF0EF027EF0FF047504624696EE86AF0
:101DDE00D8B0E82A47BEE80646BEE8066A6E6950E5
:101DEE006A10D8B4FDEF0EF0FFEF0EF027EF0FF0F4
:101DFE003B0E456E460646BE09EF0FF007EF0FF09D
:101E0E0016EF0FF04750D8B40FEF0FF011EF0FF0A1
:101E1E0016EF0FF03B0E466E470627EF0FF046BE4D
:101E2E001DEF0FF01BEF0FF027EF0FF04750D8A468
:101E3E0023EF0FF025EF0FF027EF0FF0000E466E99
:101E4E0045BE2EEF0FF02CEF0FF044EF0FF0475082
:101E5E004624696EE86AD8B0E82A47BEE80646BE50
:101E6E00E8066A6E69506A10D8A440EF0FF042EF90
:101E7E000FF044EF0FF0000E456EB2EC13F01200AF
:101E8E006B6E6BC06CF05104D8A450EF0FF052EF94
:101E9E000FF07BEF0FF0120E6C6458EF0FF05AEF4D
:101EAE000FF05DEF0FF06C50EE0F6C6E6CC06AF0C1
:101EBE000F0E6A16090E6A6467EF0FF069EF0FF0E6
:101ECE006BEF0FF0060E6C5E6C5040096C6E50049A
:101EDE00D8A474EF0FF076EF0FF09CEF0FF06C506C
:101EEE0020096C6E9CEF0FF05004D8A481EF0FF018
:101EFE0083EF0FF09CEF0FF0120E6C6089EF0FF076
:101F0E008BEF0FF09CEF0FF06C50120F6C6E6CC0DD
:101F1E006AF00F0E6A16090E6A6498EF0FF09AEFC8
:101F2E000FF09CEF0FF0060E6C26A0EC13F0D00E07
:101F3E0059EC13F0020E59EC13F06C5059EC13F0EF
:101F4E0097EC13F01200000E00018B6F6CBEB4EF15
:101F5E000FF0B2EF0FF0BAEF0FF06B6C6C1ED8B043
:101F6E006C2A010E8B6F6ABEC1EF0FF0BFEF0FF040
:101F7E00C7EF0FF0696C6A1ED8B06A2A010E8B1B70
:101F8E00000E8D6F000E8C6F6B506C10D8B4D2EFAC
:101F9E000FF0D4EF0FF0FCEF0FF0010E8A6FDCEFB5
:101FAE000FF0D8906B366C368A2B6CAEE1EF0FF0DB
:101FBE00E3EF0FF0D8EF0FF0D8908C378D376B50D2
:101FCE00695C6C506A58D8A0EFEF0FF0F1EF0FF08C
:101FDE00F6EF0FF06B50695E6C506A5A8C81D89098
:101FEE006C326B328A2FE3EF0FF08B51D8B402EFC5
:101FFE0010F004EF10F008EF10F08C6D8D1FD8B0BC
:10200E008D2B8CC069F08DC06AF012006B6E000EC5
:10201E00AC6E000EAB6E6BA017EF10F019EF10F058
:10202E001AEF10F0AC886BA21FEF10F021EF10F03A
:10203E0023EF10F0AC8CAB8C6BA428EF10F02AEFD2
:10204E0010F02BEF10F0AC8E6BA630EF10F032EFDD
:10205E0010F035EF10F0AB8836EF10F0AB8A6BA8AE
:10206E003BEF10F03DEF10F040EF10F0AC8441EF7D
:10207E0010F0AC946BAC46EF10F048EF10F04BEF55
:10208E0010F09D8A4CEF10F09D9A6BAE51EF10F050
:10209E0053EF10F056EF10F09D8857EF10F09D980B
:1020AE0069C0AFFFAC8AAB8E949C948EACA862EFE5
:1020BE0010F064EF10F06CEF10F0ACBE69EF10F0A2
:1020CE006BEF10F06CEF10F0948C1200A0EC13F08C
:1020DE00D00E59EC13F0000E59EC13F07CEC13F00B
:1020EE00D10E59EC13F0000E00018A6F000E8B6FAB
:1020FE00000E8C6F000ED2EC12F0096E000ED2ECB8
:10210E0012F00A6E010ED2EC12F00B6E97EC13F079
:10211E000BBC94EF10F097EF10F0010E98EF10F04B
:10212E00000E516E5150D8A49FEF10F0A1EF10F099
:10213E00A6EF10F00B503F0B0B6EB3EF10F00BBA77
:10214E00ABEF10F0AEEF10F0010EAFEF10F0000E8F
:10215E00506E0B501F0B0B6E0B380F0B00018A6F5E
:10216E000B500F0B8B6F0A380F0B8C6F0A500F0B27
:10217E008D6F09380F0B8E6F09500F0B8F6F8A0EF4
:10218E006B6E000E6C6E1200000E6E6E6ABED4EF99
:10219E0010F0D2EF10F0DAEF10F0696C6A1ED8B0C2
:1021AE006A2A010E6E6E6CBEE1EF10F0DFEF10F0DA
:1021BE00E5EF10F06B6C6C1ED8B06C2A6B506C1087
:1021CE00D8B4ECEF10F0EEEF10F012EF11F0010EAC
:1021DE006D6EF6EF10F0D8906B366C366D2A6CAED5
:1021EE00FBEF10F0FDEF10F0F2EF10F06B50695CAA
:1021FE006C506A58D8A006EF11F008EF11F00CEFF2
:10220E0011F06B50695E6C506A5AD8906C326B321A
:10221E006D2EFDEF10F06E50D8B418EF11F01AEFCE
:10222E0011F01EEF11F0696C6A1ED8B06A2A69C0EF
:10223E0069F06AC06AF01200928E9288928C93882E
:10224E00958C000E356E000E346E000E2A6E000E4A
:10225E00296E000E286E000E276E000E266E000EE2
:10226E00256E000E246E000E236E000E226E000EE2
:10227E00216E000E206E000E1F6E000E1E6E000EE2
:10228E001D6E000E1C6E000E1B6E000E1A6E000EE2
:10229E00196E000E186E000E176E000E166E000EE2
:1022AE00156E000E336E000E326E120094949492E0
:1022BE009490949A9392939A959E93908A808C8EF2
:1022CE008A8A8A828B8A8B808B828B848EEC13F027
:1022DE00000E696E010E6924D96EDA6A000EDA22DA
:1022EE00DF6A520E6924D96EDA6A000EDA22FF0E08
:1022FE00DF6E692A070E696487EF11F089EF11F01E
:10230E0071EF11F0000E376E000E366E000E386E45
:10231E00010E2C6E2C0E2B6E1200B9EC13F0000E6B
:10232E00C26E0F0EC16ED4EC13F0C90E6F6E920E0C
:10233E00EEEC12F0FF0E6A6E050E696E85EC13F070
:10234E00D2EC13F0F3EC11F05DEC11F023EC11F084
:10235E00C0EC13F05BEC12F0000E6A6E670E696E45
:10236E003C0E0DEC10F0010E6A6E060E6B6E17EC45
:10237E0012F0000E306E000E2F6E12005B6E5BC000
:10238E005CF08090000E5D6E5CBED0EF11F0D4EF6D
:10239E0011F05A6A5A2AD5EF11F05A6A80505A181B
:1023AE00FE0B5A18806E00D000D000D000D0808274
:1023BE0000F0809200F05C505C245C6E5D2A070E8B
:1023CE005D64ECEF11F0EEEF11F0CBEF11F08086C3
:1023DE0000F0809600F01200000E476E000E466E62
:1023EE00000E456E000E446E000E436E000E426EE1
:1023FE00000E416E000E406E000E3F6E000E3E6EE1
:10240E00000E3C6E010E3D6E000E3B6E000E3A6EDF
:10241E00000E396E9384F09EF092F088F1881200CF
:10242E0066EC13F00009D8A41FEF12F021EF12F0A2
:10243E0017EF12F06AC0F6FF6BC0F7FF0800F550F9
:10244E0003EC13F06AC0F6FF6BC0F7FF6A4A6B2A03
:10245E000800F5500009D8A437EF12F039EF12F04A
:10246E0017EF12F0120000018F056D6E50EF12F093
:10247E00520E6D24D96EDA6A000EDA226D508D2559
:10248E00E16E000E8E21E26EE75019EC08F0DF6E61
:10249E006D2A000190516D5CD8A058EF12F05AEFE2
:1024AE0012F03FEF12F01200640E6F18D8A462EF14
:1024BE0012F064EF12F06EEF12F0010E386E800E15
:1024CE006A6E000E6B6E6EEC0CF07BEF12F0C90EA6
:1024DE006F18D8A475EF12F077EF12F07BEF12F0B1
:1024EE00000E3E6E000E3C6E12008E0EF66E270E25
:1024FE00F76E000EF86E00EE80F010EE0AF0090096
:10250E00F5CFEEFFE550E150FAE100EE01F0590E85
:10251E00EE6AE806FDE170907092000EF86E000112
:10252E001CEF0AF03D04D8A49FEF12F0A1EF12F0B9
:10253E00ABEF12F0000E3D6E41C047F040C046F0CA
:10254E003FC045F0B3EF12F0010E3D6E47C041F0B3
:10255E0046C040F045C03FF0B2EC13F01200452AE1
:10256E003C0E4518D8A4BEEF12F0C0EF12F0CFEF1C
:10257E0012F0000E456E462A3C0E4618D8A4CAEF3D
:10258E0012F0CCEF12F0CFEF12F0000E466E472A8B
:10259E00B2EC13F01200696EC586C7A0D9EF12F027
:1025AE00DBEF12F0D4EF12F0C9CF6AF02AEC13F081
:1025BE0069B002D0C59A01D0C58AC588C5B8EAEF00
:1025CE0012F0ECEF12F0E5EF12F06A501200696EA5
:1025DE0069507F0BD56E000ED76E000ED66EF2943C
:1025EE0069AEFCEF12F0FEEF12F001EF13F0F28A7B
:1025FE0002EF13F0F29A1200696EACAC09EF13F011
:10260E000BEF13F014EF13F0AC9031A211EF13F0A7
:10261E0013EF13F014EF13F0AC8069C0ADFF12008E
:10262E00000E696E010E6924D96EDA6A000EDA2286
:10263E00DF6A692A060E696427EF13F029EF13F09B
:10264E0019EF13F01200C7B42FEF13F031EF13F0A0
:10265E002AEF13F0C5AC36EF13F038EF13F03AEF64
:10266E0013F097EC13F012006A6EA0EC13F0D00E7C
:10267E0059EC13F0000E59EC13F06A5059EC13F0AC
:10268E0097EC13F012006A6EA0EC13F0D00E59EC1A
:10269E0013F0010E59EC13F06A5059EC13F097EC4D
:1026AE0013F01200696E69C0C9FFC7B061EF13F075
:1026BE0063EF13F05CEF13F02AEC13F01200ACB2E0
:1026CE006BEF13F06DEF13F070EF13F0010E71EF6F
:1026DE0013F0000E1200C78EC79CC68AC650F00BB0
:1026EE000809C66E630EC86E1200C582C5B282EFAF
:1026FE0013F084EF13F07DEF13F0120069C06BF04E
:10270E006AC06CF06CC0D7FF6BC0D6FF12009290FF
:10271E0092929296929A809080928096809A1200CF
:10272E00C584C5B49DEF13F09FEF13F098EF13F02F
:10273E001200C580C5B0A6EF13F0A8EF13F0A1EFFD
:10274E0013F012005AC05CF05BC05DF05DC0D7FFA5
:10275E005CC0D6FF120047C044F046C043F045C0EF
:10276E0042F01200D380D382D388D38AD38C9B8C31
:10277E001200010E516E010E506E72EC13F012002B
:10278E0010120905301123000000000E3E6E1200DB
:0E279E00010E3E6E1200D58E1200F28E120059
:020000040030CA
:0E000000FF081F1EFF0180FF0FC00FE00F4022
:00000001FF
