:040000002CEF00F0F1
:060008006F822FED0DF0E8
:100018006F80D8CF5BF0E8CF5CF0E0CF5DF0F0A860
:1000280018EF00F01AEF00F024EF00F0F0A21FEF35
:1000380000F021EF00F024EF00F0F09253EC0EF006
:100048005DC0E0FF5CC0E8FF5BC0D8FF6F901000A8
:0400580075EF11F03F
:1006000000546869732069732045746865726E656B
:10061000742070726F746F636F6C207465737420D4
:100620006669726D77617265210D0A005735353044
:100630003020496E697420436F6D706C657465215C
:100640000A0057353530302D3E25640A00003450FD
:10065000D8B42DEF03F02FEF03F085EF06F0000E76
:10066000326E000E346ECB0E6E6E000E2F6E85EF66
:1006700006F04B50D8A43FEF03F041EF03F057EFE3
:1006800003F04A50D8A447EF03F049EF03F053EFCB
:1006900003F00350D8A44FEF03F051EF03F053EFF2
:1006A00003F0120E036E010E4B6E6CEF03F04A5016
:1006B000D8A45DEF03F05FEF03F06AEF03F0120ED2
:1006C0000318D8A466EF03F068EF03F06AEF03F0B5
:1006D000000E036E000E4B6E000E2F6E0350F8ECF2
:1006E0000FF0AAEF06F003C064F0642A64C062F061
:1006F000636A62BE63060F0E6216000E631663BE67
:100700008BEF03F0635009E10A0E625CD8A08BEF17
:1007100003F08DEF03F08FEF03F0060E64264B50CD
:10072000D8A495EF03F097EF03F0B3EF03F0645014
:10073000800A6E0FD8A09FEF03F0A1EF03F0A3EFA4
:1007400003F0010E4A6E6450800A5C0FD8A0ABEF34
:1007500003F0ADEF03F0DFEF03F0000E646E000E68
:100760004A6EDFEF03F04B04D8A4B9EF03F0BBEF00
:1007700003F0DFEF03F06450800A6D0FD8A0C3EFE1
:1007800003F0C5EF03F0C7EF03F0010E646E645091
:10079000800A6E0FD8A0CFEF03F0D1EF03F0DFEFA8
:1007A00003F04A04D8A4D7EF03F0D9EF03F0DDEF4C
:1007B00003F0000E4A6EDFEF03F0010E4A6E64C0D4
:1007C00003F00350F8EC0FF0000E2F6EAAEF06F0C6
:1007D0000A4A0B2A0A50085C0B500958D8B0F3EFAC
:1007E00003F0F5EF03F0AAEF06F002C064F0642A0C
:1007F00064C062F0636A62BE63060F0E6216000E8A
:10080000631663BE0DEF04F0635009E10A0E625CEB
:10081000D8A00DEF04F00FEF04F011EF04F0060E76
:1008200064266450800A260FD8A019EF04F01BEF4D
:1008300004F01DEF04F0000E646E64C002F002507C
:1008400032EC14F0000E0B6E000E0A6EAAEF06F0EA
:100850000A4A0B2A0A50085C0B500958D8B033EFEB
:1008600004F035EF04F0AAEF06F001C064F0642A4A
:1008700064C062F0636A62BE63060F0E6216000E09
:10088000631663BE4DEF04F0635009E10A0E625C2B
:10089000D8A04DEF04F04FEF04F051EF04F0060E36
:1008A00064266450800A260FD8A059EF04F05BEF4D
:1008B00004F05DEF04F0000E646E64C001F00150BE
:1008C00023EC14F022EF04F0000E2F6E02C064F04F
:1008D000642A64C062F0636A62BE63060F0E621629
:1008E000000E631663BE7EEF04F0635009E10A0E4A
:1008F000625CD8A07EEF04F080EF04F082EF04F099
:10090000060E64266450800A260FD8A08AEF04F0F1
:100910008CEF04F08EEF04F0000E646E64C002F001
:10092000025032EC14F0AAEF06F0000E2F6E01C058
:1009300064F0642A64C062F0636A62BE63060F0EEC
:100940006216000E631663BEAFEF04F0635009E158
:100950000A0E625CD8A0AFEF04F0B1EF04F0B3EF81
:1009600004F0060E64266450800A260FD8A0BBEF60
:1009700004F0BDEF04F0BFEF04F0000E646E64C03D
:1009800001F0015023EC14F0AAEF06F02F50626E34
:10099000636A6350000AD8B4D0EF04F0AAEF06F0FF
:1009A00062500B0AD8B473EF03F0070AD8B464EFAF
:1009B00004F0010AD8B495EF04F0030AD8B439EF73
:1009C00003F01F0AD8B4E8EF03F0030AD8B428EF05
:1009D00004F0AAEF06F0000E2F6E3650D8B4F3EFF5
:1009E00004F0F5EF04F0F7EF04F0AAEF06F038504A
:1009F000D8A4FDEF04F0FFEF04F007EF05F0C80EF8
:100A00006E6ECDEC14F0000E326E0DEF05F0C90ED7
:100A10006E6ECAEC14F003EF05F06EC044F0AAEF5E
:100A200006F03850D8A417EF05F019EF05F01BEFCA
:100A300005F0AAEF06F0010E626E000E636E3650EE
:100A4000625E000E635A62506310D8A42AEF05F06C
:100A50002DEF05F0010E2EEF05F0000E366EE4EFDF
:100A600003F081EC13F0000E366EE4EF03F02F502C
:100A7000626E636A6350000AD8B441EF05F0AAEFD2
:100A800006F062500E0AD8B4EBEF04F0010AD8B4B5
:100A900011EF05F01B0AD8B431EF05F0AAEF06F00C
:100AA000000E366E000E326EACEF05F03850D8A452
:100AB0005CEF05F05EEF05F066EF05F0C80E6E6EB8
:100AC000CDEC14F0000E326E6CEF05F0C90E6E6EB8
:100AD000CAEC14F062EF05F0000E2F6E0DEF05F07A
:100AE0003704D8A476EF05F078EF05F080EF05F035
:100AF000000E3B6E000E3A6E000E396EE4EF03F00E
:100B00003750D8A486EF05F088EF05F0E4EF03F046
:100B10003EC041F03DC040F03CC03FF0E4EF03F088
:100B200081EC13F0E4EF03F03704D8A49AEF05F05A
:100B30009CEF05F09EEF05F0E4EF03F0CA0E6E6E39
:100B4000AAEF06F03704D8A4A8EF05F0AAEF05F045
:100B50009EEF05F0E4EF03F02F50626E636A63507E
:100B6000000AD8B4B6EF05F0AAEF06F062500C0AFE
:100B7000D8B494EF05F0010AD8B4A2EF05F0030A47
:100B8000D8B456EF05F0010AD8B470EF05F01B0A8F
:100B9000D8B490EF05F0AAEF06F0000E376E000E05
:100BA000326EE9EF05F0C80E6E6ECDEC14F0000E5B
:100BB000326EE4EF03F0010E376EC90E6E6ECAECB2
:100BC00014F041C03BF040C03AF03FC039F0E4EFD0
:100BD00003F02F50626E636A6350000AD8B4F3EFDB
:100BE00005F0AAEF06F062500C0AD8B49EEF05F0AB
:100BF000010AD8B49EEF05F0030AD8B4D3EF05F08C
:100C0000010AD8B488EF05F01B0AD8B4DBEF05F071
:100C1000AAEF06F00A4A0B2A0A50085C0B50095842
:100C2000D8B015EF06F017EF06F0AAEF06F09EEC2D
:100C300013F022EF04F00A4A0B2A0A50085C0B500A
:100C40000958D8B026EF06F028EF06F0AAEF06F014
:100C500094EC0FF022EF04F0000E326E9EEC13F0D5
:100C6000E4EF03F0000E326E94EC0FF0E4EF03F0CB
:100C70003704D8A43EEF06F040EF06F0D3EF05F0BE
:100C8000E4EF03F03704D8A448EF06F04AEF06F08B
:100C90004CEF06F0E4EF03F03750D8A452EF06F023
:100CA00054EF06F05AEF06F0000E416E000E406E53
:100CB000000E3F6E000E326E000E2F6EAAEF06F091
:100CC0002F50626E636A6350000AD8B46AEF06F070
:100CD000AAEF06F062500C0AD8B42CEF06F0010A15
:100CE000D8B432EF06F0030AD8B438EF06F0010AA0
:100CF000D8B442EF06F01E0AD8B40AEF06F0030A91
:100D0000D8B41BEF06F0AAEF06F06E50626E636A6D
:100D10006350000AD8B48FEF06F0AAEF06F06250D5
:100D2000640AD8B4C6EF04F0010AD8B4AAEF06F0FA
:100D3000AD0AD8B437EF05F0010AD8B450EF05F08A
:100D4000030AD8B460EF06F0010AD8B4CDEF05F07D
:100D5000AAEF06F0120043EF08F0B10E145C040E87
:100D60001558D8A0B6EF06F0B8EF06F0CCEF06F0B5
:100D70002C50D8A4BEEF06F0C0EF06F0C2EF06F08C
:100D8000100E2F6E010E2C6E040E156EB00E146E2A
:100D900027EC03F0E5EF06F0155009E1330E145C83
:100DA000D8A0D5EF06F0D7EF06F0E5EF06F02D500E
:100DB000D8A4DDEF06F0DFEF06F0E1EF06F00B0E52
:100DC0002F6E010E2D6EC8EF06F00001C55109E12E
:100DD000060EC45DD8A0EFEF06F0F1EF06F065EF68
:100DE00008F0000EC56F000EC46F000E2E6E000ED0
:100DF0002C6E000E2D6E000E2F6E65EF08F0B10EFA
:100E0000125C040E1358D8A008EF07F00AEF07F0A1
:100E10001EEF07F02C50D8A410EF07F012EF07F0E8
:100E200014EF07F0110E2F6E010E2C6E040E136ED0
:100E3000B00E126E27EC03F037EF07F0135009E104
:100E4000330E125CD8A027EF07F029EF07F037EF39
:100E500007F02D50D8A42FEF07F031EF07F033EF54
:100E600007F00C0E2F6E010E2D6E1AEF07F0000129
:100E7000C35109E1060EC25DD8A041EF07F043EF70
:100E800007F065EF08F0000EC36F000EC26F000E92
:100E90002E6E000E2C6E000E2D6E000E2F6E65EF66
:100EA00008F0B10E105C040E1158D8A05AEF07F0EC
:100EB0005CEF07F070EF07F02C50D8A462EF07F05A
:100EC00064EF07F066EF07F0120E2F6E010E2C6E26
:100ED000040E116EB00E106E27EC03F089EF07F0D0
:100EE000115009E1330E105CD8A079EF07F07BEFC9
:100EF00007F089EF07F02D50D8A481EF07F083EFBA
:100F000007F085EF07F00D0E2F6E010E2D6E6CEFC2
:100F100007F00001C15109E1060EC05DD8A093EFB2
:100F200007F095EF07F065EF08F0000EC16F000EB7
:100F3000C06F000E2E6E000E2C6E000E2D6E000E79
:100F40002F6E65EF08F0B10E0E5C040E0F58D8A09E
:100F5000ACEF07F0AEEF07F0C2EF07F02C50D8A4CB
:100F6000B4EF07F0B6EF07F0B8EF07F0130E2F6EEF
:100F7000010E2C6E040E0F6EB00E0E6E27EC03F0F9
:100F8000DBEF07F00F5009E1330E0E5CD8A0CBEF7A
:100F900007F0CDEF07F0DBEF07F02D50D8A4D3EF2B
:100FA00007F0D5EF07F0D7EF07F00E0E2F6E010E0A
:100FB0002D6EBEEF07F00001BF5109E1060EBE5DC8
:100FC000D8A0E5EF07F0E7EF07F065EF08F0000EB7
:100FD000BF6F000EBE6F000E2E6E000E2C6E000E48
:100FE0002D6E65EF08F0B10E0C5C040E0D58D8A004
:100FF000FCEF07F0FEEF07F012EF08F02C50D8A43A
:1010000004EF08F006EF08F008EF08F0140E2F6E5A
:10101000010E2C6E040E0D6EB00E0C6E27EC03F05C
:101020002BEF08F00D5009E1330E0C5CD8A01BEF3C
:1010300008F01DEF08F02BEF08F02D50D8A423EF97
:1010400008F025EF08F027EF08F00F0E2F6E010EC5
:101050002D6E0EEF08F00001BD5109E1060EBC5DDA
:10106000D8A035EF08F037EF08F065EF08F0000E74
:10107000BD6F000EBC6F000E2E6E000E2C6E000EAB
:101080002D6E65EF08F02E500101166F176B17518A
:10109000000AD8B44EEF08F065EF08F01651010AC7
:1010A000D8B4ADEF06F0030AD8B4FFEF06F0010A9A
:1010B000D8B451EF07F0070AD8B4A3EF07F0010A3C
:1010C000D8B4F3EF07F065EF08F01200606EC6EFDA
:1010D00008F0C00E6BEF09F0F90E6BEF09F0A40EEB
:1010E0006BEF09F0B00E6BEF09F0990E6BEF09F0A2
:1010F000920E6BEF09F0820E6BEF09F0F80E6BEFBA
:1011000009F0800E6BEF09F0900E6BEF09F0880E7E
:101110006BEF09F0A00E6BEF09F0830E6BEF09F097
:10112000C60E6BEF09F0A70E6BEF09F0A10E6BEF87
:1011300009F0860E6BEF09F0840E6BEF09F08E0E4E
:101140006BEF09F0890E6BEF09F08B0E6BEF09F076
:10115000F10E6BEF09F0C70E6BEF09F0AB0E6BEF02
:1011600009F0A30E6BEF09F08C0E6BEF09F0980EEF
:101170006BEF09F0AF0E6BEF09F0870E6BEF09F024
:10118000C10E6BEF09F0910E6BEF09F060505E6ECF
:101190005F6A5F50000AD8B4D0EF08F06BEF09F037
:1011A0005E50000AD8B469EF08F0010AD8B46CEFB9
:1011B00008F0030AD8B46FEF08F0010AD8B472EF50
:1011C00008F0070AD8B475EF08F0010AD8B478EF30
:1011D00008F0030AD8B47BEF08F0010AD8B47EEF18
:1011E00008F00F0AD8B481EF08F0010AD8B484EFF0
:1011F00008F0480AD8B487EF08F0030AD8B481EFA2
:1012000008F0010AD8B490EF08F0070AD8B469EFE3
:1012100008F0010AD8B499EF08F0030AD8B49FEF98
:1012200008F0010AD8B47BEF08F00F0AD8B4A2EF97
:1012300008F0010AD8B46CEF08F0030AD8B4A8EF9C
:1012400008F0060AD8B4ABEF08F0030AD8B469EF87
:1012500008F01F0AD8B4B4EF08F0030AD8B478EF46
:1012600008F0060AD8B4C0EF08F0340AD8B48AEF00
:1012700008F0030AD8B48DEF08F0010AD8B493EF50
:1012800008F0070AD8B496EF08F0010AD8B49CEF2A
:1012900008F0020AD8B484EF08F00F0AD8B4A5EF1A
:1012A00008F0060AD8B4AEEF08F0010AD8B4B1EFDE
:1012B00008F01E0AD8B4B7EF08F0030AD8B4BAEFA2
:1012C00008F0060AD8B4BDEF08F00D0AD8B4C3EF91
:1012D00008F06BEF09F01200B9EC12F0ABEC06F07D
:1012E0003450D8B476EF09F078EF09F082EF09F0C6
:1012F000000E176EC80E166E050E326E000E366E9C
:1013000091EF09F0010E176E2C0E166ECB0E6E18B3
:10131000D8A48DEF09F08FEF09F091EF09F0000EDE
:10132000326E48B096EF09F098EF09F09AEF09F0A5
:101330006EEF09F04890DAEC0DF0D6EF09F0FFEC13
:1013400013F00DEF0AF0FFEC13F0010E0001866FB1
:101350000DEF0AF0FFEC13F0010E0001806F010E9B
:10136000816F0DEF0AF0FFEC13F0010E0001826FA8
:10137000010E836F0DEF0AF0FFEC13F0010E000178
:10138000846F010E856F0DEF0AF0FFEC13F0010E74
:101390000001806F010E816F010E826F010E836F5D
:1013A000010E846F010E856FA5EF09F03250010127
:1013B000236F246B2451000AD8B4E1EF09F00DEF3C
:1013C0000AF02351000AD8B49FEF09F0010AD8B4FB
:1013D000A3EF09F0030AD8B4AAEF09F0010AD8B4C0
:1013E000B3EF09F0070AD8B4BCEF09F0010AD8B48A
:1013F000C5EF09F00DEF0AF02DEC0FF060C01EF103
:1014000061C01FF1010E0101206F060E216F60EC1B
:1014100013F0000E326E1FEF0AF06E500101236FC1
:10142000246B2451000AD8B418EF0AF01FEF0AF019
:101430002351640AD8B4FCEF09F01FEF0AF03650CC
:10144000D8B425EF0AF027EF0AF038EF0AF06EEF74
:1014500009F01BEC0BF016C11EF117C11FF1010EB4
:101460000101206F060E216F60EC13F06EEF09F0A2
:101470006E500101236F246B2451000AD8B443EF4E
:101480000AF06EEF09F02351C80AD8B429EF0AF028
:10149000010AD8B429EF0AF0030AD8B429EF0AF0F8
:1014A000010AD8B429EF0AF06EEF09F02CEF00F032
:1014B00080BE5DEF0AF05FEF0AF068EF0AF0000E01
:1014C0000001C56F000EC46F144A152A010E2E6E5E
:1014D00080AE6DEF0AF06FEF0AF07EEF0AF02E0497
:1014E000D8A475EF0AF077EF0AF07EEF0AF0000E4D
:1014F000156E000E146E0001C44BC52B80B883EF2F
:101500000AF085EF0AF08EEF0AF0000E0001C36FBB
:10151000000EC26F124A132A020E2E6E80A893EF9D
:101520000AF095EF0AF0A5EF0AF0020E2E18D8A4E3
:101530009CEF0AF09EEF0AF0A5EF0AF0000E136E82
:10154000000E126E0001C24BC32B80BCAAEF0AF042
:10155000ACEF0AF0B5EF0AF0000E0001C16F000E0B
:10156000C06F104A112A030E2E6E80ACBAEF0AF03B
:10157000BCEF0AF0CCEF0AF0030E2E18D8A4C3EF8C
:101580000AF0C5EF0AF0CCEF0AF0000E116E000E63
:10159000106E0001C04BC12B81B8D1EF0AF0D3EF20
:1015A0000AF0DCEF0AF0000E0001BF6F000EBE6F04
:1015B0000E4A0F2A040E2E6E81A8E1EF0AF0E3EF27
:1015C0000AF0F3EF0AF0040E2E18D8A4EAEF0AF09E
:1015D000ECEF0AF0F3EF0AF0000E0F6E000E0E6E45
:1015E0000001BE4BBF2B83BCF8EF0AF0FAEF0AF004
:1015F00003EF0BF0000E0001BD6F000EBC6F0C4A34
:101600000D2A050E2E6E83AC08EF0BF00AEF0BF0DF
:101610001AEF0BF0050E2E18D8A411EF0BF013EFF4
:101620000BF01AEF0BF0000E0D6E000E0C6E0001A9
:10163000BC4BBD2B12003704D8A421EF0BF023EFD5
:101640000BF06DEF0BF03BC05EF05F6A000E616E59
:101650000A0E606E1DEC11F05E500101196F3BC067
:101660005EF05F6A000E616E0A0E606E5BEC10F059
:101670005E500101186F3AC05EF05F6A000E616E45
:101680000A0E606E1DEC11F05E5001011B6F3AC036
:101690005EF05F6A000E616E0A0E606E5BEC10F029
:1016A0005E5001011A6F39C05EF05F6A000E616E14
:1016B0000A0E606E1DEC11F05E5001011D6F39C005
:1016C0005EF05F6A000E616E0A0E606E5BEC10F0F9
:1016D0005E5001011C6FC9EF0BF03750D8A473EFB7
:1016E0000BF075EF0BF0C9EF0BF041505E6E5F6AC7
:1016F0005EBE5F06000E616E0A0E606E1DEC11F09C
:101700005E500101196F41505E6E5F6A5EBE5F06FA
:10171000000E616E0A0E606E5BEC10F05E5001010F
:10172000186F40505E6E5F6A5EBE5F06000E616EAF
:101730000A0E606E1DEC11F05E5001011B6F4050EF
:101740005E6E5F6A5EBE5F06000E616E0A0E606EC0
:101750005BEC10F05E5001011A6F3F505E6E5F6AE5
:101760005EBE5F06000E616E0A0E606E1DEC11F02B
:101770005E5001011D6F3F505E6E5F6A5EBE5F0688
:10178000000E616E0A0E606E5BEC10F05E5001019F
:101790001C6F180E0101166F010E176F12008A9050
:1017A0008C9E8A9A8A928B9A8B908B928B94312AF8
:1017B000870E3124D96EDA6A000EDA22DF50566EB7
:1017C0007F0E3124D96EDA6A000EDA22DF50D8B4E7
:1017D000ECEF0BF0EEEF0BF002EF0CF0D8901730BF
:1017E000536E1630526E3050546E556A5250545CDF
:1017F00053505558D8B0FFEF0BF001EF0CF002EF4B
:101800000CF056685650EBEC12F022EF0CF08B8483
:101810004FEF0CF08B824FEF0CF08B804FEF0CF002
:101820008B8A4FEF0CF08A824FEF0CF08A8A4FEFD1
:101830000CF08C8E4FEF0CF08A80000E316E302A47
:101840004FEF0CF03150526E536A5350000AD8B427
:101850002CEF0CF04FEF0CF05250010AD8B407EF08
:101860000CF0030AD8B40AEF0CF0010AD8B40DEF5B
:101870000CF0070AD8B410EF0CF0010AD8B413EF3B
:101880000CF0030AD8B416EF0CF0010AD8B419EF23
:101890000CF00F0AD8B41CEF0CF04FEF0CF03050E6
:1018A000526E536A1650521807E117505318D8A4B5
:1018B0005CEF0CF05EEF0CF081EF0CF0000E306E80
:1018C0003450D8B466EF0CF068EF0CF069EF0CF010
:1018D000332A0F0E33646FEF0CF071EF0CF081EFD1
:1018E0000CF03450D8B477EF0CF079EF0CF081EFB6
:1018F0000CF0000E346E000E326E0C0E336ECB0EFA
:101900006E6E120020EE02F05F50D9266050DA228F
:10191000DF50626E4B04D8A490EF0CF092EF0CF005
:10192000BBEF0CF0120E626498EF0CF09AEF0CF023
:101930009DEF0CF06250EE0F626E62C061F00F0E10
:101940006116090E6164A7EF0CF0A9EF0CF0ABEF84
:101950000CF0060E625E62504009626E4A04D8A422
:10196000B4EF0CF0B6EF0CF0DCEF0CF06250200995
:10197000626EDCEF0CF04A04D8A4C1EF0CF0C3EFA8
:101980000CF0CEEF0CF0120E6260C9EF0CF0CBEF52
:101990000CF0CEEF0CF06250120F626E62C061F07C
:1019A0000F0E6116090E6164D8EF0CF0DAEF0CF03F
:1019B000DCEF0CF0060E622620EE02F05F50D92616
:1019C0006050DA2262C0DFFF8DEC14F0D00E41ECE3
:1019D00014F0000E41EC14F05FC0D9FF60C0DAFFD4
:1019E000DF5041EC14F020EE01F05F50D92660503A
:1019F000DA22DF5041EC14F020EE02F05F50D926DD
:101A00006050DA22DF5041EC14F020EE03F05F501A
:101A1000D9266050DA22DF5041EC14F020EE04F0B9
:101A20005F50D9266050DA22DF5041EC14F020EEEE
:101A300005F05F50D9266050DA22DF5041EC14F0F7
:101A400020EE06F05F50D9266050DA22DF5041ECDC
:101A500014F0900E41EC14F09FEC14F0120006000C
:101A6000D9CF59F0DACF5AF0F2AA39EF0DF03BEFA7
:101A70000DF0C3EF0DF0F2A440EF0DF042EF0DF0CA
:101A8000C3EF0DF0F2944DEF0DF0FF0E4F6E050E0B
:101A90004E6EA8EC14F07AEF0DF03150576E586A84
:101AA0005850000AD8B457EF0DF07AEF0DF05750A8
:101AB000000AD8B445EF0DF0010AD8B445EF0DF097
:101AC000030AD8B445EF0DF0010AD8B445EF0DF084
:101AD000070AD8B445EF0DF0010AD8B445EF0DF070
:101AE000030AD8B445EF0DF0010AD8B445EF0DF064
:101AF0007AEF0DF0CFEC0BF058EC0AF00001BA4B86
:101B0000BB2B640EBA19BB11D8A489EF0DF08BEF73
:101B10000DF0D4EF0DF04880000EBB6F000EBA6FD1
:101B20002C50D8B496EF0DF098EF0DF0B9EF0DF002
:101B30004C4A4D2A4D5009E10B0E4C5CD8A0A3EF46
:101B40000DF0A5EF0DF0A9EF0DF0000E4D6E0A0E91
:101B50004C6E000E4F6E640E4E6E4CC050F04DC079
:101B600051F07FEC12F04EC008F04FC009F0D4EFF6
:101B70000DF0000E4D6E000E4C6E000E096E640EE0
:101B8000086ED4EF0DF0F0A8C8EF0DF0CAEF0DF01D
:101B9000D4EF0DF0F0A2CFEF0DF0D1EF0DF0D4EFB8
:101BA0000DF0F092C0EC0EF05AC0DAFF59C0D9FF28
:101BB0006F921100000E00018F6F23EF0EF04B505B
:101BC000D8A4E5EF0DF0E7EF0DF0EAEF0DF08F810F
:101BD00052EF0EF08F8352EF0EF03450D8B4F3EF83
:101BE0000DF0F5EF0DF0F8EF0DF08F89F9EF0DF036
:101BF0008F8B3650D8B4FFEF0DF001EF0EF048EFA9
:101C00000EF0184A192A195007E10C0E185CD8B0CA
:101C10000CEF0EF00EEF0EF00FEF0EF08F85195057
:101C200009E11A0E185CD8A018EF0EF01AEF0EF0AA
:101C300048EF0EF0000E196E000E186E48EF0EF011
:101C40008F8948EF0EF06E505E6E5F6A5F50000A3B
:101C5000D8B42DEF0EF048EF0EF05E50640AD8B401
:101C6000DFEF0DF0010AD8B4DFEF0DF0AD0AD8B404
:101C7000EDEF0DF0010AD8B420EF0EF0030AD8B44E
:101C800020EF0EF0010AD8B420EF0EF048EF0EF06E
:101C90003704D8A44EEF0EF050EF0EF0EAEF0DF03F
:101CA000E7EF0DF012003850D8A459EF0EF05BEFBB
:101CB0000EF05DEF0EF0BFEF0EF03704D8A463EF27
:101CC0000EF065EF0EF080EF0EF0392A3C0E391859
:101CD000D8A46DEF0EF06FEF0EF0BFEF0EF0000E18
:101CE000396E3A2A3C0E3A18D8A479EF0EF07BEF01
:101CF0000EF0BFEF0EF0000E3A6E3B2ABFEF0EF073
:101D00003750D8A486EF0EF088EF0EF0BFEF0EF03C
:101D10004150D8A48EEF0EF090EF0EF0A8EF0EF029
:101D20004050D8A496EF0EF098EF0EF0A8EF0EF00A
:101D30003F50D8A49EEF0EF0A0EF0EF0A8EF0EF0EB
:101D4000000E386E010E346E000E336EBFEF0EF0D3
:101D5000000E346E3F063FBEB2EF0EF0B0EF0EF055
:101D6000BFEF0EF03B0E3F6E400640BEBCEF0EF0E4
:101D7000BAEF0EF0BFEF0EF03B0E406E41061200C0
:101D80003850D8A4C6EF0EF0C8EF0EF0CAEF0EF030
:101D90002CEF0FF03704D8A4D0EF0EF0D2EF0EF0F6
:101DA000EDEF0EF0392A3C0E3918D8A4DAEF0EF018
:101DB000DCEF0EF02CEF0FF0000E396E3A2A3C0EDD
:101DC0003A18D8A4E6EF0EF0E8EF0EF02CEF0FF083
:101DD000000E3A6E3B2A2CEF0FF03750D8A4F3EFE9
:101DE0000EF0F5EF0EF02CEF0FF04150D8A4FBEF02
:101DF0000EF0FDEF0EF015EF0FF04050D8A403EFFA
:101E00000FF005EF0FF015EF0FF03F50D8A40BEFD8
:101E10000FF00DEF0FF015EF0FF0000E386E010E02
:101E2000346E000E336E2CEF0FF0000E346E3F0652
:101E30003FBE1FEF0FF01DEF0FF02CEF0FF03B0E2A
:101E40003F6E400640BE29EF0FF027EF0FF02CEF5A
:101E50000FF03B0E406E410612008DEC14F0D00ED8
:101E600041EC14F0000E41EC14F096EC14F0D10E9D
:101E700041EC14F0000EBAEC13F0016E000EBAEC57
:101E800013F0026E010EBAEC13F0036E9FEC14F027
:101E900003BC4DEF0FF050EF0FF0010E51EF0FF0BC
:101EA000000E4B6E4B50D8A458EF0FF05AEF0FF0C6
:101EB0005FEF0FF003503F0B036E6CEF0FF003BAB0
:101EC00064EF0FF067EF0FF0010E68EF0FF0000EF8
:101ED0004A6E03501F0B036E03380F0B626E0350E4
:101EE0000F0B636E02380F0B646E02500F0B656EA2
:101EF00001380F0B666E01500F0B676E4B04D8A4B0
:101F000084EF0FF086EF0FF08FEF0FF06250D8A440
:101F10008CEF0FF08EEF0FF08FEF0FF06268620E14
:101F2000606E000E616E12003F063FBE9CEF0FF028
:101F30009AEF0FF0D8EF0FF0415040245E6EE86A40
:101F4000D8B0E82A41BEE80640BEE8065F6E5E50A3
:101F50005F10D8B4AEEF0FF0B0EF0FF0D8EF0FF086
:101F60003B0E3F6E400640BEBAEF0FF0B8EF0FF0E9
:101F7000C7EF0FF04150D8B4C0EF0FF0C2EF0FF031
:101F8000C7EF0FF03B0E406E4106D8EF0FF040BE9A
:101F9000CEEF0FF0CCEF0FF0D8EF0FF04150D8A4F8
:101FA000D4EF0FF0D6EF0FF0D8EF0FF0000E406E29
:101FB0003FBEDFEF0FF0DDEF0FF0F5EF0FF0415018
:101FC00040245E6EE86AD8B0E82A41BEE80640BE0A
:101FD000E8065F6E5E505F10D8A4F1EF0FF0F3EFEC
:101FE0000FF0F5EF0FF0000E3F6EB1EC14F01200A1
:101FF000606E60C061F04B04D8A401EF10F003EFF5
:1020000010F02CEF10F0120E616409EF10F00BEFDE
:1020100010F00EEF10F06150EE0F616E61C05FF0D6
:102020000F0E5F16090E5F6418EF10F01AEF10F034
:102030001CEF10F0060E615E61504009616E4A04AB
:10204000D8A425EF10F027EF10F04DEF10F06150FD
:102050002009616E4DEF10F04A04D8A432EF10F061
:1020600034EF10F04DEF10F0120E61603AEF10F007
:102070003CEF10F04DEF10F06150120F616E61C037
:102080005FF00F0E5F16090E5F6449EF10F04BEF23
:1020900010F04DEF10F0060E61268DEC14F0D00E0E
:1020A00041EC14F0020E41EC14F0615041EC14F0DC
:1020B0009FEC14F01200000E636E61BE64EF10F02E
:1020C00062EF10F06AEF10F0606C611ED8B0612A08
:1020D000010E636E5FBE71EF10F06FEF10F077EFDF
:1020E00010F05E6C5F1ED8B05F2A010E631A000EFE
:1020F000656E000E646E60506110D8B482EF10F00F
:1021000084EF10F0ACEF10F0010E626E8CEF10F067
:10211000D89060366136622A61AE91EF10F093EF8D
:1021200010F088EF10F0D8906436653660505E5C31
:1021300061505F58D8A09FEF10F0A1EF10F0A6EF0C
:1021400010F060505E5E61505F5A6480D8906132DA
:102150006032622E93EF10F06350D8B4B2EF10F0FB
:10216000B4EF10F0B8EF10F0646C651ED8B0652ABB
:1021700064C05EF065C05FF01200606E000EAC6E71
:10218000000EAB6E60A0C7EF10F0C9EF10F0CAEF01
:1021900010F0AC8860A2CFEF10F0D1EF10F0D3EFC9
:1021A00010F0AC8CAB8C60A4D8EF10F0DAEF10F02C
:1021B000DBEF10F0AC8E60A6E0EF10F0E2EF10F075
:1021C000E5EF10F0AB88E6EF10F0AB8A60A8EBEF1C
:1021D00010F0EDEF10F0F0EF10F0AC84F1EF10F034
:1021E000AC9460ACF6EF10F0F8EF10F0FBEF10F0ED
:1021F0009D8AFCEF10F09D9A60AE01EF11F003EFA5
:1022000011F006EF11F09D8807EF11F09D985EC068
:10221000AFFFAC8AAB8E949C948EACA812EF11F0F9
:1022200014EF11F01CEF11F0ACBE19EF11F01BEF21
:1022300011F01CEF11F0948C1200000E636E5FBE63
:1022400026EF11F024EF11F02CEF11F05E6C5F1E01
:10225000D8B05F2A010E636E61BE33EF11F031EF2B
:1022600011F037EF11F0606C611ED8B0612A605038
:102270006110D8B43EEF11F040EF11F064EF11F0AF
:10228000010E626E48EF11F0D89060366136622A16
:1022900061AE4DEF11F04FEF11F044EF11F06050CF
:1022A0005E5C61505F58D8A058EF11F05AEF11F002
:1022B0005EEF11F060505E5E61505F5AD8906132FF
:1022C0006032622E4FEF11F06350D8B46AEF11F014
:1022D0006CEF11F070EF11F05E6C5F1ED8B05F2AEA
:1022E0005EC05EF05FC05FF01200CC0EF66E280E8E
:1022F000F76E000EF86E01EE00F010EE16F0090019
:10230000F5CFEEFFE550E150FAE19C0EF66E280E97
:10231000F76E000EF86E00EEE8F010EE18F009000F
:10232000F5CFEEFFE550E150FAE18C0EF66E290E86
:10233000F76E000EF86E00EE66F010EE08F0090081
:10234000F5CFEEFFE550E150FAE101EE25F00E0E7B
:10235000EE6AE806FDE100EE80F0680EEE6AE8063F
:10236000FDE100EE01F04D0EEE6AE806FDE16F9032
:102370006F92000EF86E00016CEF09F0640E6E189B
:10238000D8A4C5EF11F0C7EF11F0F6EF11F0010E70
:10239000326E2DEC0FF060C01EF161C01FF1010E16
:1023A0000101206F060E216F60EC13F00350D8A4DA
:1023B000DCEF11F0DEEF11F005EF12F00250D8A4BF
:1023C000E4EF11F0E6EF11F005EF12F00150D8A4A0
:1023D000ECEF11F0EEEF11F005EF12F00C0E5F6E66
:1023E000010E606E82EC0CF005EF12F0C90E6E1853
:1023F000D8A4FDEF11F0FFEF11F005EF12F0000E81
:10240000386E000E366EEEEF11F01200928E92884A
:10241000928C9388958C000E2F6E000E2E6E000EFF
:10242000156E000E146E000E136E000E126E000E6E
:10243000116E000E106E000E0F6E000E0E6E000E6E
:102440000D6E000E0C6E000E0001C56F000EC46F05
:10245000000EC36F000EC26F000EC16F000EC06F82
:10246000000EBF6F000EBE6F000EBD6F000EBC6F82
:10247000000E0B6E000E0A6E000E2D6E000E2C6EFE
:10248000000E096E640E086E12009494949294905B
:10249000949A9392939A959E93908A808C8E8A8A2E
:1024A0008A828B8A8B808B828B8484EC14F0000E62
:1024B0005E6E800E5E24D96EDA6A000EDA22DF6A62
:1024C000880E5E24D96EDA6A000EDA22FF0EDF6E05
:1024D0005E2A070E5E646FEF12F071EF12F059EF93
:1024E00012F0000E00018E6F000E316E000E306E85
:1024F000000E326E010E176E2C0E166E1200000EBC
:10250000536E000E526E50505110D8B48AEF12F034
:102510008CEF12F0B4EF12F0010E546E94EF12F043
:10252000D89050365136542A51AE99EF12F09BEFA5
:1025300012F090EF12F0D8905236533650504E5C55
:1025400051504F58D8A0A7EF12F0A9EF12F0AEEFFC
:1025500012F050504E5E51504F5A5280D890513226
:102560005032542E9BEF12F052C04EF053C04FF039
:102570001200B8EC14F0000EC26E0F0EC16ED2EC59
:1025800014F0C90E6E6E920ED6EC13F0FF0E5F6E55
:10259000050E5E6E7BEC14F0D0EC14F019EC13F029
:1025A00045EC12F006EC12F0BFEC14F0BEEC11F0AA
:1025B000000E5F6E670E5E6E3C0EBDEC10F0010EFD
:1025C0005F6E060E606E3DEC13F0000E0001C76FEB
:1025D000000EC66F12004F6E4FC050F08090000E7C
:1025E000516E50BEF6EF12F0FAEF12F04E6A4E2A1C
:1025F000FBEF12F04E6A80504E18FE0B4E18806EA4
:1026000000D000D000D000D0808200F0809200F096
:1026100050505024506E512A070E516412EF13F09F
:1026200014EF13F0F1EF12F0808600F0809600F0C6
:102630001200000E416E000E406E000E3F6E000E46
:102640003E6E000E3D6E000E3C6E000E3B6E000EA8
:102650003A6E000E396E000E386E000E366E010EA8
:10266000376E000E356E000E346E000E336E93849E
:10267000F09EF092F088F18812005AEC14F00009F4
:10268000D8A445EF13F047EF13F03DEF13F05FC010
:10269000F6FF60C0F7FF0800F550EBEC13F05FC0E9
:1026A000F6FF60C0F7FF5F4A602A0800F550000996
:1026B000D8A45DEF13F05FEF13F03DEF13F01200BD
:1026C00001012005226F77EF13F0880E2225D96EC5
:1026D000DA6A000EDA2222511E25E16E000E1F2159
:1026E000E26EE75066EC08F0DF6E0101222B21510B
:1026F000225DD8A07EEF13F080EF13F065EF13F0AA
:1027000012003704D8A487EF13F089EF13F093EF8A
:1027100013F0000E376E3BC041F03AC040F039C0B4
:102720003FF09BEF13F0010E376E41C03BF040C00D
:102730003AF03FC039F0B1EC14F012003F2A3C0EE1
:102740003F18D8A4A6EF13F0A8EF13F0B7EF13F0DB
:10275000000E3F6E402A3C0E4018D8A4B2EF13F092
:10276000B4EF13F0B7EF13F0000E406E412AB1EC56
:1027700014F012005E6EC586C7A0C1EF13F0C3EF60
:1027800013F0BCEF13F0C9CF5FF012EC14F05EB0A1
:1027900002D0C59A01D0C58AC588C5B8D2EF13F05A
:1027A000D4EF13F0CDEF13F05F5012005E6E5E5069
:1027B0007F0BD56E000ED76E000ED66EF2945EAE15
:1027C000E4EF13F0E6EF13F0E9EF13F0F28AEAEF2B
:1027D00013F0F29A12005E6EACACF1EF13F0F3EF6F
:1027E00013F0FCEF13F0AC902BA2F9EF13F0FBEF1A
:1027F00013F0FCEF13F0AC805EC0ADFF1200000ED2
:102800005E6E800E5E24D96EDA6A000EDA22DF6A0E
:102810005E2A060E5E640FEF14F011EF14F001EF64
:1028200014F01200C7B417EF14F019EF14F012EF00
:1028300014F0C5AC1EEF14F020EF14F022EF14F0EA
:102840009FEC14F012005F6E8DEC14F0D00E41EC92
:1028500014F0000E41EC14F05F5041EC14F09FECCA
:1028600014F012005F6E8DEC14F0D00E41EC14F0F9
:10287000010E41EC14F05F5041EC14F09FEC14F0A9
:1028800012005E6E5EC0C9FFC7B049EF14F04BEF97
:1028900014F044EF14F012EC14F012000A0A0F01C5
:1028A000FFFFFF000A0A0FDF0A0A0F01FFFFFF0008
:1028B0000A0A0FDFACB25FEF14F061EF14F064EFBF
:1028C00014F0010E65EF14F0000E1200F46B8CCEC4
:1028D000674BF46B8CCE674B101209053011230047
:1028E0000000C78EC79CC68AC650F00B0809C66E8A
:1028F000630EC86E12005EC060F05FC061F061C020
:10290000D7FF60C0D6FF1200929092929296929A50
:10291000809080928096809A1200C580C5B093EF17
:1029200014F095EF14F08EEF14F01200C582C5B2CA
:102930009CEF14F09EEF14F097EF14F01200C58492
:10294000C5B4A5EF14F0A7EF14F0A0EF14F0120037
:102950004EC050F04FC051F051C0D7FF50C0D6FF0D
:10296000120041C03EF040C03DF03FC03CF01200BC
:10297000D380D382D388D38AD38C9B8C1200010E50
:102980004B6E010E4A6E71EC14F012000303030348
:1029900003030303000E386E1200010E386E12009E
:0829A000D58E1200F28E120028
:020000040030CA
:0E000000FF081F1EFF0180FF0FC00FE00F4022
:00000001FF
